:020000040001F9
:1040000010370020D1450100E3450100E5450100DE
:1040100000000000000000000000000000000000A0
:10402000000000000000000000000000E745010063
:104030000000000000000000E9450100EB45010020
:10404000ED450100ED450100ED450100ED450100A4
:10405000ED45010000000000C57A0100C17E0100AD
:10406000ED450100D17B0100ED450100ED4501006A
:10407000ED450100ED450100ED450100ED45010074
:10408000ED450100CB510100ED450100ED4501007A
:10409000F7510100ED45010071630100ED4501009C
:1040A000ED450100ED4501000000000000000000AA
:1040B0000000000000000000000000000000000000
:1040C00000F002F800F031F80CA030C808382418CD
:1040D0002D18A246671EAB4654465D46AC4201D140
:1040E00000F023F87E460F3E0FCCB6460126334241
:1040F00000D0FB1AA246AB46334318477C4C000065
:104100008C4C0000103A02D378C878C1FAD8520714
:1041100001D330C830C101D504680C6070471FB5A9
:10412000C046C0461FBD10B510BD04F0C9FD114604
:10413000FFF7F5FF00F064F804F0E1FD03B4FFF7CA
:10414000F2FF03BC04F0E2FD401E00BF00BF00BF51
:1041500000BF00BF00BF00BF00BF00BF00BF00BF67
:1041600000BFF1D170470000401E00BF00BF00BF7C
:1041700000BF00BF00BF00BF00BF00BF00BF00BF47
:1041800000BFF1D170470000401E00BF00BF00BF5C
:1041900000BF00BF00BF00BF00BF00BF00BF00BF27
:1041A00000BFF1D170470000401E00BF00BF00BF3C
:1041B00000BF00BF00BF00BF00BF00BF00BF00BF07
:1041C00000BFF1D17047000070B505460C46164699
:1041D00002E00FCC0FC5103E102EFAD2082E02D3EB
:1041E00003CC03C5083E042E07D301CC01C5361FFE
:1041F00003E021782970641C6D1C761EF9D270BD15
:1042000004F06EF804F09BF803F0BEFF00BF04F06A
:1042100047F8FCE710B5044600BFE34800680028F3
:1042200008D0E14800680470DF480068401CDE499F
:10423000086010BD204600F0FAFB00BFF9E710B59A
:10424000044603E02078641CFFF7E4FF2078002890
:10425000F8D110BD70B505460C46D4480668056017
:1042600003E02078641CFFF7D5FF20780028F8D100
:10427000CE48066070BDF3B58BB0054600BF2C7804
:104280006D1C002C00D105E1252C03D02046FFF742
:10429000C1FFF4E700272C786D1C302C03D10127D7
:1042A0002C786D1C04E02D2C02D102272C786D1C7B
:1042B0000020079007E00A2107984843001930388A
:1042C00007902C786D1C302C01DB392CF3DD6C2C25
:1042D00001D04C2C03D1042007432C786D1C002CFA
:1042E00000D1D7E02646612E02DB30462038C6B228
:1042F0004F2E45D006DC422E3FD0432E35D0442EE3
:1043000048D140E0532E04D0552E3DD0582E41D1F7
:104310003DE00C98006801900C98001D0C90002066
:10432000089002E00898401C089008990198405CA9
:104330000028F7D102E02020FFF76CFF022007429F
:1043400005D10898411C089107998842F3D3019838
:10435000FFF775FF02E02020FFF75CFF0898411C83
:10436000089107998842F6D389E70C990A78091DC4
:10437000D0B20C91FFF74EFF81E702200A900DE0CA
:1043800008200A900AE000BF0A200A9006E01020E8
:104390000A9003E02046FFF73DFF70E700BF0420CE
:1043A000074205D00C9800680C99091D0C910CE08F
:1043B000442E05D10C9800680C99091D0C9104E05D
:1043C0000C9800680C99091D0C910690442E08D198
:1043D0000698C00FC00704D00698404206900820F7
:1043E00007430020099000BF0A99069804F0D2FA0A
:1043F000CEB20A99069804F0CDFA0690092E06DD91
:10440000782C01D1272000E007208019C6B2304661
:104410003030C2B20998411C099102A90A54069889
:10442000002802D009981028DED30820074205D0C2
:104430002D220998411C099102A90A540998089053
:10444000F807C00F01D0302000E02020064602E02F
:104450003046FFF7DFFE0220074205D10898411CD5
:10446000089107998842F3D300BF0999491E02AA0F
:104470000991505CFFF7CEFE09980028F5D102E0C3
:104480002020FFF7C7FE0898411C08910799884231
:10449000F6D3F4E600BF0DB0F0BD0FB408B503A825
:1044A000009000990298FFF7E6FE0020009001B00E
:1044B00008BC04B018470FB438B504463A48046045
:1044C00006A8009000990598FFF7D5FE00200090FF
:1044D0003549096808703449086038BC08BC04B024
:1044E00018470FB438B5044630480568046006A87C
:1044F000009000990598FFF7BEFE002000902B4821
:10450000056038BC08BC04B01847FFB583B0074647
:10451000154627A00499FFF7C0FF0698012804D08C
:10452000022821D0042838D12BE03E46002404E0A4
:10453000315D21A0FFF7B1FF641CAC42F8DB202005
:10454000FFF768FE00240CE0315D202904DB315DBB
:104550007E2901DC315D00E02E210846FFF75AFE7E
:10456000641CAC42F0DB18E0029700BF029801889F
:10457000801C029012A0FFF790FF681E0500F5D185
:104580000BE0019700BF019802C801900EA0FFF751
:1045900084FF681E0500F6D100BF00BF0A20FFF7A8
:1045A00039FE07B0F0BD00000420002000200020EC
:1045B0002530386C5820000020253032580000008B
:1045C0002025303458000000202530384C58000099
:1045D0000A4802680F210A430260094880470948D7
:1045E0000047FEE7FEE7FEE7FEE7FEE7FEE7000026
:1045F00005480649044A064B704700002405004060
:104600007B460100C1400100102F00201037002020
:10461000102F00201F482049086070471F48008C59
:10462000C0B2012827D11D48808C0007000F22D17D
:104630001A48806AF021084205D11848C06A084229
:1046400001D1012070471548806AF02108401028E8
:1046500005D11248C06A084201D10120F2E70F4893
:10466000806AF0210840302805D10C48C06A084211
:1046700001D10120E6E70020E4E710B5FFF7CEFF07
:10468000002805D0064807494860C81306498861D4
:1046900010BD00000024F40008200020C00F00F02E
:1046A000DFFF07C000050040006C004030B5034646
:1046B000B74C002901D1002030BD1878B54DE86114
:1046C0005B1C0120B44DA86022E000BFB348C06964
:1046D000002802D1601E0400F8D1002C0CD100206B
:1046E000AE4D68600120AC4D686100BFAB484068CA
:1046F0000028FBD00020DFE70020A84DE861481E1D
:10470000C0B2010000D104E01878A24DE8615B1C42
:10471000DBE700BF002A0AD00020A04D686001201E
:104720009D4D686100BF9D4840680028FBD0012076
:10473000C2E730B503461446954A002901D100204E
:1047400030BD0020954DA8600120934D286025E0E4
:1047500000BF92488068002802D1501E0200F8D1A4
:1047600000208E4DA860002A0AD1686001208A4D81
:10477000686100BF894840680028FBD00020DFE75F
:104780008448806918705B1C481EC0B2010005D1C6
:10479000824D68600120804D686100E0D8E700BF6D
:1047A00000BF7E4840680028FBD00120C8E7F8B56C
:1047B0007848056800207749086008050721090244
:1047C0004018C66976480521090707221202891890
:1047D000C8610520000711464018006A0090704823
:1047E000052109078918086200BFFF2001306D49C3
:1047F000886000BF00BF8020886000BF0420FFF7F2
:10480000A3FC68480069C005C00F06D06548006970
:104810000006C00F01D001241FE00024122716E07B
:1048200000BF80205F49C86000BF0420FFF78CFCF8
:1048300000BF80205B49886000BF0420FFF784FC34
:1048400058480069C005C00F01D0012403E0384674
:104850007F1E0028E4D100BF00BF0520000707210C
:1048600009024018C66105210907072212028918AA
:1048700000980862474805602046F8BD10B54848D2
:10488000401E05210907072212028918C861052167
:10489000090789180862002040498860C86107201C
:1048A0003C4988600820C860CD20C00448620520CB
:1048B0000860FFF77CFF10BDF8B504460E461546AC
:1048C0001F4600200090002D17DDFFF770FF002825
:1048D00013D060102F4980318860E007C00F06D0E8
:1048E0003A4629463046FFF724FF009005E03A4655
:1048F00029463046FFF7DAFE00900098F8BDFFB574
:1049000083B006460F461C46092C01DC012C05DA53
:1049100025A0FFF7C2FD002007B0F0BD7000FE210A
:104920000840064668460770012506E0681E05999E
:10493000085C69464855681CC5B2A542F6DD601C96
:10494000C2B2012369463046FFF7B6FF0120E3E714
:104950007FB5044616461D46012D05DA18A0FFF75F
:104960009CFD002004B070BD6000FE21084004469C
:104970000023012201A92046FFF79EFF01200443E6
:1049800001232A4631462046FFF796FF0120E9E73A
:10499000204E000000450040004000400041004023
:1049A0000D060000000500507772697465206C6583
:1049B0006E677468206572726F722E0D0A000000B7
:1049C00072656164206C656E677468206572726FD1
:1049D000722E0D0A0000000000BF424880680128C6
:1049E000FBD100203F4988603F488069C0B27047D2
:1049F00070B504460D4601260AE02046641E0028D4
:104A000004DB7D20C000FFF7AFFB01E0002603E0E0
:104A1000344880680128F0D100BF002C05DB00205D
:104A200030498860304880692870304670BD2E4912
:104A3000C86100BF2B49C9690129FBD10021294A5E
:104A4000D161704730B50346002528466D1C1C5CBB
:104A500005E02046FFF7EBFF28466D1C1C5C002C90
:104A6000F7D130BDF8B507460C4615461E46204620
:104A700000F025F80021304600F02AF81A48C460FA
:104A80004661069800280DD0384600F018F800213D
:104A9000284600F01DF8144805618760012012497E
:104AA0004031C86211481049486204200860012062
:104AB0000F498860086000200A498860F8BD01211C
:104AC0000522120707231B02D2188300D15070471A
:104AD00010B58A0005231B07072424021B19840034
:104AE0001A5110BD002100400025004000E0D70110
:104AF0000020004010B5044603E0641E0B48FFF799
:104B000043FB002CF9D110BD10B504467D21C9002E
:104B100061430846FFF7EEFF10BD10B504460A21B9
:104B200061430846FFF7E6FF10BD0000E703000001
:104B300010B5002819DAFE4A03071B0F083B9B0833
:104B40009B00D2588307DC0EFF23A3409A438B07B8
:104B50001B0E8407E40EA3401A43F54B0407240FF1
:104B6000083CA408A4001A5118E0F24A03231B02CF
:104B7000D21883089B00D2588307DC0EFF23A34082
:104B80009A438B071B0E8407E40EA3401A43E94B9C
:104B9000032424021B198408A4001A5110BD10B567
:104BA0000446E548846003211120FFF7C1FF10BDD2
:104BB00010B501200004E1494860E04940394860EF
:104BC000112000F0D0FC112000F0B7FC0120DC49DE
:104BD00008602F20FFF7E8FA10BD10B5112000F093
:104BE000B3FC01200004D5498860D449403988606D
:104BF0000120D34948602F20FFF7D6FA10BDF0B549
:104C0000024624205043CF4B1B68C118CE48006891
:104C1000401C02D1CC48026057E0CB484B6800688A
:104C200024246043C74C246800194068834217D885
:104C3000C548006824235843C24B1B68C01840680D
:104C40004B68C31AC048006824246043BD4C2468E4
:104C500000194360BC4800680862BB48026034E049
:104C60004B68B94D2C6828680DE024254543B54EA6
:104C70003668AD196D685B1B044624254543B14E6B
:104C80003668AD19286A451C07D024254543AD4E2A
:104C90003668AD196D689D42E7D3451C0CD02425BC
:104CA0004543A84E3668AD196D68EE1A2425454374
:104CB000A44F3F68ED196E604B6008622425654380
:104CC000A04E3668AD192A6200BFF0BD70B502462D
:104CD0009D4C2168084609E0904200D108E0014659
:104CE00024244443974D2D686419206A441CF3D151
:104CF00000BF441C00D170BD814209D1924C246890
:104D000024256C438F4D2D686419246A8E4D2C60C8
:104D1000242444438B4D2D68641963682424444340
:104D2000884D2D686419256A24244C43854E3668C5
:104D3000A419256224244C43824D2D686419206AED
:104D4000441C0CD0242444437E4D2D6864196468AF
:104D5000E518242444437B4E3668A419656000BFDF
:104D6000C9E710B5112000F0F7FB10BD10B51420F5
:104D700000F0F2FB10BD014674480078744A1278C6
:104D800090421DD071480078401C704A1070104647
:104D90000078022801D1002010706C480078800053
:104DA0006C4A105808606C4A0868126880186A4A91
:104DB0001060104600680002000A10600120704771
:104DC0000020086000BFFAE7FEB55F480068019068
:104DD0006248007800903FE00098C0006049096890
:104DE0004418257834E01820684361680F18681C5F
:104DF000C5B2A078A84200D100253878022802D098
:104E0000032822D10EE02421786848434D490968DF
:104E10004618307D002804D07868FFF757FF00203F
:104E2000307513E00CE04849096824225143454A93
:104E30001268881800210175434A016A116000BF99
:104E400041480068401CEED100E000BF00BF00BF39
:104E50006078A842C7D100BF0098411EC9B2009136
:104E60000028B9D1384801680198814201D0012059
:104E7000FEBD0020FCE7F0B50346002426E0324EDC
:104E8000366824277E432F4F3F68F01946689E42BC
:104E900003D94668F61A46601CE046689B1B4668C4
:104EA0003419002646600675274E3568264F066A77
:104EB0003E600669002E08D00E193602360A86605A
:104EC0000669C66016680662156000BF1E48006865
:104ED000401CD4D100BFF0BDFEB507461A4800689B
:104EE00002901E480078019084E00198C0001C499F
:104EF0000968451877E0781C07D03E4624207043A7
:104F0000104909684418276A3EE029781823594354
:104F10006A6850182978491C29702978AA78914222
:104F200001D100212970466824217143054A19E006
:104F30001CED00E000E100E00015014040130140DD
:104F4000001001400C2000201C2000202C200020FC
:104F50002D200020242000202020002015200020CB
:104F60001820002012688C180178012902D1217DB7
:104F7000002900D037E08168A160C168E160016963
:104F800021614169E16100BFF749A0680968401AE1
:104F90000002000AF549884208D2F349A06809686E
:104FA00000F0ECFAE1684018606011E0EE48A1689A
:104FB000006800F0E3FA0090E1680098814204D9AB
:104FC000E1680098081A606001E00020606000BF9E
:104FD0000020A060E06001202075801E2062304625
:104FE000FFF70DFE00BF781C85D1287869788842CC
:104FF00081D100BF0198411EC9B20191002800D0A3
:1050000073E7DB4801680298814201D00120FEBDB0
:105010000020FCE7FEB50546D5480068401C34D0AA
:10502000D348006824214843D2490968401846689B
:1050300000F0A1FA0290CC4804682146029800F0E2
:105040009DFAC01C0190681C01D1FFF7B1FD0198C9
:10505000B04201D2304600E0019804192402240A2B
:105060002046C549086000BF00F085FA009002990B
:10507000009800F083FAC71C2046029900F07EFADF
:10508000874201D9FFF76DFE01E0FFF7A6FDFEBDE7
:10509000FEB50020C0430190B3480468B4480768D7
:1050A0006846FFF768FE0546FFF78EFE0646002DB0
:1050B00005D001AA21460098FFF7DDFE01260198E0
:1050C000FFF70AFF002800D00126002E02D0384644
:1050D000FFF7A0FFFEBD4170704770B502460B465A
:1050E0005078411C9078884200D100211078884285
:1050F00001D1002070BD19605078182670435568A2
:105100002C182046F6E7FFB581B005460E46174637
:10511000E9009A4A126888186946FFF7DEFF0446DC
:10512000002C02D1042005B0F0BD01202070666083
:1051300000F021FAA060E760049820610A9860619D
:10514000E9008E4A126888180099FFF7C4FFFFF73C
:105150000DFE0020E7E7F8B504460E46E100874A59
:10516000126888186946FFF7B8FF0546002D01D17F
:105170000420F8BD022028706E60E1007F4A1268AA
:1051800088180099FFF7A7FFFFF7F0FD0020F0E770
:1051900038B50446E100794A126888186946FFF775
:1051A0009CFF0546002D01D1042038BD0320287046
:1051B000001F6860E100714A126888180099FFF7C3
:1051C0008AFFFFF7D3FD0020EFE710B56C480078A9
:1051D000C007C00F01D103F061F9002069490860E0
:1051E0000021684841608160C16000206549403904
:1051F0000860486010BD10B5FFF74AFF10BDFFB54D
:1052000081B00E4617461C4620468107890F01D102
:10521000012100E00021002902D1072005B0F0BDE6
:10522000002C01D10720F9E7FFF7D7FC56490A986F
:105230000860564806704F48046000250CE00021C5
:10524000242068434B4A1268115424206843494A79
:105250001268801801756D1CB542F0DB2420704384
:10526000041903204A490870444804601834002592
:105270000CE0E900414A1268881800210170417071
:1052800087704460182179430C196D1C032DF0DBE5
:105290000020C0433649086000203E4908703E495E
:1052A0000870142000F05FF903211420FFF740FC80
:1052B000142000F042F90198FFF771FC00F05BF94F
:1052C000294908600020A9E770B503460C46294823
:1052D0000068002801D1082070BD002A01D10720F4
:1052E000FAE7002B01D10720F6E700211CE024207B
:1052F0004843204D2D68285C002814D10125242026
:1053000048431C4E3668355424204843194D2D68B7
:105310004019447024204843164D2D68401982617D
:1053200019600020D8E7491C184800788142DEDB6C
:105330000420D1E730B500BF18484068C205D20D3F
:10534000002A3AD01346103B58B2002828DA134CF2
:105350001C3405072D0F083DAD08AD0064598507C5
:10536000ED0EEC40A40926E020200020FFFF7F0086
:105370001C2000200C200020401501401820002097
:105380007A2000204011014030200020142000200D
:10539000152000202C2000202D20002000ED00E012
:1053A000794C03252D0264198508AD0064598507E1
:1053B000ED0EEC40A409E0B200E00420012802D088
:1053C000032804D101E0002103E0012101E00221D2
:1053D00000BF00BF084630BDFEB504460D46164668
:1053E0006A480068002801D10820FEBD684800789E
:1053F000844201D2052D01D20720F6E72420604324
:1054000062490968085C012801D00820EDE72420E2
:1054100060435E49096840184078012801D1284658
:1054200000E000200746FFF785FF3B462A4621465D
:1054300000960190FFF767FED7E770B50446534822
:105440000068002801D1082070BD514800788442CE
:1054500001D30720F8E7242060434C490968085C21
:10546000012801D00820EFE7FFF764FF0546214639
:10547000FFF771FEE8E710B544480068002801D145
:10548000082010BDFFF756FF0446FFF781FEF8E73E
:1054900010B5044600F06FF82060002010BD70B514
:1054A00005460E4614463146284600F067F820604F
:1054B000002070BD10B501203649886100203649B2
:1054C000486001208107886000BF33484068002899
:1054D000FBD03248324988600820314940310860A9
:1054E000112000F031F800202E4988602D49403904
:1054F000886001202C498860086010BD10B52848DC
:1055000040682A49086002F0C6FF28490968C908AE
:105510004418204602F0C8FF01202349886011206A
:1055200000F012F8012000041E4988601D4940392E
:10553000886001201C49486010BDC206D20E0121BE
:105540009140114A11607047C206D20E012191406C
:105550000D4A803211607047C206D20E012191407F
:10556000134A11607047C206D20E01219140104AC1
:105570008032116070470A48406870470246501AEE
:105580000002000A7047000000E100E00C2000204B
:10559000142000200005004000010040FF0F000023
:1055A0000015014040130140001001401020002070
:1055B00000E200E0FEB505460E4614462078801C49
:1055C0001F21081A80B200902178891C8819694629
:1055D0006DDF01900198002801D00198FEBD687828
:1055E000002808D0687869460988884203DA687814
:1055F0000090082700E0092768460088401CC1B2D7
:105600002278501C2070B1542178481C20707754A7
:10561000217868460088081820700020DEE7F8B579
:1056200005460C462078001D1F2801DD0C20F8BD22
:10563000684669DF0646002E01D03046F7E70321B1
:105640002278501C2070A95419212278501C2070F7
:10565000A954207841196846008800F089FA217819
:10566000401820700020E2E7F8B505460F461646C0
:105670001C466868002801D10720F8BD2078801CEE
:10568000298840181F2801DD0C20F6E72878401CE7
:10569000C1B22278501C2070B1542178481C20706F
:1056A00077542A8823789819696803F0DBF8207802
:1056B0002978401820700020DFE730B503461078C5
:1056C000C01C1F2801DD0C2030BD02241578681C89
:1056D00010704C550A241578681C10704C551578BC
:1056E000681C10704B550020EEE7FFB587B00646EA
:1056F0001D46109C0020069020780590002747E06A
:10570000B900706841180A88684602814988418159
:10571000002203A902A854DF04900498002802D0B4
:1057200004980BB0F0BD6846017B099881422ED1E8
:105730000698002801D0002000E002200190207887
:105740006946097B4118019808181F2801DD0C20C3
:10575000E7E70698002809D12078401C20702278BD
:10576000511C08982170A8540120069020784219F5
:1057700003A902A854DF04900498002801D00498DB
:10578000CFE720786946097B4018207000BF7F1C56
:105790003088B842B4DC0698002806D021780598F5
:1057A000401C081AC1B2059829540020B9E7FFB57A
:1057B00081B0074615460A9E009602223846049B91
:1057C0000299FFF792FF0446002C02D0204605B054
:1057D000F0BD0096102229463846049BFFF785FF4E
:1057E0000446002C01D02046F1E70020EFE70146F7
:1057F0000888062808DB08881922D201904205DDB6
:105800000888E04A904201D007207047488806285F
:1058100008DB48881922D201904205DD4888D94A20
:10582000904201D00720F0E70888D64A904208D07D
:105830004888904205D008884A88904201DD0720B8
:10584000E3E70020E1E7F8B506460D461446207868
:10585000801D1F2801D90C20F8BD3046FFF7C7FF77
:105860000746002F01D03846F6E705212278501C64
:105870002070A95412212278501C2070A95422783B
:105880005119308800F074F921784018207022787E
:105890005119708800F06CF92178401820700020B0
:1058A000DAE7F8B505460E4614462879801CC7B2DB
:1058B0002078801CC0191F2801DD0C20F8BD781C41
:1058C000C1B22278501C2070B154FF212278501CA4
:1058D0002070B15422789119288800F049F9217874
:1058E00040182070A88800280EDDA868002801D183
:1058F0000720E3E7AA8823789819A96802F0B2FF85
:1059000020782979401820700020D7E7FEB5074697
:105910000E461446386B002801D10720FEBD00203A
:10592000019032E0396B0C22019850430D18287910
:10593000801CC0B200900098401CC1B22278501C5C
:105940002070B15416212278501C2070B154227856
:105950009119288800F00CF9217840182070A88847
:1059600000280EDDA868002801D10720D6E7AA8804
:1059700023789819A96802F075FF207829794018D2
:1059800020700198401CC0B201903420C15D019884
:105990008142C7DC0020C1E7F8B504460F46164631
:1059A0000025002030702078002809D03246394682
:1059B0002046FFF7FFFD0546002D01D02846F8BD23
:1059C000A078002808D031463846FFF728FE054663
:1059D000002D01D02846F2E7A08800280ADD3346D2
:1059E0003A460121201DFFF73FFE0546002D01D05C
:1059F0002846E4E7E06800280BD00020E16808565C
:105A000032463946FFF759FE0546002D01D028469B
:105A1000D5E7208A00280CDD3B46062202212046DD
:105A200010300096FFF7C3FE0546002D01D0284632
:105A3000C5E7208B00280CDD3B46072203212046CA
:105A400018300096FFF7B3FE0546002D01D028461A
:105A5000B5E7208C00280CDD3B461522142120469A
:105A600020300096FFF7A3FE0546002D01D0284602
:105A7000A5E7A06A002809D032463946A06AFFF798
:105A8000E2FE0546002D01D0284698E7E06A00288E
:105A900009D032463946E06AFFF703FF0546002D7C
:105AA00001D028468BE73420005D002809DD32460E
:105AB00039462046FFF72AFF0546002D01D028462B
:105AC0007DE728467BE701468888002807D088685C
:105AD000002804D0886800780422104201D10720F1
:105AE00070470020FCE701468888002801DD072078
:105AF00070470020FCE7F3B593B00D4600211291EA
:105B000011911398002814D01398FFF7DCFF044676
:105B1000002C02D0204615B0F0BD12AA09A9139896
:105B2000FFF73AFF0446002C01D02046F3E709AE08
:105B300000E00026002D13D02846FFF7D4FF0446CE
:105B4000002C01D02046E6E711AA01A92846FFF75C
:105B500023FF0446002C01D02046DCE701AF00E023
:105B6000002710A803793A46017A304662DFD2E76F
:105B700002460A70FF200002104000124870022006
:105B800070470000FFFF000001464888B74A1288AE
:105B9000904206DB4888B54A5288904201DC0120D9
:105BA00070470020FCE738B50546B1480088B14988
:105BB00088423BD0B0480078401CAF490870AF48DD
:105BC000007B097888420FDBA849A948008865DF77
:105BD0000446002C07D0A9488069002803D0A748B4
:105BE00081692046884721E00020A3490870A34826
:105BF000007C00280FD03B219D48008866DF0446CA
:105C0000002C07D09D488069002803D09B488169FB
:105C10002046884700BF99484069002806D00020E8
:105C20000090964841696846884700BF38BD70B506
:105C300005461C2229469148FEF7C6FA00209049E5
:105C40000870286800280BD008228848296802F0CC
:105C500009FE86486ADF0446002C08D0204670BD45
:105C600082486BDF0446002C01D02046F7E7002075
:105C7000C0437F49088000207F490870814A002185
:105C80008148FFF721FBEAE710B57F480068FFF77E
:105C9000D4FB10BD38B57D48FFF776FF002829D129
:105CA0007748007800280AD074484069002820D03E
:105CB00000200090714841696846884719E06E48A5
:105CC0000078002802D16D48456801E06B4885687E
:105CD000002229466C480068FFF77EFB0446002C32
:105CE00007D066488069002803D06448816920464F
:105CF00088470AE061484069002806D001200090EA
:105D00005E4841696846884700BF00205C490870CA
:105D100038BD10B50446A0885549088008222146A0
:105D20000E315A4802F09EFD002053490870534836
:105D3000C089002801D1FFF7ADFF10BD70B5054641
:105D40000020C0434A49088000204B4908704E4853
:105D50000068FFF772FB0446002C07D047488069B3
:105D6000002803D0454881692046884770BD70B53A
:105D70000546AC1D20884149C989884220D1208B25
:105D800002281DD100BF00BFA17EE27E1202114396
:105D90000846C107C90F002902D0FFF77BFF0FE0BB
:105DA00039480068FFF749FB0646002E07D0334804
:105DB0008069002803D0314881693046884700BF98
:105DC00070BD10B504460822A11D304802F04AFDFE
:105DD000FFF760FF10BD10B504462088102806D0DC
:105DE000112808D012280ED0502810D107E02046E4
:105DF000FFF78FFF0CE02046FFF7A0FF08E02046EA
:105E0000FFF7B5FF04E02046FFF7DBFF00E000BF2F
:105E100000BF10BD38B5044608222146134802F0E1
:105E200021FD12486ADF0546002D1CD11748FFF7F7
:105E3000ABFE00280BD10120114908700B490C481A
:105E4000008865DF054601200B4908700BE00B4810
:105E50004069002806D00120009008484169684642
:105E6000884700BF0025284638BD000036200020A6
:105E700040200020FFFF00003E200020B420002032
:105E800034200020A75B01004C200020422000208D
:105E900005460C4616467F2231460B4802F044FD6B
:105EA000002109486030C17708490C800848056026
:105EB000084600880648006872B6A2B231462846F5
:105EC00000F01BF800BFFEE7D0200020502000208B
:105ED00054200020F8B504465A4806686D46771BE2
:105EE000FF200130874200D900E0384602462946AB
:105EF00020468830FEF768F9F8BDF8B504460F462D
:105F000015466220009001204F49088008464460F1
:105F100045807F223946083002F006FD00214A48BC
:105F20006830C1776838FFF7D5FF48484069401CA2
:105F300008D001221207126991B2444A506902F056
:105F400029FD02E0012000074069801EC6B23E49DB
:105F50003046009A00F031F9F8BDF8B504466220E9
:105F60000090002539484069401C08D001221207E2
:105F7000126991B2354A506902F00CFD02E001202D
:105F800000074069801EC6B26A462146304600F0CE
:105F900050F90546052D01D10020F8BD002D01D096
:105FA0002846FAE72088002800D1F6E70E200121D4
:105FB0008140274A916000BF00BF2088002803D09D
:105FC000244800780028F8D00E2001218140204A82
:105FD000D16000BF1D484069401C08D00122120753
:105FE000126991B2194A506902F0D4FC02E0012012
:105FF00000074069801EC6B2304600F0D1F8054661
:106000002846CAE7012013490870704770B500257B
:10601000002D15D00C48FFF7A0FF044600BF002C50
:1060200001D0052C01D1012000E000200646002E01
:1060300005D100BF08A27C2100F015FD00BF00BF04
:1060400070BD000000400100502100200010001031
:1060500000050050582000202E2E5C2E2E5C2E2E87
:106060005C536F6674776172655C536F75726365BC
:106070005C626C655F6C69625C626C655F657272C4
:106080006F725F6C6F672E630000000070B503468F
:106090000C46002A01D1894D00E0158828460021D0
:1060A00011E0051206023543A8B25D5C68400506A2
:1060B0002D0F684005034540A8B205062D0D6D0063
:1060C00068404D1CA9B2A142EBDB70BD02217C4AA5
:1060D000516000BF7B4909680029FBD0784988607E
:1060E00000BF784909680029FBD00021744A51603B
:1060F00000BF744909680029FBD070470122704B2A
:106100005A6000BF6F4A1268002AFBD0016000BFCE
:106110006C4A1268002AFBD00022694B5A6000BF0B
:10612000684A1268002AFBD0704770B504460D46D5
:1061300000E03DDF644800780028FAD10120604982
:10614000486000BF5F4800680028FBD0256000BFA2
:106150005C4800680028FBD000205949486000BF17
:10616000584800680028FBD070BD70B504460D4645
:1061700029462046FFF7D9FF002070BDF8B5054637
:106180000E461746002407E0A00031582846FFF7C6
:10619000CCFF2D1D601C84B2BC42F5DB0020F8BD95
:1061A00070B5044601200007006980B260430546CF
:1061B0002846FFF78BFF002070BDF7B584B0154669
:1061C00001200007006980B20499484307463C4615
:1061D000A90000220598FFF759FF0390206801905D
:1061E000019880B2029003990298884202D100205F
:1061F00007B0F0BD3846FFF769FF241D241D0026B7
:1062000007E0B200059881582046FFF777FF241D6C
:10621000761CAE42F5DB2946381DFFF786FF2B4979
:1062200003980843019038460199FFF77EFF00204C
:10623000DEE7F7B586B0074614460120000700697F
:1062400080B278430490049D286803900398000C62
:10625000000401901D490198884204D0002020705C
:10626000052009B0F0BD2D1D287820702D1D207847
:10627000800005902946059A0798FDF7A5FF20782C
:10628000810000220798FFF701FF06460F483043C0
:10629000029003990298884201D00520E1E700208E
:1062A000DFE7024601200007006980B25043086022
:1062B000002070470449087070470000FFFF00008D
:1062C00000E5014000E40140592000200000DE45C7
:1062D00070B506460C4615462946204600F0D0FB10
:1062E00070BDFFB581B00C4616461F46204681079B
:1062F000890F01D1012100E00021002902D10720EE
:1063000005B0F0BD002C01D10720F9E72548046055
:10631000254806802548076025490A9808602549D0
:10632000019810DF0546002D01D02846E8E7162029
:1063300023DFE5E738B500BF1B48008800906946B9
:106340001848006850DF0446052C00D10EE0002CF0
:1063500006D000BF18A25F21204600F084FB00BFDA
:1063600010480068114909688847E5E700BF38BD53
:1063700070B50F480068002810D00D4800688047AD
:10638000044600BF2546002D06D000BF0AA2712199
:10639000284600F068FB00BF00BF01E0FFF7CAFF1E
:1063A00070BD000064200020682000205C200020D8
:1063B00060200020D16201002E2E5C2E2E5C2E2E3D
:1063C0005C536F6674776172655C536F7572636559
:1063D0005C626C655F6C69625C626C655F73746162
:1063E000636B5F68616E646C65722E630000000011
:1063F0008A88828270470022D2438282704770B5B9
:1064000004460E46B51D2988208A81420BD1288B6F
:10641000022808D1688B012802D10121A17501E071
:106420000021A1750CE02888A188884208D1A069C4
:10643000002805D02A8B29461A312046A36998479F
:1064400070BD70B505460C462088102804D0112870
:1064500007D050280FD109E021462846FFF7C8FF92
:106460000AE021462846FFF7C6FF05E021462846F8
:10647000FFF7C5FF00E000BF00BF70BD30B58FB0B3
:1064800004460D460020079000BF6846007F0109C2
:106490000901491C68460177007FF02188431030CC
:1064A0006946087700BF00BF6846407F01090901BF
:1064B000491C68464177407FF02188431030694687
:1064C000487700BF6846807F06218843811C684664
:1064D00081771C2108A802F024FA08A8007810216E
:1064E0008843411808A80170002009900B900C9077
:1064F00007A80D9000200E90217868468171032135
:1065000081800020009000BF6846007801090901E1
:10651000491C684601700078F021884310306946B4
:10652000087000BF00BF6846407801090901491C96
:10653000684641704078F0218843103069464870C1
:1065400000BF6846807806218843811C68468170B8
:106550008078082188430146684681708078102140
:106560008843014668468170807841084900491C8B
:1065700068468170142102A802F0D3F901A80290A4
:106580006846039001210182002141821421818209
:10659000608823460C3302AA08A9A2DF0FB030BDE1
:1065A00030B58FB004460D461C2108A802F0B9F999
:1065B00008A8007808218843411808A80170002025
:1065C00009900B900C900D900E9021786846817286
:1065D000022101810020019000BF68460079010975
:1065E0000901491C684601710079F0218843103087
:1065F0006946087100BF00BF68464079010909017A
:10660000491C684641714079F02188431030694641
:10661000487100BF6846807906218843811C68461E
:1066200081718079082188430146684681718079AB
:1066300010218843014668468171807941084900EC
:10664000491C68468171142103A802F06AF902A866
:10665000039001A804900121684681820021C18233
:10666000142101836088231D03AA08A9A2DF0FB0AB
:1066700030BD70B586B004460E462C4B0FCB01AD35
:106680000FC50020C043A0823068A0610020A07523
:10669000214601A852DF0546002D02D0284606B04B
:1066A00070BD21786846817501218182A21C05A9EF
:1066B0000120A0DF0546002D01D02846EFE7314636
:1066C0002046FFF7DBFE0546002D01D02846E6E711
:1066D00031462046FFF764FF0546002D01D02846CD
:1066E000DDE70020DBE737B584B004460D46A07D2A
:1066F000002802D1082007B030BD6846008B14285E
:1067000001DD0720F7E70020009001900290039040
:10671000A18968460180039506A802900121684678
:106720008170A08A6946A6DFE5E70000648D01005C
:1067300010B50A21FE4802F0F4F80020FC498872E6
:10674000C8720873487310BD10B51421F94802F0DF
:10675000E8F80020F74908758861087710BDF54909
:1067600008777047F348007F7047F148007B704717
:1067700070B505460E460024ED48007B0A21081A34
:10678000B04220DB1DE0285DE949C97AE84A50544F
:106790001046C27A295DE8A0FDF77FFEE449C97A78
:1067A000491CC9B2E24AD17208460A2102F0FCF83B
:1067B000C8B2DF49C8720846007B401C0873601CE1
:1067C00084B2B442DFDB70BD10B50024D848007B32
:1067D000002815D0D648847A0146897A491CC9B266
:1067E0000246917208460A2102F0DEF8C8B2D0498A
:1067F00088720846007B401E08730846005D10BD85
:106800000020FCE7FEB501F041FE01F044FE014628
:106810000090CFA0FDF741FE0027002608E0FFF71B
:10682000D3FF0446F100204688400743701CC6B2DF
:10683000042EF4DB384601F037FE01F02CFE014651
:106840000090C9A0FDF729FE01F061FF01F03CFEB8
:106850000546112168460171457128126946887103
:10686000032201A9C548FFF73EFF0020FFF777FF8D
:10687000FEBD08B503216846017001F02BFE0146FC
:10688000684641700021817003226946BB48FFF7CA
:106890002AFF0020FFF763FF08BD7CB50A20694688
:1068A000087001F076FE0546002407E0E100284666
:1068B000C840C1B26A46601C1154C4B2042CF5DB56
:1068C00005226946AD48FFF70EFF2946ACA0FDF74B
:1068D000E4FD0020FFF743FF7CBD10B5002427E056
:1068E000944A1432111D934801F046FF9148007DEF
:1068F000142809D18F48027D0146A048FFF7F3FE16
:106900000220FFF72CFF11E009218A48027D007D5B
:10691000401C884B187518468154027D01469748E3
:10692000FFF7E1FE0320FFF71AFF0624601CC4B244
:10693000062CD5DB10BD10B597A0FDF7AEFDFFF717
:1069400003FF01F029FE10BD10B5FFF70BFF002873
:1069500006D0012805D0022804D0032808D104E07D
:1069600006E005E0FFF7B9FF02E0FFF7E4FF00BF34
:1069700000BF10BD08B508200090012269467F487D
:10698000FFF7B1FEFF20F530FEF7B4F80022D24346
:106990000021FF20800201F01EFA11DF86A0FDF722
:1069A0007CFD00BFBFF34F8F8C488D49C860BFF39B
:1069B0004F8F00BF00BFFEE710B5FFF7D6FE0028DF
:1069C00032DDFFF701FF5A4948730846417B85A035
:1069D000FDF763FD5648407B0A2815D006DC0128E8
:1069E00009D003280AD0082816D10AE00B280ED0B7
:1069F0000D2811D10EE0FFF705FF14E0FFF739FF76
:106A000011E0FFF7A1FF0EE0FFF747FF0BE0FFF7F4
:106A100064FF08E0FFF7AEFF7AA0FDF73EFD00201F
:106A2000FFF79DFE00BF00BF10BD10B500207849E4
:106A300008700846007840084000401C0870FFF7C6
:106A400077FEFFF781FE10BD10B511DF0020704901
:106A50000870FFF76DFE6FA0FDF71FFD01F043FD0D
:106A600001F062FD10BD70B504460D46164679A0D2
:106A7000FDF713FD324629462046FFF709FA70BD9F
:106A800070B504460D462A4621467A48FFF7EBFFCB
:106A900070BD38B500BF0020774B05220221009061
:106AA000FEF7ADFB044600BF2546002D07D000BF12
:106AB00072A2FF2185312846FFF7D5FF00BF00BF36
:106AC00000BF38BD3EB500BF684600780109090126
:106AD000491C009168460078F021884310300090EE
:106AE00000BF0B2271A168466CDF044600BF25463B
:106AF000002D07D000BF61A2FF21AA312846FFF771
:106B0000B2FF00BF00BF002001900290282168461C
:106B1000818019218901C18000210181FF219131EA
:106B2000418101A86ADF044600BF2546002DC3E06D
:106B300090250020A02500207265632063686172A3
:106B40002069732025642E2E2E25640D0A00000076
:106B50004E4F2053594E432074696D652069732050
:106B600025642C200D0A0000204E45572054494D25
:106B700045204953202564200D0A0000742500207B
:106B800074686520616D6F756E742069732025646B
:106B90002020202E0D0A00000D0A20616C6C20645C
:106BA000617461206861732073656E64206F757411
:106BB0002E2E2E0D0A0000002073797374656D204F
:106BC00072657365742C20626567696E20746F202E
:106BD0007570646174652E2E0D0A00000400FA05BC
:106BE00000ED00E02E2E2E2E2E2E68616E646C6558
:106BF00020696E73742069733A20256420202E2E3C
:106C00000D0A0000776861743F2E2E0D0A00000007
:106C10007A200020626C652074696D65206F757440
:106C2000206F72207472616E73706F727420666967
:106C30006E69736865642C207475726E206F75744C
:106C400020746F2064656661756C74206D6F646577
:106C500000000000257328293A206C696E653A20EF
:106C600025642C206572726F725F636F64653A20D1
:106C700025640000EFBEADDED82200202E2E5C2E53
:106C80002E5C2E2E5C536F6674776172655C536F59
:106C9000757263655C626C655F736572765C626C6D
:106CA000655F737461727475702E6300424C455F4A
:106CB000554152545F4C4C0007D000BFF24AFF21AF
:106CC000B4312846FFF7CFFE00BF00BF3EBD30B550
:106CD0009FB005210291ED4800680190EC480178D1
:106CE00068468171382111A801F01BFE022110A80D
:106CF0000171002181710121018102A913913821C3
:106D000003A801F00EFE01216846818401A90A91C1
:106D100003A911A8FEF7EFFE044600BF2546002D8B
:106D200007D000BFD84AFF21D1312846FFF79BFE8C
:106D300000BF00BF1FB030BD70B505460C46002136
:106D40009C4201D0002070BD01E0481C81B2A142EC
:106D500003DA685C565CB042F7D0A14201D0002053
:106D6000F1E70120EFE770B506460C4615462946C7
:106D70002046FFF7FDFC70BD70B5C64800210160DC
:106D8000C548C4490860C248FFF773FC044600BF09
:106D90002546002D07D000BFBB4AFF21FD31284604
:106DA000FFF761FE00BF00BF70BD1E20BB49088019
:106DB0000846807840084000401C8870084680786B
:106DC00002218843B5498870084680781C21884391
:106DD0000C30B24988700846807820218843AF493A
:106DE00088700720C87010200871704770B505467C
:106DF00000BF2878002801D1012000E000200646CD
:106E0000002E06D100BFA04A87218900FFF72BFE84
:106E100000BF00BF3B21A248008866DF044600BFD8
:106E20002646002E06D000BF974A9E493046FFF7FF
:106E30001AFE00BF00BF70BD10B5044600BF924AE5
:106E400098490A312046FFF70EFE00BF10BD30B54D
:106E500087B01C21684601F064FD002000900120ED
:106E60000004019080100290032168460173002104
:106E7000C18101748C4805908C4806906846FEF7E5
:106E8000D6FE044600BF2546002D07D000BF7E4A2F
:106E9000092189012846FFF7E6FD00BF00BF07B0C2
:106EA00030BD30B585B01421684601F03AFD0021AF
:106EB00068460170002001906846017240210182FD
:106EC0003C21418263DF044600BF2546002D07D0E8
:106ED00000BF6D4A734936312846FFF7C4FD00BF35
:106EE00000BF05B030BDF8B5044600252088142841
:106EF00046D006DC10280BD0112817D013285ED1FD
:106F00002AE0172836D019284ED0522857D12AE027
:106F100067A0FDF7C2FA6C48007802218843801C04
:106F200069490870A0885E49088049E06648007891
:106F30000221884364490870084600780421884388
:106F4000001D614908700020C04355490880002D8C
:106F500001D1FFF7A6FF33E0504A002150480088D6
:106F60006FDF05462CE0002211464D480088A9DF5E
:106F7000054625E03222A11D544801F073FC1FE0B4
:106F8000524EB61D3188E089814206D10022314639
:106F90004348008871DF054605E00022114640485D
:106FA000008871DF05460BE0A079002806D146482D
:106FB00000780821884308304349087000E000BF8A
:106FC00000BF00BF2F46002F07D000BF2E4A354913
:106FD00094313846FFF747FD00BF00BFF8BD10B53C
:106FE00004462046FEF7F7FE21462948FFF729FA16
:106FF0002046FFF778FF10BD38B500BF0020344BA6
:107000005022344900900D20FFF76BF9044600BF71
:107010002546002D07D000BF1B4A2249AF31284624
:10702000FFF721FD00BF00BF00BF38BD10B52AA08B
:10703000FDF733FAFFF72DFD2CA0FDF72EFAFFF731
:10704000DBFF2FA0FDF729FAFFF73CFD31A0FDF78C
:1070500024FAFFF791FE33A0FDF71FFAFFF737FE82
:1070600035A0FDF71AFAFFF7F2FE39A0FDF715FA81
:10707000FFF79BFE3BA0FDF710FAFFF712FF3EA0C3
:10708000FDF70BFA10BD00007C6C0100748D01004F
:107090007425002070200020676D010074200020FE
:1070A0006C2000201F020000ED6D0100396E010010
:1070B000626C6520697320636F6E6E6574696E67BC
:1070C0002E2E0D08000000007A200020F024002061
:1070D000DF6F01002425002053797374656D2073E0
:1070E000746172742E2E2E0D0A00000074696D6595
:1070F00072732073746172742E2E2E0D0A000000BC
:10710000737461636B2073746172742E2E2E0D0A7A
:10711000000000006761702073746172742E2E2E5F
:107120000D0A00007365727669636520737461727D
:10713000742E2E2E0D0A00006164766572746973D8
:10714000696E672073746172742E2E2E0D0A000012
:10715000636F6E6E6563742073746172742E2E2E6D
:107160000D0A000073656375726974792073746128
:1071700072742E2E2E0D0A00416C6C20636F6D70A0
:107180006F6E656E7473206861766520696E6974D0
:1071900069616C697A6564210D0A0000F8B50446DE
:1071A0000D4616466000FE210840044668460570FC
:1071B00046700123022269462046FDF77DFBF8BD9B
:1071C00013B582B004466000FE2108400446002347
:1071D000012203A92046FDF76FFB01200443012390
:1071E0001A4601A92046FDF767FB6846007904B0FE
:1071F00010BD7FB5044616461D466000FE210840BE
:1072000004460023012201A92046FDF755FB012079
:1072100004430123324629462046FDF74DFB7FBD3E
:1072200010B52A2163480078FFF7CAFF01210843FF
:10723000044622462A215F480078FFF7AFFF10BDC1
:1072400010B52A215B480078FFF7BAFF04466208B0
:1072500052002A2157480078FFF7A0FF10BD10B553
:107260000D2154480078FFF7ABFF2A2803D152A024
:10727000FDF713F902E058A0FDF70FF9FFF7E0FF63
:1072800014222A214B480078FFF788FF12222B2175
:1072900048480078FFF782FF00220E214548007819
:1072A000FFF77CFF10BD10B50246104600010B1120
:1072B00018180123DB0218420AD0C0430F2424030C
:1072C0000346A34318B2431C18B2434218B210BD80
:1072D00000BFFCE7F0B587B00024002135480078F6
:1072E000FFF76EFF0821084230D004AB06220121CF
:1072F00030480078FFF77DFF6A46517C107CFFF72D
:10730000D2FF05466A46D17C907CFFF7CCFF06464B
:107310006A46517D107DFFF7C6FF074600BF28462D
:1073200068430419304670430419384678430419F9
:10733000204601F02CFC0191009001F0EFFC03913C
:10734000029001F0D7FB80B207B0F0BD0020FBE750
:107350001CB5FFF784FFFFF763FF2AE00021154803
:107360000078FFF72DFF0821084222D06B46062245
:10737000012110480078FFF73CFF6A4651781078E9
:10738000FFF791FF05466A46D1789078FFF78BFFAB
:1073900006466A4651791079FFF785FF0446234671
:1073A0003246294613A0FDF778F87D20C000FDF78E
:1073B000A1FBD3E77B20002072656164204D4D4125
:1073C00038343532512049442073756363657373D3
:1073D00066756C210D0A000072656164204D4D4197
:1073E0003834353251204944206661696C65642126
:1073F0000D0A000025642C25642C25640D0A00006C
:1074000070B502460B46FE48002112E0555C68400C
:1074100000240AE0C507ED0F04D04510F94E754071
:10742000284600E04010651CECB2082CF2DB4D1C35
:10743000E9B29942EADB70BD10B502460846800108
:107440009310181801235B03184211D0C043032482
:10745000A4030346A34318B2431C18B20346434394
:10746000E94C24681B19E84C2360434218B210BD54
:1074700003464343E44C24681B19E34C236000BFDC
:10748000F5E770B586B00026002519E06800401CBD
:1074900004A90C5CA4016800085C80100419012098
:1074A0004003044207D0E04384B20321890320460D
:1074B00088430446641C204660438619681CC5B294
:1074C000032DE3DB304601F062FB0191009001F0F7
:1074D00025FC0391029001F00DFB80B206B070BD57
:1074E000CA48CB4908828881088188800880C949B8
:1074F000088288810881888008800021C4488174BE
:107500008173817281718170C248817481738172CB
:1075100081718170BD48C0490880C0490880C04958
:107520000881C8808880488008800020BA49887017
:10753000BA498870BB490870BB490870B348CA3063
:10754000BA490880B1486538B9490880B948BA498C
:1075500008800020B9490870B9490870B949086025
:1075600070470120B849086070470120B64948605B
:107570000020B6494860704738B5B1480078C8283F
:107580004DDBB3A0FCF789FF00F094FF00F08FFF04
:10759000782805D900F0FAFF002801D001F094F80E
:1075A0009A48CA30A149088098486538A04908809F
:1075B000A048A1490880954895490882888108819A
:1075C00088800880934908828881088188800880A3
:1075D00000218F48817481738172817181708D481F
:1075E0008174817381728171817000208E4908706D
:1075F0008648894908808949088089490881C88066
:10760000888048800880002083498870834988707A
:1076100084490870894908708949087002E28748DE
:107620000078401C85490870084600787B498870BE
:10763000834908707B480078401CC0B279490870C3
:10764000052801D100200870FFF744FE754909782C
:107650004900734A50521146098852888918704A65
:10766000928889186E4AD28889186D4A12898818BA
:10767000052101F099F969490880084600886649A2
:10768000098888427EDB6548008867490978890057
:107690005F4A515A884221DB604800886249097874
:1076A00089005C4A5052604909788900584A505212
:1076B0005A4880785C4909788900564A8918887048
:1076C000594909788900524A8918887053480088B6
:1076D00051490880514880788870A3E14F4800885C
:1076E0005349098888420EDB4F480078800048499A
:1076F000085A4D4909788900464A515A401A4E495C
:10770000098888427ADD484800788000414940185D
:107710008078142807DA414800883F4908803F48AC
:10772000807888707EE14048007880003849085AA7
:107730003E490988884262DD3B4B1B789B00354CF3
:10774000E25A394B1B789B00314CE15A364B1B787F
:107750009B00304C1B19987800F022FF00F0B0FE1F
:1077600038480068401C374908602F48007880007E
:107770002146085A00902C480078800024490B5A72
:10778000294800E028E100788000214640188278EE
:107790002C48016831A0FCF780FE002028490870C1
:1077A000264908701F4908701F48007804286DD1C9
:1077B00000201D49087016490988154A92888918C1
:1077C000134A12898918124A92898918104A128A12
:1077D0008818052101F0E8F80C49CA314418E00F77
:1077E0000019C003000C114908800A490988094A98
:1077F00092888918074A1289891848E0E4E0DBE09A
:10780000FFFF000001A000007C200020F203000028
:10781000C0250020D42500208420002080200020C6
:10782000E825002090200020882000208A200020C9
:107830008C200020C30200008E2000209120002018
:1078400092200020942000200090004000930040EF
:1078500020494E54202032732E0D0A007374657037
:1078600073203D2025642E2074696D65203D2564BC
:1078700020207065616B203D2025642076616C6C52
:107880006579203D202564200D0A000066E0664AE7
:1078900092898918644A128A8818052101F084F8AF
:1078A00062494418E00F0019C003000C60490880C9
:1078B000604909885C4A12888A1A5E4989885A4B4D
:1078C0009B88C91A51185B4A1289574B1B89D21AD7
:1078D0008918584A9289544B9B89D21A8918554A5B
:1078E000128A514B1B8AD21A8818052101F05CF8C4
:1078F0004E49CA394418E00F0019C003000C4E4924
:1079000008804A4865304B49088288810881888010
:107910000880454908828881088188800880002184
:107920004448817481738172817181703E48817491
:1079300081738172817181703C4865303F49088054
:107940003F4908803F490881C88088804880088076
:1079500000203A4988703A49887063E03A480078D4
:10796000401C394908703948097889002E4A50521C
:107970003549097889002F4A50522C4832490978F4
:107980008900294A50528D202F4909788900294AB7
:10799000891888702548653028490880284908805A
:1079A00028490881C88088804880088000202349B1
:1079B00088702349887035E0214800881F49088075
:1079C0001F48807888702DE01D4800881B4908807A
:1079D0001B488078887025E0194800881A49097882
:1079E0008900114A515A884207DB1548008813491B
:1079F000088013488078887014E011480088124984
:107A000009788900084A50520D4880780E49097853
:107A10008900891888700A48008808490880084841
:107A20008078887038BD0000D42500208D030000C8
:107A30008C200020C02500208E20002084200020E3
:107A400080200020E825002088200020BC040000C1
:107A500010B5002819DAB14A03071B0F083B9B0831
:107A60009B00D2588307DC0EFF23A3409A438B0769
:107A70001B0E8407E40EA3401A43A84B0407240FEF
:107A8000083CA408A4001A5118E0A54A03231B02CD
:107A9000D21883089B00D2588307DC0EFF23A34033
:107AA0009A438B071B0E8407E40EA3401A439C4B9A
:107AB000032424021B198408A4001A5110BD9949FB
:107AC0000870704710B59848006801282BD1974876
:107AD0004068C007C00F26D000209349086000F01E
:107AE00019FD012804D002280FD003281AD111E073
:107AF00000F04CFD002801D000F0E6FD00F0E0FCB5
:107B000000F0F1FC00F010FD0CE000F0ECFC00F0E7
:107B10000BFD07E0864800788007C00F01D1FEF713
:107B200093FF00BF00BF8048406801280AD17F480A
:107B300040680221084205D000217B4841607DA0B9
:107B4000FCF7ABFC10BD10B57D48007864280CD163
:107B500000F0A1FC044621467AA0FCF79EFC002020
:107B60007749087000F09AFC04E075480078401CE2
:107B70007349087010BD6B480078002821D0764802
:107B80000078401C74490870084600781F2806D108
:107B9000112001218140714A916000BF00BF6E48F1
:107BA000007833280DD11120012181406B4AD1602A
:107BB00000BF0020684908705A480078401E5949A3
:107BC0000870704710B5FFF7D6FFFFF7BCFF10BD78
:107BD00010B563480068012847D162484068012118
:107BE0000904084241D000205D49086001205E4937
:107BF000C86000F096FC00281DD000F099FC00F051
:107C000089FC012804D0022808D0032812D10BE0F7
:107C100000F095FB0220FFF752FF0BE000F0B8FAEE
:107C20000320FFF74CFF05E000F0B8FA0420FFF74F
:107C300046FF00BF19E000F06DFC012806D00228C5
:107C400007D0032808D004280CD108E000F07FFBFF
:107C500008E000F0A2FA05E000F0A6FA02E000F069
:107C6000B5FA00BF00BFFFF7ADFF10BD10B5002093
:107C70003E494860042008610320886003210920F0
:107C8000FFF7E6FE092000F041F801203649C86000
:107C900037483649403108600120000431494860C6
:107CA00001203149086010BD0920012181401C4A92
:107CB0008032116000BF00202A494860704710B52B
:107CC000092000F023F8012000042649486010BD77
:107CD00010B50446012081000522120707231B026C
:107CE000D218A300D15000BF03210620FFF7B0FE39
:107CF000062000F00BF82002012109040843401C73
:107D00001C49086101200949486010BDC206D20E15
:107D100001219140024A1160704700001CED00E013
:107D200000E100E098200020006100400063004076
:107D30007A2000204750494F20494E542E0D0A000A
:107D40009A2000207468652074696D65206973202D
:107D50003A25640D0A2000009920002000050050FB
:107D6000409100400093004000900040009500408A
:107D7000102700000065004002212A4A516000BF20
:107D8000294909680029FBD02649886000BF264997
:107D900009680029FBD00021224A516000BF224916
:107DA00009680029FBD0704701221E4B5A6000BFB2
:107DB0001D4A1268002AFBD0016000BF1A4A1268EF
:107DC000002AFBD00022174B5A6000BF164A1268E7
:107DD000002AFBD07047F0B5FFB0FFB082B0054677
:107DE0000E461746002405E0A0002858A1006A4668
:107DF0005050641CFF2CF7D92846FFF7BDFFB00098
:107E000069460F50002407E0A2006B469958A20073
:107E10005019FFF7C9FF641CFF2CF5D97FB07FB064
:107E200002B0F0BD00E5014000E4014070B5044639
:107E3000A048844201DB642540E09E4864388442C7
:107E40000BDD9C49091B3A2251430846642100F08E
:107E5000ABFD6421081AC5B230E0974884420CDDBE
:107E600094496439091B182251430846A02100F0A7
:107E70009BFD2A21081AC5B220E0904884420CDDFF
:107E80008D49091B0C2251430846FF212D3100F07A
:107E90008BFD1221081AC5B210E0894884420CDD1E
:107EA0008649091B062251430846FF21553100F03F
:107EB0007BFD0621081AC5B200E00025284670BDEA
:107EC00070B580480068002822D000207D490860F5
:107ED0007D488068C4B201207C4948604B2109017B
:107EE00061430846FF2100F05FFD4100401885B264
:107EF0002846FFF79BFF0646214675A0FCF7CDFA02
:107F000029467AA0FCF7C9FA314682A0FCF7C5FAE7
:107F100070BD10B501208A49486018206A49486040
:107F2000002068490860012067490860072000F0C8
:107F3000B0F8072000F0A6F8002062490860012090
:107F40006249086010BD10B50021052000F0A8F8B6
:107F50000021032000F0A4F8012079494860794805
:107F60005949486000205749086001205649086077
:107F7000072000F08EF8072000F084F80020514917
:107F8000086010BD70B518204F49486000204D4969
:107F9000086001204C4908604C49086000BF49480E
:107FA00000680028FBD000204649086046488068E9
:107FB000C4B20120454948604B210901614308468C
:107FC000FF2100F0F1FC4100401885B22846FFF780
:107FD0002DFF5D49087021463DA0FCF75EFA294659
:107FE00042A0FCF75AFA584801784AA0FCF755FA23
:107FF00055480078062801DD012070BD0020FCE70F
:1080000001203249086070472E480068002800D1DE
:1080100070470120FCE700202A49086001202B4915
:108020004860704770B5002026490860264880687F
:10803000C4B24B21090161430846FF2100F0B4FCA2
:108040004100401885B22846FFF7F0FE70BD10B51C
:1080500001203E4948603E48406A0F210904084318
:108060003B4948621E20FCF745FD01203849086065
:1080700010BD10B537A0FCF710FA01203F49C863C6
:1080800030BF10BDC206D20E012191403C4A1160A2
:108090007047C206D20E012191403A4A11607047E2
:1080A00010B58A0005231B07072424021B1984002E
:1080B0001A5110BDB80B0000B40A00008809000076
:1080C000340800000071004000750040007000405E
:1080D000746865206164635F726573756C74206990
:1080E000732025642E200D0A0000000074686520AE
:1080F00062617474657279277320766F6C7461673E
:10810000652076616C75652069732025642E0D0AE3
:10811000000000007468652070657263656E7461AC
:108120006765206F6620746865206261747465728B
:108130007920697320256420252E200D0A00000077
:108140000073004008100000A02000200003004041
:108150000005004073797374656D20697320676F43
:10816000696E6720746F20736C6565702E2E7A2E91
:108170002E7A2E2E5A2E2E2E0D0A00004000004080
:1081800000E100E080E200E010B5FFF76FFD10BDF8
:1081900010B57AA0FCF781F910BD704710B5FEF755
:1081A00044FCFEF743FF10BD10B57D480078000782
:1081B000C00F04D17A4800784007C00F02D0FEF704
:1081C00043FC01E0FEF7F8FB10BD704710B5FFF768
:1081D0006BFDFDF76FF9FFF74CFFFDF78FF9FFF728
:1081E0006EFD10BD10B500F062F9FF212D318842FF
:1081F00007D300F08FF9012803D100F061F9FFF7F0
:10820000E5FF10BD10B50A24122000F0A4F80DE01F
:10821000122000F0A9F8FF202D30FCF76BFC122093
:1082200000F0A7F8FF202D30FCF764FC2046611E0B
:10823000CCB20028ECD15BA0FCF72FF901206049FB
:10824000086010BD10B55F480068012801D1FFF734
:10825000D7FEFFF7D9FE002811D0FFF7E3FE044652
:10826000FFF7D9FE204600F032F9214656A0FCF770
:1082700014F900F02FF9142801DAFFF7C3FF514871
:1082800000685849884205D957A0FCF706F9002034
:108290004C4908604B480068401C4A49086010BDC2
:1082A00010B5FFF79FFFFFF7CDFF10BD10B51220EF
:1082B00000F051F8112000F04EF8122000F059F8AB
:1082C000112000F056F810BD00204B490860012035
:1082D0008107086000BF484800680028FBD070474D
:1082E00008B500200C2302460B210090FCF7BAFBD6
:1082F00042A0FCF7D2F8FFF7E7FFFFF743FE0028A4
:1083000001D1FFF77FFF00F01CF9FFF7CFFF12202C
:1083100000F02AF800F08FF800BFFCF7AFFA002851
:1083200001D100BFFEE700BF0C20FFF7D1FC7D208C
:108330000001FCF7DFFB122000F01BF808BD10B5B0
:10834000FEF78DFFFEF76CFFFFF7CAF810BD10B502
:10835000FFF712F910BD01210522120707231B02A6
:10836000D2188300D150704701218140274A916083
:10837000704701218140254AD16070470D0A656E22
:1083800074657220746865207573657220736C65FE
:108390006570206D6F64652E2E2E0D0A00000000A2
:1083A0007A200020546865206261747465727920B7
:1083B000697320746F6F206C6F772E2E2E0D0A005C
:1083C000000500409C20002020202020202020208C
:1083D00020202020206C6576656C203D20256420BF
:1083E0000D0A00000095BA0A2074696D65206F6E51
:1083F0002E2E0D0A0000000000010040737461720F
:10840000742075702E2E0D0A00000000000500502B
:1084100010B50020F049086008710021EE48403096
:1084200001761421383800F07CFA0121C902EB48AA
:1084300000F077FA10BD10B50020E9490870E9494D
:108440000870E9490860E94908600121C902E34868
:1084500000F067FAFF200130E5490880FFF7D8FFF8
:108460000120E44908700020E349086010BDDE489F
:1084700000680021E14AE24B101A8B4101DA012029
:1084800070470020FCE7D94800687047D64800686C
:10849000D64908607047D44800687047D2480068E1
:1084A000401CD14908607047CF4908607047D248E6
:1084B00000687047D0480068401CCF49086070478A
:1084C0000020CD4908607047C94800887047C449FA
:1084D00008707047C24800787047C24908707047FA
:1084E000C04800787047C3480078012804D00228AB
:1084F00006D003280CD107E00220BE49087007E02F
:108500000320BC49087003E00120BA49087000BF8D
:1085100000BF7047B748007870470120B549087020
:108520007047B848007870470120B6490870704716
:108530000020B44908707047FF200002B24948602B
:10854000704710B5B1480068401C1BD1FFF7F4FF1D
:108550000521C903AC481430FFF726FC0122002195
:10856000FF208002FFF737FCA9A0FBF796FF00BFB2
:10857000BFF34F8FB248B349C860BFF34F8F00BFFE
:1085800000BFFEE7B0A0FBF788FF10BD924800795E
:10859000704791480068704710B5FFF739FF10BD6C
:1085A000F7B506460F468C480079002849D10120CE
:1085B00089490871FFF75BFF002809D0012186482F
:1085C00002680068401C844B1860844881541AE09B
:1085D0000C21814802680068401C7F4B18607F486E
:1085E0008154184601684030027E007E401CC3B2B0
:1085F0007948403003769200383881500838006856
:10860000001D754908600621734802680068401C17
:10861000714B186071488154FFF73DFF05460024F7
:108620000DE0E1002846C840C1B26B48026800680E
:10863000401C694B186069488154601CC4B2042C0A
:10864000EFDB0421644802680068401C624B18603C
:1086500062488154354600240DE0E1002846C840B8
:10866000C1B25D4802680068401C5B4B18605B4803
:108670008154601CC4B2022CEFDB3D4600240DE0A7
:10868000E1002846C840C1B2534802680068401C57
:10869000514B186051488154601CC4B2022CEFDB6E
:1086A000029D00240DE0E1002846C840C1B24A48BE
:1086B00002680068401C484B186048488154601CA0
:1086C000C4B2022CEFDBFEBD30B50723424804687C
:1086D0000068401C404D286040480355FFF7DBFE12
:1086E000024600210DE0CB001046D840C3B23A4804
:1086F00004680068401C384D286038480355481C01
:10870000C1B20429EFDB0020334B187130BD10B526
:10871000314A4032127E002A2DDD334A1268334B33
:108720001B68D11A002021E084002B4A083212591C
:108730002A4CA1540A04130E8400274A0832125905
:10874000521C264CA3540A02130E8400224A0832FB
:108750001259921C214CA3540A0E84001E4B08335C
:108760001B59DB1C1D4CE254421CD0B21A4A403249
:10877000127E8242D8DC10BD30B503461446FFF7A6
:1087800008FF0D68401B13280FD3002208E0134D8B
:108790000868285C98540868401C0860501CC2B2E5
:1087A000142AF4DB1420207014E0FFF7F2FE0D7899
:1087B000401B2070002208E0084D0868285C98548F
:1087C0000868401C0860501CC2B2FFF7E2FE0D684A
:1087D000A842F1D830BD0000502E0020F425002022
:1087E000A0200020A1200020A4200020A8200020FC
:1087F000AC200020AE200020B0200020008059E1F5
:108800007693A300AF200020001000101410001079
:1088100073776974636820626F6F746C6F616465ED
:108820007220746F20307832383030302C206265FE
:1088300067696E20746F2072657365742E0D0A006F
:108840000400FA0500ED00E073797374656D206132
:10885000707020737461727420776F726B2E2E2E7D
:108860000D0A0000F8B5042A2CD3830712D00B7828
:10887000491C0370401C521E83070BD00B78491C07
:108880000370401C521E830704D00B78491C0370F0
:10889000401C521E8B079B0F05D0C91ADF002023F6
:1088A000DE1B08C90AE0FBF78FFCF8BD1D4608C9AE
:1088B000FD401C46B4402C4310C0121F042AF5D2C0
:1088C000F308C91A521EF0D40B78491C0370401CDF
:1088D000521EEAD40B78491C0370401C521EE4D48B
:1088E00009780170F8BD01E004C0091F0429FBD21A
:1088F0008B0701D50280801CC90700D00270704729
:1089000000290BD0C30702D00270401C491E022967
:1089100004D3830702D50280801C891EE3E700226E
:10892000EEE70022DFE70000F8B507460B463946C0
:108930001943890713D1164CE601042A0FD302CB41
:108940000D1B8D43354202D102C0121FF5E7CBB299
:108950000370521E401C002B13D0090AF7E7002AAF
:1089600014D01978521E5B1C0170401C002908D0DD
:10897000002A0BD01978521E5B1C0170401C002984
:10898000EDD1002A02D01146FFF7C9FF3846F8BDE5
:1089900001010101002203098B422CD3030A8B42FF
:1089A00011D300239C464EE003460B433CD40022E7
:1089B00043088B4231D303098B421CD3030A8B42F9
:1089C00001D394463FE0C3098B4201D3CB01C01AC7
:1089D000524183098B4201D38B01C01A5241430992
:1089E0008B4201D34B01C01A524103098B4201D380
:1089F0000B01C01A5241C3088B4201D3CB00C01AED
:108A0000524183088B4201D38B00C01A5241430864
:108A10008B4201D34B00C01A5241411A00D2014689
:108A20005241104670475DE0CA0F00D04942031022
:108A300000D34042534000229C4603098B422DD371
:108A4000030A8B4212D3FC22890112BA030A8B4219
:108A50000CD3890192118B4208D3890192118B4268
:108A600004D389013AD0921100E08909C3098B42ED
:108A700001D3CB01C01A524183098B4201D38B0130
:108A8000C01A524143098B4201D34B01C01A5241D3
:108A900003098B4201D30B01C01A5241C3088B4218
:108AA00001D3CB00C01A524183088B4201D38B0003
:108AB000C01A5241D9D243088B4201D34B00C01A8D
:108AC0005241411A00D20146634652415B101046A2
:108AD00001D34042002B00D54942704763465B10EA
:108AE00000D3404201B50020C046C04602BD7047D9
:108AF00070477047CB02420D10B51A430B1504D0D6
:108B00000124E4072243002B06DB0A4CE31A05D4B8
:108B10001046D840FF2B00DD002010BD4A00002881
:108B200000D001201018044A9042F5D8C817C0435D
:108B300010BD00001E0400000000E0FF1F22030C17
:108B400002D10F22000402D0030E03D004E0002063
:108B500001467047083A0002030F01D1121F0001BD
:108B6000830F01D1921E8000002801DB521E4000BD
:108B7000120551184205C012411810467047C10F26
:108B8000C90700D04042012292071143D6E70121D4
:108B90008907D3E710B500F08BF8006810BD10B559
:108BA000044600F085F8046010BD0000F0B50246F0
:108BB0003D4C080313460D46034325400020002D7D
:108BC00063D03A4D8C4365D0002969DB0B0D1D0540
:108BD000A94301252D052943FD330124E34001D399
:108BE00092184941FF3381339C468B02940D012139
:108BF000234389074C42920200271B198C105D1AEF
:108C000004D42D1B02D42B466500491992185B41F0
:108C10006408F4D15C1A08D40125ED07EE17551944
:108C2000744102D42A462346491C94185B41012210
:108C300092071D46E61B8D4106D4B61A854103D422
:108C40002B46550034467F1924195B415208802A6F
:108C5000EFD1234300D0022338460A22D04001D36B
:108C6000012213438A0510436246890A12058918B6
:108C7000002B09D00122D34002D30022401C5141D5
:108C8000002B01D140084000F0BD002B06D0C90FD9
:108C9000C907F0BD002B03D1002901DB1046F0BD50
:108CA00000202946F0BD00000000F07F0000F87FA2
:108CB00000487047AC2E002000487047AC2E0020C2
:108CC0007546FFF7F9FFAE46050069465346C008F2
:108CD000C000854618B020B5FBF78AFC60BC0027B1
:108CE0004908B6460026C0C5C0C5C0C5C0C5C0C578
:108CF000C0C5C0C5C0C5403D49008D46704704464B
:108D0000C046C0462046FBF719FA0000014918206A
:108D1000ABBEFEE72600020070470000F8B506462D
:108D20000C46FFF743FF05000F4600D0012001432A
:108D300049000B484908411AC90F0DD0002E01D037
:108D4000012100E000210C4361004908401AC00FD6
:108D500002D10120FFF723FF28463946F8BD000065
:108D60000000F07F9ECADC240EE5A9E093F3A3B5D2
:108D70000000406E01000000888D010000200020EE
:108D8000B4000000044101000000000000000000E9
:108D90000024F400000000000000000000000000BB
:108DA00000000000000000000000000000000000C3
:108DB00000000000000000000000000000000000B3
:108DC00000000000000000000000000000000000A3
:108DD0000000000000000000000000000000000093
:108DE0000000000000000000000000000000000083
:108DF00000000000FFFF0000000000000000000075
:108E00000000001C00000000000000000000000046
:108E10000000000000000000000000000000000052
:108E20000000000000000000000000000000000042
:0C8E300000000000000100000000000035
:04000005000140C1F5
:00000001FF
