:020000040002F8
:10800000E8310020CD860200DF860200E186020012
:108010000000000000000000000000000000000060
:10802000000000000000000000000000E3860200E5
:108030000000000000000000E5860200E786020064
:10804000E9860200E9860200E9860200E98602006C
:10805000E986020000000000E9860200E9860200CD
:10806000E9860200E9B10200E9860200E986020021
:10807000E9860200E9860200E9860200E98602003C
:10808000E986020075900200E9860200E986020096
:1080900091900200E986020081A10200E9860200B7
:1080A000E9860200E98602000000000000000000EE
:1080B00000000000000000000000000000000000C0
:1080C00000F002F800F031F80CA030C8083824188D
:1080D0002D18A246671EAB4654465D46AC4201D100
:1080E00000F023F87E460F3E0FCCB6460126334201
:1080F00000D0FB1AA246AB4633431847CC350000EC
:10810000DC350000103A02D378C878C1FAD852079B
:1081100001D330C830C101D504680C6070471FB569
:10812000C046C0461FBD10B510BD03F091FA114600
:10813000FFF7F5FF00F068F803F0A9FA03B4FFF7C2
:10814000F2FF03BC03F0AEFA401E00BF00BF00BF49
:1081500000BF00BF00BF00BF00BF00BF00BF00BF27
:1081600000BFF1D170470000401E00BF00BF00BF3C
:1081700000BF00BF00BF00BF00BF00BF00BF00BF07
:1081800000BFF1D170470000401E00BF00BF00BF1C
:1081900000BF00BF00BF00BF00BF00BF00BF00BFE7
:1081A00000BFF1D170470000401E00BF00BF00BFFC
:1081B00000BF00BF00BF00BF00BF00BF00BF00BFC7
:1081C00000BFF1D17047026882F3088843681847FE
:1081D00070B505460C46164602E00FCC0FC5103EA2
:1081E000102EFAD2082E02D303CC03C5083E042E6B
:1081F00007D301CC01C5361F03E021782970641C28
:108200006D1C761EF9D270BD08B500200C23024605
:108210000B21009000F02CFB1CA000F0BCF903F037
:1082200081F8002804D020A000F0B5F903F0A1F8EF
:108230005021880202F0D2FE21A000F0ACF902F039
:10824000B5FD00BF02F08AFA02F07CF903280BD1D9
:1082500021A000F0A0F911DF01220021FF208002FF
:1082600002F0F6FE00F009F802F06CF90428E9D1FA
:108270001FA000F090F900F000F8BFF34F8F2248E4
:108280002249C860BFF34F8F00BFFEE70A0A0A0AFF
:108290000A0D0A20726567696F6E3220737461720D
:1082A000742E2E0D0A00000064756D7020746F200E
:1082B000726567696F6E31313131310D0A0000002E
:1082C0002061707020617265612068617320656152
:1082D0007365642E2E0D0A0073797374656D2075B5
:1082E000706461746520656E642E0D0A00000000E4
:1082F00073797374656D207570646174652066614F
:10830000696C65642E0D0A000400FA0500ED00E0BA
:1083100010B5044600BFE3480068002808D0E148D3
:1083200000680470DF480068401CDE49086010BD2A
:10833000204600F082FA00BFF9E710B5044603E0DA
:108340002078641CFFF7E4FF20780028F8D110BDE6
:1083500070B505460C46D4480668056003E02078F1
:10836000641CFFF7D5FF20780028F8D1CE480660BE
:1083700070BDF3B58BB0054600BF2C786D1C002C8A
:1083800000D105E1252C03D02046FFF7C1FFF4E71B
:1083900000272C786D1C302C03D101272C786D1C04
:1083A00004E02D2C02D102272C786D1C00200790B0
:1083B00007E00A21079848430019303807902C78C5
:1083C0006D1C302C01DB392CF3DD6C2C01D04C2CD6
:1083D00003D1042007432C786D1C002C00D1D7E07A
:1083E0002646612E02DB30462038C6B24F2E45D0DD
:1083F00006DC422E3FD0432E35D0442E48D140E0FB
:10840000532E04D0552E3DD0582E41D13DE00C982E
:10841000006801900C98001D0C900020089002E06C
:108420000898401C089008990198405C0028F7D1F2
:1084300002E02020FFF76CFF0220074205D10898D8
:10844000411C089107998842F3D30198FFF775FF03
:1084500002E02020FFF75CFF0898411C0891079973
:108460008842F6D389E70C990A78091DD0B20C919D
:10847000FFF74EFF81E702200A900DE008200A90E6
:108480000AE000BF0A200A9006E010200A9003E0EC
:108490002046FFF73DFF70E700BF0420074205D0EC
:1084A0000C9800680C99091D0C910CE0442E05D124
:1084B0000C9800680C99091D0C9104E00C98006858
:1084C0000C99091D0C910690442E08D10698C00FF6
:1084D000C00704D0069840420690082007430020B9
:1084E000099000BF0A99069803F002F8CEB20A99E3
:1084F000069802F0FDFF0690092E06DD782C01D1CA
:10850000272000E007208019C6B230463030C2B2C2
:108510000998411C099102A90A540698002802D022
:1085200009981028DED30820074205D02D2209988B
:10853000411C099102A90A5409980890F807C00F34
:1085400001D0302000E02020064602E03046FFF750
:10855000DFFE0220074205D10898411C08910799C7
:108560008842F3D300BF0999491E02AA0991505CC1
:10857000FFF7CEFE09980028F5D102E02020FFF792
:10858000C7FE0898411C089107998842F6D3F4E683
:1085900000BF0DB0F0BD0FB408B503A8009000995E
:1085A0000298FFF7E6FE0020009001B008BC04B07E
:1085B00018470FB438B504463A48046006A800903E
:1085C00000990598FFF7D5FE00200090354909680D
:1085D00008703449086038BC08BC04B018470FB4B0
:1085E00038B5044630480568046006A80090009934
:1085F0000598FFF7BEFE002000902B48056038BCB0
:1086000008BC04B01847FFB583B00746154627A03D
:108610000499FFF7C0FF0698012804D0022821D052
:10862000042838D12BE03E46002404E0315D21A02F
:10863000FFF7B1FF641CAC42F8DB2020FFF768FEB7
:1086400000240CE0315D202904DB315D7E2901DC52
:10865000315D00E02E210846FFF75AFE641CAC4253
:10866000F0DB18E0029700BF02980188801C02909E
:1086700012A0FFF790FF681E0500F5D10BE00197EF
:1086800000BF019802C801900EA0FFF784FF681E8A
:108690000500F6D100BF00BF0A20FFF739FE07B082
:1086A000F0BD000004200020002000202530386CA0
:1086B000582000002025303258000000202530349A
:1086C00058000000202530384C5800000A48026845
:1086D0000F210A4302600948804709480047FEE726
:1086E000FEE7FEE7FEE7FEE7FEE700000548064975
:1086F000044A064B704700002405004077870200BB
:10870000C1800200E8290020E8310020E82900208B
:108710001F482049086070471F48008CC0B20128DC
:1087200027D11D48808C0007000F22D11A48806A8B
:10873000F021084205D11848C06A084201D1012041
:1087400070471548806AF0210840102805D112486A
:10875000C06A084201D10120F2E70F48806AF02187
:108760000840302805D10C48C06A084201D10120D8
:10877000E6E70020E4E710B5FFF7CEFF002805D0BC
:10878000064807494860C8130649886110BD0000C3
:108790000024F40008200020C00F00F0DFFF07C015
:1087A00000050040006C004010B5044603E0641E64
:1087B0000B48FFF7C9FC002CF9D110BD10B50446D9
:1087C0007D21C90061430846FFF7EEFF10BD10B5DB
:1087D00004460A2161430846FFF7E6FF10BD00008A
:1087E000E703000000BF424880680128FBD1002059
:1087F0003F4988603F488069C0B2704770B5044601
:108800000D4601260AE02046641E002804DB7D2078
:10881000C000FFF7A9FC01E0002603E034488068AF
:108820000128F0D100BF002C05DB00203049886012
:10883000304880692870304670BD2E49C86100BF3D
:108840002B49C9690129FBD10021294AD16170470F
:1088500030B50346002528466D1C1C5C05E020460B
:10886000FFF7EBFF28466D1C1C5C002CF7D130BDD8
:10887000F8B507460C4615461E46204600F025F87A
:108880000021304600F02AF81A48C4604661069874
:1088900000280DD0384600F018F80021284600F0D6
:1088A0001DF8144805618760012012494031C862F3
:1088B0001148104948620420086001200F4988606F
:1088C000086000200A498860F8BD012105221207CE
:1088D00007231B02D2188300D150704710B58A00BD
:1088E00005231B07072424021B1984001A5110BDFD
:1088F000002100400025004000E0D701002000409A
:1089000010B5002819DAFE4A03071B0F083B9B0825
:108910009B00D2588307DC0EFF23A3409A438B07AA
:108920001B0E8407E40EA3401A43F54B0407240FE3
:10893000083CA408A4001A5118E0F24A03231B02C1
:10894000D21883089B00D2588307DC0EFF23A34074
:108950009A438B071B0E8407E40EA3401A43E94B8E
:10896000032424021B198408A4001A5110BD10B559
:108970000446E548846003211120FFF7C1FF10BDC4
:1089800010B501200004E1494860E04940394860E1
:10899000112000F0FEFC112000F0E5FC0120DC4974
:1089A00008602F20FFF7F0FB10BD10B5112000F07C
:1089B000E1FC01200004D5498860D4494039886031
:1089C0000120D34948602F20FFF7DEFB10BDF0B532
:1089D000024624205043CF4B1B68C118CE48006884
:1089E000401C02D1CC48026057E0CB484B6800687D
:1089F00024246043C74C246800194068834217D878
:108A0000C548006824235843C24B1B68C0184068FF
:108A10004B68C31AC048006824246043BD4C2468D6
:108A200000194360BC4800680862BB48026034E03B
:108A30004B68B94D2C6828680DE024254543B54E98
:108A40003668AD196D685B1B044624254543B14E5D
:108A50003668AD19286A451C07D024254543AD4E1C
:108A60003668AD196D689D42E7D3451C0CD02425AE
:108A70004543A84E3668AD196D68EE1A2425454366
:108A8000A44F3F68ED196E604B6008622425654372
:108A9000A04E3668AD192A6200BFF0BD70B502461F
:108AA0009D4C2168084609E0904200D108E001464B
:108AB00024244443974D2D686419206A441CF3D143
:108AC00000BF441C00D170BD814209D1924C246882
:108AD00024256C438F4D2D686419246A8E4D2C60BB
:108AE000242444438B4D2D68641963682424444333
:108AF000884D2D686419256A24244C43854E3668B8
:108B0000A419256224244C43824D2D686419206ADF
:108B1000441C0CD0242444437E4D2D6864196468A1
:108B2000E518242444437B4E3668A419656000BFD1
:108B3000C9E710B5112000F025FC10BD10B51420B8
:108B400000F020FC10BD70B5044674480068002891
:108B500013D0724AE169A06912689047054600BFC8
:108B60002E46002E07D000BF6DA2FF215F31304698
:108B700001F02CFE00BF00BF02E0A169E069884758
:108B800070BDF8B564480068401C39D0002700F07B
:108B900008FC044669480168204600F005FC0646CA
:108BA0005D48056811E0242068435A490968441863
:108BB0006068B04200D90AE06068361A6068C71978
:108BC000256A2046FFF7BFFF00BF681CEBD100BF3E
:108BD0005B4800785B490978884209D15948007898
:108BE000401CC0B257490870022801D1002008700B
:108BF00054480078800054490F50FFF79FFF00BF92
:108C0000F8BD01464E4800784E4A127890421DD079
:108C10004B480078401C4A4A1070104600780228E1
:108C200001D100201070464800788000464A105854
:108C30000860424A086812688018404A106010466E
:108C400000680002000A10600120704700200860E0
:108C500000BFFAE7FEB53048006801903B48007855
:108C600000903FE00098C000394909684418257811
:108C700034E01820684361680F18681CC5B2A078FA
:108C8000A84200D100253878022802D0032822D13A
:108C90000EE02421786848431E4909684618307D53
:108CA000002804D07868FFF7F9FE0020307513E043
:108CB0000CE01949096824225143164A12688818A1
:108CC00000210175144A016A116000BF1248006852
:108CD000401CEED100E000BF00BF00BF6078A8429A
:108CE000C7D100BF0098411EC9B200910028B9D178
:108CF00009480168019881422CD00120FEBD000086
:108D00001CED00E000E100E00015014040130140CF
:108D1000001001400C200020182000202C200020F2
:108D2000536F757263655C626C655F6C69625C61F0
:108D300070705F74696D65722E6300001C200020E6
:108D400028200020292000202020002011200020A1
:108D5000142000200020FEBDF0B50346002426E0CC
:108D6000FE4E366824277E43FD4F3F68F019466863
:108D70009E4203D94668F61A46601CE046689B1B73
:108D800046683419002646600675F44E3568F34F80
:108D9000066A3E600669002E08D00E193602360AB1
:108DA00086600669C66016680662156000BFEB48FB
:108DB0000068401CD4D100BFF0BDFEB50746E748AF
:108DC00000680290E7480078019069E00198C000CF
:108DD000E549096845185CE0781C07D03E46242028
:108DE0007043DF4909684418276A23E0297818236B
:108DF00059436A6850182978491C29702978AA783B
:108E0000914201D100212970466824217143D44A3E
:108E100012688C180178012902D1217D002900D027
:108E200037E08168A160C168E16001692161416941
:108E3000E16100BFCD49A0680968401A0002000A3C
:108E4000CB49884208D2C949A068096800F0ACFA49
:108E5000E1684018606011E0C448A168006800F053
:108E6000A3FA0090E1680098814204D9E168009873
:108E7000081A606001E00020606000BF0020A06070
:108E8000E06001202075801E20623046FFF79FFDC4
:108E900000BF781CA0D12878697888429CD100BF97
:108EA0000198411EC9B2019100288FD1AB480168D9
:108EB0000298814201D00120FEBD0020FCE7FEB5F2
:108EC0000546A6480068401C34D0A4480068242108
:108ED0004843A34909684018466800F062FA0290C6
:108EE000A24804682146029800F05EFAC01C019076
:108EF000681C01D1FFF744FD0198B04201D2304611
:108F000000E0019804192402240A204699490860C7
:108F100000BF00F046FA00900299009800F044FA71
:108F2000C71C2046029900F03FFA874201D9FFF79B
:108F300000FE01E0FFF739FDFEBDFEB50020C04395
:108F400001908A480468854807686846FFF759FE1B
:108F50000546FFF77FFE0646002D05D001AA2146F3
:108F60000098FFF7F9FE01260198FFF726FF002879
:108F700000D00126002E02D03846FFF7A0FFFEBD2C
:108F80004170704770B502460B465078411C90788E
:108F9000884200D100211078884201D1002070BDA4
:108FA000196050781826704355682C182046F6E74B
:108FB000FFB581B005460E461746E9006A4A1268B9
:108FC00088186946FFF7DEFF0446002C02D1042012
:108FD00005B0F0BD01202070666000F0E2F9A060ED
:108FE000E760049820610A986061E9005E4A1268AF
:108FF00088180099FFF7C4FFFFF7A0FD0020E7E7FE
:10900000F8B504460E46E100574A126888186946CA
:10901000FFF7B8FF0546002D01D10420F8BD02205E
:1090200028706E60E100504A126888180099FFF7B6
:10903000A7FFFFF783FD0020F0E738B50446E10005
:10904000494A126888186946FFF79CFF0546002DBB
:1090500001D1042038BD03202870001F6860E100A2
:10906000414A126888180099FFF78AFFFFF766FDEA
:109070000020EFE700204049086000213E484160A1
:109080008160C16000203C494039086048607047F9
:1090900010B5FFF752FF10BDFFB581B00E46174661
:1090A0001C4620468107890F01D1012100E00021E3
:1090B000002902D1072005B0F0BD002C01D1072006
:1090C000F9E7FFF772FC2D490A9808602C480670F2
:1090D0002348046000250CE0002124206843204A36
:1090E00012681154242068431D4A126880180175C3
:1090F0006D1CB542F0DB242070430419032019498C
:10910000087019480460183400250CE0E900164A7C
:10911000126888180021017041708770446018211E
:1091200079430C196D1C032DF0DB0020C0430B4963
:10913000086000201349087013490870142000F0DB
:1091400028F903211420FFF7DBFB142000F00BF9B2
:109150000198FFF70CFC00F024F917E0182000201C
:109160000C20002011200020142000201C200020B2
:10917000FFFF7F0040150140401101402C200020DE
:109180001020002028200020292000208949086084
:10919000002090E770B503460C4687480068002819
:1091A00001D1082070BD002A01D10720FAE7002B69
:1091B00001D10720F6E700211CE0242048437E4D22
:1091C0002D68285C002814D10125242048437A4EBC
:1091D0003668355424204843774D2D684019447033
:1091E00024204843744D2D68401982611960002085
:1091F000D8E7491C714800788142DEDB0420D1E7C2
:1092000030B500BF6E484068C205D20D002A1ED09E
:109210001346103B58B200280CDA694C1C34050781
:109220002D0F083DAD08AD0064598507ED0EEC40EB
:10923000A4090AE0634C03252D0264198508AD00DA
:1092400064598507ED0EEC40A409E0B200E004206B
:10925000012802D0032804D101E0002103E001210C
:1092600001E0022100BF00BF084630BDFEB5044644
:109270000D46164650480068002801D10820FEBD62
:109280004E480078844201D2052D01D20720F6E72E
:109290002420604348490968085C012801D008205F
:1092A000EDE72420604344490968401840780128CC
:1092B00001D1284600E000200746FFF7A1FF3B460A
:1092C0002A46214600960190FFF772FED7E770B557
:1092D000044639480068002801D1082070BD37488D
:1092E0000078844201D30720F8E724206043324904
:1092F0000968085C012801D00820EFE7FFF780FF2C
:1093000005462146FFF77CFEE8E710B52A480068CD
:10931000002801D1082010BDFFF772FF0446FFF7B7
:109320008CFEF8E710B5044600F03BF82060002002
:1093300010BD70B505460E4614463146284600F06D
:1093400033F82060002070BD10B5112000F012F835
:10935000012000041C4988601B49403988600120B5
:109360001A49486010BDC206D20E01219140154A2B
:1093700011607047C206D20E01219140114A80321D
:1093800011607047C206D20E01219140104A11604F
:109390007047C206D20E012191400D4A8032116001
:1093A00070470C48406870470246501A0002000A95
:1093B000704700001C2000200C20002010200020FE
:1093C00000ED00E000E100E040130140001001402A
:1093D00000E200E000150140FEB505460E461446C9
:1093E0002078801C1F21081A80B200902178891CE7
:1093F000881969466DDF01900198002801D0019815
:10940000FEBD6878002808D06878694609888842D7
:1094100003DA68780090082700E00927684600888A
:10942000401CC1B22278501C2070B1542178481CD5
:109430002070775421786846008808182070002032
:10944000DEE7F8B505460C462078001D1F2801DD33
:109450000C20F8BD684669DF0646002E01D0304674
:10946000F7E703212278501C2070A9541921227893
:10947000501C2070A954207841196846008800F0DB
:1094800089FA2178401820700020E2E7F8B50546F7
:109490000F4616461C466868002801D10720F8BD13
:1094A0002078801C298840181F2801DD0C20F6E751
:1094B0002878401CC1B22278501C2070B154217809
:1094C000481C207077542A8823789819696801F01D
:1094D00077FF20782978401820700020DFE730B52A
:1094E00003461078C01C1F2801DD0C2030BD02246B
:1094F0001578681C10704C550A241578681C10707B
:109500004C551578681C10704B550020EEE7FFB5E0
:1095100087B006461D46109C0020069020780590D6
:10952000002747E0B900706841180A886846028140
:1095300049884181002203A902A854DF04900498BD
:10954000002802D004980BB0F0BD6846017B099852
:1095500081422ED10698002801D0002000E0022090
:10956000019020786946097B4118019808181F2846
:1095700001DD0C20E7E70698002809D12078401C7F
:1095800020702278511C08982170A8540120069060
:109590002078421903A902A854DF049004980028F7
:1095A00001D00498CFE720786946097B40182070E5
:1095B00000BF7F1C3088B842B4DC0698002806D073
:1095C00021780598401C081AC1B20598295400203A
:1095D000B9E7FFB581B0074615460A9E00960222FC
:1095E0003846049B0299FFF792FF0446002C02D0F4
:1095F000204605B0F0BD0096102229463846049B4F
:10960000FFF785FF0446002C01D02046F1E700203B
:10961000EFE701460888062808DB08881922D201EE
:10962000904205DD0888E04A904201D0072070474B
:109630004888062808DB48881922D201904205DDB7
:109640004888D94A904201D00720F0E70888D64AD6
:10965000904208D04888904205D008884A889042B5
:1096600001DD0720E3E70020E1E7F8B506460D46F7
:1096700014462078801D1F2801D90C20F8BD3046E3
:10968000FFF7C7FF0746002F01D03846F6E7052150
:109690002278501C2070A95412212278501C20706E
:1096A000A95422785119308800F074F921784018B3
:1096B000207022785119708800F06CF921784018D8
:1096C00020700020DAE7F8B505460E4614462879E2
:1096D000801CC7B22078801CC0191F2801DD0C2017
:1096E000F8BD781CC1B22278501C2070B154FF2103
:1096F0002278501C2070B15422789119288800F0EB
:1097000049F9217840182070A88800280EDDA86843
:10971000002801D10720E3E7AA8823789819A968CF
:1097200001F04EFE20782979401820700020D7E7FC
:10973000FEB507460E461446386B002801D10720B7
:10974000FEBD0020019032E0396B0C22019850439D
:109750000D182879801CC0B200900098401CC1B23E
:109760002278501C2070B15416212278501C207091
:10977000B15422789119288800F00CF9217840180A
:109780002070A88800280EDDA868002801D10720D5
:10979000D6E7AA8823789819A96801F011FE2078E5
:1097A0002979401820700198401CC0B201903420E3
:1097B000C15D01988142C7DC0020C1E7F8B50446CD
:1097C0000F4616460025002030702078002809D06A
:1097D000324639462046FFF7FFFD0546002D01D0F1
:1097E0002846F8BDA078002808D031463846FFF753
:1097F00028FE0546002D01D02846F2E7A088002863
:109800000ADD33463A460121201DFFF73FFE05469B
:10981000002D01D02846E4E7E06800280BD00020A6
:10982000E168085632463946FFF759FE0546002DD5
:1098300001D02846D5E7208A00280CDD3B460622C9
:109840000221204610300096FFF7C3FE0546002D8A
:1098500001D02846C5E7208B00280CDD3B460722B7
:109860000321204618300096FFF7B3FE0546002D71
:1098700001D02846B5E7208C00280CDD3B46152298
:109880001421204620300096FFF7A3FE0546002D48
:1098900001D02846A5E7A06A002809D032463946FB
:1098A000A06AFFF7E2FE0546002D01D0284698E7A2
:1098B000E06A002809D032463946E06AFFF703FF24
:1098C0000546002D01D028468BE73420005D002896
:1098D00009DD324639462046FFF72AFF0546002DAE
:1098E00001D028467DE728467BE701468888002886
:1098F00007D08868002804D08868007804221042C5
:1099000001D1072070470020FCE701468888002825
:1099100001DD072070470020FCE7F3B593B00D464A
:109920000021129111911398002814D01398FFF779
:10993000DCFF0446002C02D0204615B0F0BD12AA70
:1099400009A91398FFF73AFF0446002C01D02046DE
:10995000F3E709AE00E00026002D13D02846FFF7FC
:10996000D4FF0446002C01D02046E6E711AA01A945
:109970002846FFF723FF0446002C01D02046DCE7F1
:1099800001AF00E0002710A803793A46017A30467B
:1099900062DFD2E702460A70FF2000021040001288
:1099A0004870022070470000FFFF00000146488811
:1099B000B74A1288904206DB4888B54A52889042DE
:1099C00001DC012070470020FCE738B50546B148AE
:1099D0000088B14988423BD0B0480078401CAF496C
:1099E0000870AF48007B097888420FDBA849A94876
:1099F000008865DF0446002C07D0A948806900284C
:109A000003D0A74881692046884721E00020A34968
:109A10000870A348007C00280FD03B219D48008897
:109A200066DF0446002C07D09D488069002803D0DB
:109A30009B4881692046884700BF994840690028B3
:109A400006D000200090964841696846884700BFCC
:109A500038BD70B505461C2229469148FEF7B8FB73
:109A6000002090490870286800280BD008228848F8
:109A7000296801F0A5FC86486ADF0446002C08D05E
:109A8000204670BD82486BDF0446002C01D0204682
:109A9000F7E70020C0437F49088000207F49087015
:109AA000814A00218148FFF775FBEAE710B57F483E
:109AB0000068FFF70CFC10BD38B57D48FFF776FF56
:109AC000002829D17748007800280AD074484069D6
:109AD000002820D0002000907148416968468847DE
:109AE00019E06E480078002802D16D48456801E011
:109AF0006B488568002229466C480068FFF7B6FB72
:109B00000446002C07D066488069002803D06448CA
:109B10008169204688470AE061484069002806D0EC
:109B2000012000905E4841696846884700BF0020D8
:109B30005C49087038BD10B50446A08855490880B6
:109B4000082221460E315A4801F03AFC00205349C0
:109B500008705348C089002801D1FFF7ADFF10BD40
:109B600070B505460020C0434A49088000204B4993
:109B700008704E480068FFF7AAFB0446002C07D087
:109B800047488069002803D04548816920468847B6
:109B900070BD70B50546AC1D20884149C989884211
:109BA00020D1208B02281DD100BF00BFA17EE27E04
:109BB000120211430846C107C90F002902D0FFF75E
:109BC0007BFF0FE039480068FFF781FB0646002E57
:109BD00007D033488069002803D031488169304676
:109BE000884700BF70BD10B504460822A11D30484B
:109BF00001F0E6FBFFF760FF10BD10B504462088BA
:109C0000102806D0112808D012280ED0502810D1C4
:109C100007E02046FFF78FFF0CE02046FFF7A0FF8C
:109C200008E02046FFF7B5FF04E02046FFF7DBFF22
:109C300000E000BF00BF10BD38B504460822214631
:109C4000134801F0BDFB12486ADF0546002D1CD108
:109C50001748FFF7ABFE00280BD10120114908700F
:109C60000B490C48008865DF054601200B49087048
:109C70000BE00B484069002806D0012000900848FE
:109C800041696846884700BF0025284638BD000066
:109C9000322000203C200020FFFF00003A2000205E
:109CA0007C20002030200020CB990200482000209A
:109CB0003E20002005460C4616467F2231460B48C2
:109CC00001F0E0FB002109486030C17708490C80B1
:109CD00008480560084600880648006872B6A2B2C7
:109CE0003146284600F01BF800BFFEE79820002010
:109CF0004C20002050200020F8B504465A48066841
:109D00006D46771BFF200130874200D900E03846BE
:109D10000246294620468830FEF75AFAF8BDF8B5C3
:109D200004460F4615466220009001204F490880E6
:109D30000846446045807F223946083001F0A2FB86
:109D400000214A486830C1776838FFF7D5FF484896
:109D50004069401C08D001221207126991B2444A9E
:109D6000506901F0C5FB02E0012000074069801E38
:109D7000C6B23E493046009A00F027F9F8BDF8B562
:109D8000044662200090002539484069401C08D0F4
:109D900001221207126991B2354A506901F0A8FBFD
:109DA00002E0012000074069801EC6B26A462146D3
:109DB000304600F046F90546052D01D10020F8BDDA
:109DC000002D01D02846FAE72088002800D1F6E7C8
:109DD0000E2001218140274A916000BF00BF2088EA
:109DE000002803D0244800780028F8D00E20012154
:109DF0008140204AD16000BF1D484069401C08D006
:109E000001221207126991B2194A506901F070FBE0
:109E100002E0012000074069801EC6B2304600F013
:109E2000C7F805462846CAE701201349087070475D
:109E300070B50025002D15D00C48FFF7A0FF044693
:109E400000BF002C01D0052C01D1012000E0002032
:109E50000646002E05D100BF08A27C2100F0B6FC0A
:109E600000BF00BF70BD000000800200182100206C
:109E7000001000100005005054200020536F757230
:109E800063655C626C655F6C69625C626C655F6592
:109E900072726F725F6C6F672E63000070B503465D
:109EA0000C46002A01D1894D00E015882846002182
:109EB00011E0051206023543A8B25D5C6840050654
:109EC0002D0F684005034540A8B205062D0D6D0015
:109ED00068404D1CA9B2A142EBDB70BD02217C4A57
:109EE000516000BF7B4909680029FBD07849886030
:109EF00000BF784909680029FBD00021744A5160ED
:109F000000BF744909680029FBD070470122704BDB
:109F10005A6000BF6F4A1268002AFBD0016000BF80
:109F20006C4A1268002AFBD00022694B5A6000BFBD
:109F3000684A1268002AFBD0704770B504460D4687
:109F400000E03DDF644800780028FAD10120604934
:109F5000486000BF5F4800680028FBD0256000BF54
:109F60005C4800680028FBD000205949486000BFC9
:109F7000584800680028FBD070BD70B504460D46F7
:109F800029462046FFF7D9FF002070BDF8B50546E9
:109F90000E461746002407E0A00031582846FFF778
:109FA000CCFF2D1D601C84B2BC42F5DB0020F8BD47
:109FB00070B5044601200007006980B26043054681
:109FC0002846FFF78BFF002070BDF7B584B015461B
:109FD00001200007006980B20499484307463C46C7
:109FE000A90000220598FFF759FF0390206801900F
:109FF000019880B2029003990298884202D1002011
:10A0000007B0F0BD3846FFF769FF241D241D002668
:10A0100007E0B200059881582046FFF777FF241D1E
:10A02000761CAE42F5DB2946381DFFF786FF2B492B
:10A0300003980843019038460199FFF77EFF0020FE
:10A04000DEE7F7B586B00746144601200007006931
:10A0500080B278430490049D286803900398000C14
:10A06000000401901D490198884204D0002020700E
:10A07000052009B0F0BD2D1D287820702D1D2078F9
:10A08000800005902946059A0798FEF7A1F82078E8
:10A09000810000220798FFF701FF06460F48304372
:10A0A000029003990298884201D00520E1E7002040
:10A0B000DFE7024601200007006980B250430860D4
:10A0C000002070470449087070470000FFFF00003F
:10A0D00000E5014000E40140552000200000DE457D
:10A0E00070B506460C4615462946204600F07BFB17
:10A0F00070BDFFB581B00C4616461F46204681074D
:10A10000890F01D1012100E00021002902D107209F
:10A1100005B0F0BD002C01D10720F9E72548046007
:10A12000254806802548076025490A980860254982
:10A13000019810DF0546002D01D02846E8E71620DB
:10A1400023DFE5E738B500BF1B480088009069466B
:10A150001848006850DF0446052C00D10EE0002CA2
:10A1600006D000BF18A25F21204600F02FFB00BFE1
:10A1700010480068114909688847E5E700BF38BD05
:10A1800070B50F480068002810D00D48006880475F
:10A19000044600BF2546002D06D000BF0AA271214B
:10A1A000284600F013FB00BF00BF01E0FFF7CAFF25
:10A1B00070BD000060200020642000205820002096
:10A1C0005C200020E1A00200536F757263655C6241
:10A1D0006C655F6C69625C626C655F737461636B14
:10A1E0005F68616E646C65722E6300008A8882828B
:10A1F00070470022D2438282704770B504460E46F3
:10A20000B51D2988208A81420BD1288B022808D1CC
:10A21000688B012802D10121A17501E00021A175FF
:10A220000CE02888A188884208D1A069002805D0C0
:10A230002A8B29461A312046A369984770BD70B50C
:10A2400005460C462088102804D0112807D0502835
:10A250000FD109E021462846FFF7C8FF0AE0214652
:10A260002846FFF7C6FF05E021462846FFF7C5FF51
:10A2700000E000BF00BF70BD30B58FB004460D4692
:10A280000020079000BF6846007F01090901491CB2
:10A2900068460177007FF0218843103069460877CF
:10A2A00000BF00BF6846407F01090901491C68469C
:10A2B0004177407FF021884310306946487700BFDE
:10A2C0006846807F06218843811C684681771C216F
:10A2D00008A801F0D4F808A8007810218843411894
:10A2E00008A80170002009900B900C9007A80D9011
:10A2F00000200E9021786846817103218180002022
:10A30000009000BF6846007801090901491C6846B1
:10A3100001700078F021884310306946087000BF52
:10A3200000BF6846407801090901491C6846417030
:10A330004078F021884310306946487000BF684675
:10A34000807806218843811C6846817080780821C6
:10A350008843014668468170807810218843014611
:10A3600068468170807841084900491C68468170C0
:10A37000142102A801F083F801A802906846039016
:10A3800001210182002141821421818260882346BB
:10A390000C3302AA08A9A2DF0FB030BD30B58FB0D0
:10A3A00004460D461C2108A801F069F808A80078A9
:10A3B00008218843411808A80170002009900B90DB
:10A3C0000C900D900E9021786846817202210181D7
:10A3D0000020019000BF6846007901090901491C6D
:10A3E000684601710079F021884310306946087190
:10A3F00000BF00BF6846407901090901491C684651
:10A4000041714079F021884310306946487100BF9E
:10A410006846807906218843811C6846817180796D
:10A42000082188430146684681718079102188435C
:10A43000014668468171807941084900491C684697
:10A440008171142103A801F01AF802A8039001A851
:10A4500004900121684681820021C1821421018378
:10A460006088231D03AA08A9A2DF0FB030BD70B514
:10A4700086B004460E462C4B0FCB01AD0FC5002015
:10A48000C043A0823068A0610020A075214601A8C9
:10A4900052DF0546002D02D0284606B070BD217857
:10A4A0006846817501218182A21C05A90120A0DFD7
:10A4B0000546002D01D02846EFE731462046FFF73C
:10A4C000DBFE0546002D01D02846E6E73146204652
:10A4D000FFF764FF0546002D01D02846DDE7002088
:10A4E000DBE737B584B004460D46A07D002802D1D5
:10A4F000082007B030BD6846008B142801DD072016
:10A50000F7E700200090019002900390A18968462F
:10A510000180039506A80290012168468170A08AF7
:10A520006946A6DFE5E70000B4B60200F9490876FF
:10A5300070470020F8490860087188608881012010
:10A5400088737047F448807B7047F3480068704711
:10A55000F14988737047EF484069704770B5064607
:10A560000C460025EB484069EC49081AA04218D374
:10A5700015E0705DE7490969E94A5054E549096900
:10A58000491CE44A08461161E44900F0B1FFE14882
:10A5900001614069401CDF494861681C85B2A542E1
:10A5A000E7DB70BD10B50024DA484069002813D0FD
:10A5B000D848047B0146C968491C02460846D16058
:10A5C000D64900F095FFD348C1604069401ED1498B
:10A5D0004861D348005D10BD0020FCE710B5CF49AD
:10A5E000CF4800F04CFF0020CA49C86008614861AC
:10A5F000042008760020487610BDC7480079401C2A
:10A60000C549087108468168C2484069801E08181B
:10A61000C149886000208881704738B5044600949D
:10A6200001226946BF48FFF75CFF38BD10B5002422
:10A63000FFF7D4FF00F0EEFD0220FFF789FFBAA07C
:10A64000FDF7A9FF65E0B44800798002B149496986
:10A650004018801EB0490968884205D0FFF77BFF8B
:10A66000AE490839884208D1AA494A69AA490879F5
:10A67000AB4900F014FDA7490876A648007E0128E2
:10A6800006D0022813D0032824D0042840D13EE06D
:10A69000FFF7B3FFFFF7A2FF00249F48826801790C
:10A6A000A8A0FDF778FF0F20FFF7B7FF30E0FFF716
:10A6B000A4FF994882680179ABA0FDF76CFF0320E5
:10A6C000FFF746FF0F20FFF7A8FFFF20F530FEF74A
:10A6D0006BF81DE0ACA0FDF75EFF601CC4B2052C5A
:10A6E00009D1ADA0FDF757FF0420FFF731FF10207F
:10A6F000FFF793FF0AE0ADA0FDF74DFF1020FFF735
:10A700008CFFFFF76BFF0420FFF710FF00E000BF96
:10A7100000BF8148807B022895D010BD70B5002510
:10A72000002400207C49086000BF0CE0FFF73AFFDE
:10A73000054679480068E200294691400843764979
:10A740000860601CC4B2042CF0DB734801689BA055
:10A75000FDF721FFFFF76AFF70BD704710B5FFF7E7
:10A76000FAFE002814D0FFF71DFF6A494876084614
:10A77000417E97A0FDF70FFF6648407E0E2802D16C
:10A78000FFF7CCFF03E09AA0FDF705FF00BF10E044
:10A790009A4800689A49884206D99AA0FDF7FBFEBC
:10A7A00000209649086004E094480068401C9349E2
:10A7B000086010BD10B5FFF711FFFFF7BAFE10BD1E
:10A7C00010B511DF97A0FDF7E6FE10BD70B5044689
:10A7D0000D461646A3A0FDF7DEFE3246294620466A
:10A7E000FFF768FA70BD70B504460D462A4621464B
:10A7F000A448FFF7EBFF70BD38B500BF0020A24BA7
:10A80000052202210090FEF747FC044600BF2546C2
:10A81000002D07D000BF9DA2FF2172312846FFF70F
:10A82000D5FF00BF00BF00BF38BD3EB500BF6846C2
:10A83000007801090901491C009168460078F0215F
:10A8400088431030009000BF0B2298A168466CDF4F
:10A85000044600BF2546002D07D000BF8BA2FF2174
:10A8600097312846FFF7B2FF00BF00BF00200190DC
:10A87000029028216846818019218901C180002128
:10A880000181FF219131418101A86ADF044600BFA7
:10A890002546002D07D000BF7CA2FF21A13128460C
:10A8A000FFF794FF00BF00BF3EBD30B59FB005214C
:10A8B00002918148006801901A48017868468171C8
:10A8C000382111A800F0DBFD022110A80171002140
:10A8D00081710121018102A91391382103A800F09F
:10A8E000CEFD01216846818401A90A9103A911A81E
:10A8F000FFF713F8044600BF2546002D07D000BF20
:10A9000062A2FF21BE312846FFF760FF00BF00BFF3
:10A910001FB030BD58290020742900200A0400000F
:10A92000582500203C250020626567696E20746F01
:10A93000207265636965766520646174612E0D0A15
:10A94000000000004446555F535543432C2070617E
:10A950006765733A25642C20636F756E74733A25AE
:10A9600064200D0A000000004446555F454E442C0B
:10A970002070616765733A25642C20636F756E746F
:10A98000733A2564200D0A004446555F4552524FE4
:10A9900052200D0A000000004446555F4552524FB8
:10A9A00052203E2035200D0A000000004446555F2D
:10A9B0004552524F5220200D0A0000005468652075
:10A9C000616D6F756E74206973202564200D0A0017
:10A9D0002E2E2E2E2E2E68616E646C6520696E738D
:10A9E000742069733A20256420202E2E0D0A000061
:10A9F000776861743F2E2E0D0A0000006C20002045
:10AA0000801A06007468657265206973206E6F2075
:10AA10006461746120696E206275666665722E2EAF
:10AA20000D0A0000626C652074696D65206F757495
:10AA3000206F72207472616E73706F727420666919
:10AA40006E69736865642C207475726E206F7574FE
:10AA500020746F2064656661756C74206D6F646529
:10AA600000000000257328293A206C696E653A20A1
:10AA700025642C206572726F725F636F64653A2083
:10AA800025640000EFBEADDEA0220020536F75727A
:10AA900063655C626C655F736572765C626C655F52
:10AAA000737461727475702E63000000424C455FD0
:10AAB000554152545F4C4C00C4B6020070B5054677
:10AAC0000C4600219C4201D0002070BD01E0481CD2
:10AAD00081B2A14203DA685C565CB042F7D0A14271
:10AAE00001D00020F1E70120EFE7F8B506460C465B
:10AAF000154629462046FFF731FD08200090012227
:10AB00006946C348FFF7EDFCF8BD70B5C1480021A8
:10AB10000160C148BF490860BD48FFF7A8FC044672
:10AB200000BF2546002D07D000BFBC4AFF21EC31F5
:10AB30002846FFF74BFE00BF00BF70BD1E20B8497E
:10AB400008800846807840084000401C887008460D
:10AB5000807802218843B2498870084680781C2199
:10AB600088430C30AE49887008468078202188439D
:10AB7000AB4988700720C87010200871704770B505
:10AB8000054600BF2878002801D1012000E0002000
:10AB90000646002E05D100BFA04AA249FFF716FEC7
:10ABA00000BF00BF3B21A048008866DF044600BF0D
:10ABB0002646002E07D000BF984A9A49C91C304645
:10ABC000FFF704FE00BF00BF70BD10B5044600BF14
:10ABD000924A4321C9002046FFF7F8FD00BF10BD8F
:10ABE00030B587B01C21684600F049FC0020009079
:10ABF0000120000401908010029003216846017337
:10AC00000021C181017489480590894806906846F1
:10AC1000FEF71FFF044600BF2546002D07D000BFEA
:10AC20007E4A804924312846FFF7D0FD00BF00BF8F
:10AC300007B030BD30B585B01421684600F01FFC68
:10AC40000021684601700020019068460172402191
:10AC500001823C21418263DF044600BF2546002D6E
:10AC600007D000BF6D4A912189002846FFF7AEFD4D
:10AC700000BF00BF05B030BDF8B5044600252088F0
:10AC800014283ED006DC10280BD0112810D0132831
:10AC900055D119E017282BD0192849D052284ED168
:10ACA0001CE064A0FDF777FCA0885F49088047E0BE
:10ACB00066A0FDF770FC0020C0435B490880002DB2
:10ACC00001D1FFF7B7FF3BE066A0FDF764FC544AF3
:10ACD0000021554800886FDF054631E064A0FDF78C
:10ACE0005AFC0022114650480088A9DF054627E09B
:10ACF00062A0FDF750FC3222A11D634800F060FB0A
:10AD00001EE062A0FDF747FC5F4EB61D3188E0896A
:10AD1000814206D1002231464348008871DF054652
:10AD200005E0002211464048008871DF054607E033
:10AD3000A079002802D158A0FDF72DFC00E000BF4B
:10AD400000BF00BF2F46002F07D000BF334A354950
:10AD50009E313846FFF73AFD00BF00BFF8BD10B581
:10AD600004462046FEF749FF21462948FFF767FAC7
:10AD70002046FFF781FF10BD38B500BF00204B4BC8
:10AD800050224B4900900D20FFF7B3F9044600BF55
:10AD90002546002D07D000BF204AB1218900284652
:10ADA000FFF714FD00BF00BF00BF38BD10B541A0C4
:10ADB000FDF7F1FBFFF720FD43A0FDF7ECFBFFF7EC
:10ADC000DBFF46A0FDF7E7FBFFF72FFD48A0FDF7EF
:10ADD000E2FBFFF79AFE4AA0FDF7DDFBFFF765FDFA
:10ADE0004CA0FDF7D8FBFFF7FBFE50A0FDF7D3FB0F
:10ADF000FFF7A4FE52A0FDF7CEFBFFF71BFF55A007
:10AE0000FDF7C9FBFFF7EAFBFFF793FB10BD00005E
:10AE10003C25002070200020EBAA02008CAA020032
:10AE2000742000200B020000682000207FAB02008D
:10AE3000CBAB0200626C6520697320636F6E6E6538
:10AE400074696E672E2E0D0A00000000626C65208A
:10AE5000697320646973636F6E6E6574696E672EC3
:10AE60002E0D0A00626C652020332E2E0D0A000084
:10AE7000626C652020342E2E0D0A0000626C652065
:10AE800020352E2E0D0A0000B8240020626C6520AB
:10AE900020362E2E0D0A0000626C652074696D65E7
:10AEA000206F75742E2E0D0A000000005FAD0200A9
:10AEB000EC24002053797374656D2073746172748F
:10AEC0002E2E2E0D0A00000074696D6572732073BA
:10AED000746172742E2E2E0D0A000000737461636B
:10AEE0006B2073746172742E2E2E0D0A0000000008
:10AEF0006761702073746172742E2E2E0D0A00002B
:10AF0000736572766963652073746172742E2E2E78
:10AF10000D0A00006164766572746973696E67205A
:10AF200073746172742E2E2E0D0A0000636F6E6EA4
:10AF30006563742073746172742E2E2E0D0A0000E6
:10AF400073656375726974792073746172742E2EDF
:10AF50002E0D0A00416C6C20636F6D706F6E656E14
:10AF60007473206861766520696E697469616C69C3
:10AF70007A6564210D0A000030B502460B469248FE
:10AF8000002110E0041205022C43A0B2545C604082
:10AF90000406240F604004034440A0B20406240DBC
:10AFA00064006040491C9942ECD330BD0221874ABD
:10AFB000516000BF864909680029FBD08349886039
:10AFC00000BF834909680029FBD000217F4A5160F6
:10AFD00000BF7F4909680029FBD0704710B50A46B9
:10AFE00002237A4C636000BF794B1B68002BFBD0B7
:10AFF00000210BE0754B986000BF754B1B68002B60
:10B00000FBD001239B02C0184B1CD9B29142F1DB4B
:10B0100000236E4C636000BF6D4B1B68002BFBD0A0
:10B0200010BD0122694B5A6000BF694A1268002AAC
:10B03000FBD0016000BF664A1268002AFBD00022E4
:10B04000624B5A6000BF624A1268002AFBD0704708
:10B05000F0B5FFB0FFB082B005460E46174600249B
:10B0600005E0A0002858A1006A465050641CFF2C3F
:10B07000F7D92846FFF79AFFB00069460F50002421
:10B0800007E0A2006B469958A2005019FFF7C9FFCC
:10B09000641CFF2CF5D97FB07FB002B0F0BDF7B5CE
:10B0A00086B00F4615460020019003200090022430
:10B0B0000DE0281B385C02900220001BC1000298A2
:10B0C00088400199084380B20190601EC4B2002CF0
:10B0D000EFDCAD1E01203D49486000BF3C480068E0
:10B0E0000028FBD00026002003900698800205214E
:10B0F0008903401804902DE000240DE0AE4209D8E9
:10B100003046761C385C0590E1000598884003992C
:10B1100008430390601CC4B2042CEFDB049903982D
:10B12000086000BF2A4800680028FBD00020039078
:10B130000498001D0490FFF708FA069989028919FE
:10B14000884202D10220009005E0AE4202D10120E7
:10B15000009000E0D0E700BF00201C49486000BF1D
:10B160001B4800680028FBD006988002052189034F
:10B1700040180490002611E004980068059000240F
:10B1800007E0E1000598C8403146761C7854601C01
:10B19000C4B2042CF5DB0498001D0490AE42EBD938
:10B1A00029463846FFF7E8FE02900AA0029A019964
:10B1B000FDF7F1F902990198884202D1009809B08F
:10B1C000F0BD0320FBE70000FFFF000000E50140A9
:10B1D00000E401404352432069732025642C20255C
:10B1E00064200D0A0000000010B5474800680128DF
:10B1F0000FD14648406801210904084209D00020C7
:10B200004149086001204249C86048600320FFF7B7
:10B210008DF910BD10B500203E494860042008613A
:10B22000032088600321092000F034F8092000F091
:10B2300029F801203649C86037483649403108604E
:10B24000012000043149486010BD01203049C86028
:10B250000860704701202E49C86048607047092087
:10B26000012181402D4A116000BF0020274948601C
:10B27000704710B5092000F005F8012000042349AB
:10B28000486010BDC206D20E01219140234A803A87
:10B290001160704710B5002819DA214A03071B0F07
:10B2A000083B9B089B00D2588307DC0EFF23A3407A
:10B2B0009A438B071B0E8407E40EA3401A43184BD6
:10B2C0000407240F083CA408A4001A511AE0134AEA
:10B2D000803A03231B02D21883089B00D2588307AD
:10B2E000DC0EFF23A3409A438B071B0E8407E40E5A
:10B2F000A3401A43094B803B032424021B198408F2
:10B30000A4001A5110BD000040910040009300407D
:10B31000009000400095004080841E0080E100E025
:10B320001CED00E0FF2080020168012901D101200D
:10B3300070470020FCE710B5002019490A680FE0AB
:10B3400001218140114209D041B2CC06E40E012313
:10B35000A340134C8034236000BF00BF411CC8B21F
:10B360002028EDDB10BD10B504462046FCF72BFF6E
:10B3700010BD70B5FFF7DFFF13DF044600BF2546A1
:10B38000002D06D000BF07A24A212846FFF71EFA6B
:10B3900000BF00BF05208003FFF7E5FF70BD000080
:10B3A00000E100E0536F757263655C6466755F630E
:10B3B00074726C5C6466755F6374726C2E630000FB
:10B3C000F8B5042A2CD3830712D00B78491C0370DC
:10B3D000401C521E83070BD00B78491C0370401C85
:10B3E000521E830704D00B78491C0370401C521E68
:10B3F0008B079B0F05D0C91ADF002023DE1B08C96D
:10B400000AE0FCF7E5FEF8BD1D4608C9FD401C46F4
:10B41000B4402C4310C0121F042AF5D2F308C91AF5
:10B42000521EF0D40B78491C0370401C521EEAD403
:10B430000B78491C0370401C521EE4D4097801703B
:10B44000F8BD01E004C0091F0429FBD28B0701D518
:10B450000280801CC90700D00270704700290BD001
:10B46000C30702D00270401C491E022904D383077F
:10B4700002D50280801C891EE3E70022EEE700224D
:10B48000DFE70000F8B507460B4639461943890740
:10B4900013D1164CE601042A0FD302CB0D1B8D43AA
:10B4A000354202D102C0121FF5E7CBB20370521E23
:10B4B000401C002B13D0090AF7E7002A14D0197892
:10B4C000521E5B1C0170401C002908D0002A0BD0C2
:10B4D0001978521E5B1C0170401C0029EDD1002A16
:10B4E00002D01146FFF7C9FF3846F8BD010101013E
:10B4F000002203098B422CD3030A8B4211D3002371
:10B500009C464EE003460B433CD4002243088B424A
:10B5100031D303098B421CD3030A8B4201D39446D7
:10B520003FE0C3098B4201D3CB01C01A52418309CA
:10B530008B4201D38B01C01A524143098B4201D384
:10B540004B01C01A524103098B4201D30B01C01AAF
:10B550005241C3088B4201D3CB00C01A5241830829
:10B560008B4201D38B00C01A524143088B4201D356
:10B570004B00C01A5241411A00D2014652411046B6
:10B5800070475DE0CA0F00D04942031000D340422B
:10B59000534000229C4603098B422DD3030A8B4261
:10B5A00012D3FC22890112BA030A8B420CD38901FF
:10B5B00092118B4208D3890192118B4204D38901E5
:10B5C0003AD0921100E08909C3098B4201D3CB0123
:10B5D000C01A524183098B4201D38B01C01A5241D8
:10B5E00043098B4201D34B01C01A524103098B42DC
:10B5F00001D30B01C01A5241C3088B4201D3CB00C7
:10B60000C01A524183088B4201D38B00C01A5241A9
:10B61000D9D243088B4201D34B00C01A5241411A80
:10B6200000D20146634652415B10104601D34042AE
:10B63000002B00D54942704763465B1000D340425F
:10B6400001B50020C046C04602BD70477047704734
:10B65000754600F023F8AE46050069465346C0081B
:10B66000C000854618B020B5FDF740F860BC002743
:10B670004908B6460026C0C5C0C5C0C5C0C5C0C5BE
:10B68000C0C5C0C5C0C5403D49008D467047044691
:10B69000C046C0462046FCF751FD000000487047F8
:10B6A0008429002001491820ABBEFEE726000200D5
:10B6B000704700009ECADC240EE5A9E093F3A3B511
:10B6C0000000406E01000000D8B6020000200020FB
:10B6D0007C00000004810200000000000000000067
:10B6E0000024F40000000000000000000000000042
:10B6F000000000000000000000000000000000004A
:10B700000000000000000000000000000000000039
:10B710000000000000000000000000000000000029
:10B720000000000000000000000000000000000019
:10B730000000000000000000000000000000000009
:10B74000FFFF0000000000000000000000000000FB
:04B7500000000000F5
:04000005000280C1B4
:00000001FF
