:020000040000FA
:10000000D01B0020CD140100410601001F14010087
:1000100000000000000000000000000000000000E0
:100020000000000000000000000000003D1501007D
:100030000000000000000000410601004106010030
:10004000951501009B1501004106010041060100C4
:100050004106010041060100410601004106010080
:10006000A11501004106010041060100A71501008C
:1000700041060100AD150100B5020000B77A00008D
:100080004106010041060100410601004106010050
:100090004106010041060100410601004106010040
:1000A000B3150100B9150100410601004106010028
:1000B0004106010041060100410601004106010020
:1000C00000F002F811F0F3F90CA030C80838241839
:1000D0002D18A246671EAB4654465D46AC4201D180
:1000E00011F0E5F97E460F3E0FCCB64601263342AD
:1000F00000D0FB1AA246AB4633431847B81501009F
:10010000E8150100103A02D378C878C1FAD852072E
:1001100001D330C830C101D504680C6070470000BD
:100120000023002400250026103A01D378C1FBD813
:10013000520700D330C100D50B6070471FB5C046D1
:10014000C04611F059F904B00FB41FBD82690249CD
:100150008161024810447047610100000100000005
:1001600001B41EB400B50EF0CFFF01B4019886466D
:1001700001BC01B01EBD0000F0B4404649465246E5
:100180005B460FB402A0013001B50648004700BF2E
:1001900001BC86460FBC8046894692469B46F0BC11
:1001A00070470000C1000000401E00BF00BF00BF3C
:1001B00000BF00BF00BF00BF00BF00BF00BF00BF47
:1001C00000BFF1D17047000070B505460C461646D9
:1001D00002E00FCC0FC5103E102EFAD2082E02D32B
:1001E00003CC03C5083E042E07D301CC01C5361F3E
:1001F00003E021782970641C6D1C761EF9D270BD55
:100200008307FF22DB0E9A408907090E99400028D8
:100210000BDA0007000F0838830827489B001B18DB
:10022000D86990430843D8617047830823489B00EE
:100230001B181868904308431860704710B50446AF
:1002400000210120FFF7DCFF00211820FFF7D8FF75
:1002500000210B20FFF7D4FF02211920FFF7D0FF68
:1002600002210D20FFF7CCFF02210E20FFF7C8FF6F
:1002700002210F20FFF7C4FF0221C81FFFF7C0FFB4
:1002800003211620FFF7BCFF03211520FFF7B8FF5D
:10029000204600F017F8002010BD10B500F033F82C
:1002A00010BD0748704710B500F02EF810BD70471C
:1002B000704770477047000000ED00E000E400E088
:1002C00003E9008330B5044695B02B4802F01CFDCD
:1002D0000546072000F08AFE2946284800F0C4FEA3
:1002E000A41F072C0AD8302168460170847001F0E1
:1002F0008FFE002802D009A801F013F9284601F06A
:1003000080FF15B030BD704710B50C460121502854
:1003100001D2216010BD0246503A0B2A03D8214673
:1003200002F034FB06E002465C3A032A04D8214678
:1003300002F057FB206010BD0246603A1F2A03D826
:10034000214600F02BF8F5E70246803A1F2A03D831
:10035000214600F0ADF8EDE70246A03A0F2A03D897
:10036000214600F015F9E5E70246B03A0F2AD0D849
:10037000214600F0F2F8DDE7A32500004C1601004D
:1003800070477047704770477047704770477047B5
:1003900010B5012801D100F088FE10BD10B56038FD
:1003A000030011F03CF9150C10141C20232A3136DF
:1003B0003B3F43474E535A626A72797E8300086816
:1003C00003F004FF10BD086803F057FF10BD0C795F
:1003D0000B7B8A680868214603F076FF10BD086829
:1003E00003F0F0FF10BD03F0C3FC10BD08884A689D
:1003F00080B2114604F073F910BD0A7908881146DD
:1004000080B204F0C3F910BD087840B204F0CEF910
:1004100010BD088880B204F0EAF910BD086804F045
:10042000F9F910BD086804F011FA10BD086804F06D
:100430003DFA10BD088982B209C9194604F068FA6C
:1004400010BD05C9114604F0C3FA10BD08884A68FA
:1004500080B2114604F0DDFA10BD0B7908888A6875
:1004600080B2194604F01FFB10BD0B7908888A681A
:1004700080B2194604F0C8FB10BD08884B688A6832
:1004800080B2194604F000FC10BD08884A6880B2AA
:10049000114604F04BFC10BD088880B204F064FCE7
:1004A00010BD088880B204F08CFC10BD012010BD86
:1004B00010B58038030011F0B2F809060F161D249C
:1004C0002C363F464E0088888A6883B208881946D1
:1004D00080B205F027F810BD08884A6880B211463E
:1004E00005F07AF810BD08884A6880B2114605F018
:1004F000AEF810BD08884A6880B2114605F0F1F8E0
:1005000010BD08884B688A6880B2194605F01FF94B
:1005100010BD088982B2888883B20888194680B2E3
:1005200005F051F910BD08894B6882B20888194658
:1005300080B205F083F910BD08884A6880B2114680
:1005400005F0B0F910BD888882B20888114680B2E3
:1005500005F018FA10BD012010BD10B5B02805D067
:10056000B12808D0B2280BD0012010BD088880B275
:1005700005F0F7FC10BD088880B205F021FD10BD24
:1005800008884B688A6880B2194605F02AFD10BDBC
:1005900010B5A038030011F042F80B070E17202801
:1005A000323C434D545D65004B6808788A681946B3
:1005B00006F0F5FE10BD88888A6883B2088819465F
:1005C00080B206F001FF10BD08884C68CB688A68CD
:1005D00080B2214606F008FF10BD08884B688A6883
:1005E00080B2194606F022FF10BD8888CB6884B21D
:1005F00008888A6880B2214606F033FF10BD8888DB
:10060000CB6884B208888A6880B2214606F039FF38
:1006100010BD08884A6880B2114606F04EFF10BD32
:10062000088982B2888883B20888194680B206F0A9
:100630004FFF10BD08884A6880B2114606F069FF76
:1006400010BD08894B6882B20888194680B206F04E
:10065000D0FF10BD08884B688A6880B2194607F041
:100660009AF810BD012010BDF8B53F21FB4A0902E0
:100670009160FB4A0023D363FA49CB630125D5631C
:10068000CD63F94902270F60F8490F60F849C96A3C
:1006900009070ED4F6494031CB6AF64A53620B6B18
:1006A00093624B6BD3628B6B1363C96BD305194396
:1006B0005163F14EF14CF169002830D0012832D05D
:1006C000FF20EFA1733010F0A4FEF148A063FF20DB
:1006D000043060632563EF4903200860EE4A10216F
:1006E00051602061E549962040314860EB488760C1
:1006F000DA48EB4940304162B1690162E849403172
:100700004163E449FC390163E5494431C163E1498E
:10071000F03981633F20D14900024860F8BDE148CB
:100720006061E14804E0E048E0306061DE48801F3D
:100730000143A161C9E70120CF494006C861704764
:1007400010B5CD4C0020A07021466070203148705B
:1007500008746061A072A0620FF046FBA0612046A1
:1007600034300EF017FC002804D0FF20C4A13C3028
:1007700010F04FFE01204006E0610020FFF774FFFB
:1007800010BDBD49012008707047BB4900200870AA
:10079000704770477047B94940310028086802D057
:1007A0000122104301E0400840000860704770B526
:1007B0000C46B14D01460622E81C10F0ABFC6C72F1
:1007C00070BDAD48203040787047AB4A9170507092
:1007D000704770B50C460546082904D9FF20A8A12A
:1007E000D23010F016FEB14EA20029463046FFF777
:1007F000EBFC002107E0480040198A00008C9219A8
:100800001062491CC9B2A142F5D3A849286B4031F6
:10081000086070BD0B23DB4310B5C21A974998429C
:100820001ED008DC1C3221D00A2A1FD0142A1BD06B
:10083000182A08D116E0083010D004280CD0082857
:1008400008D00C2804D08EA1994810F0E2FD10BD0C
:1008500004200CE000200AE0FC2008E0F82006E07C
:10086000F42004E0F02002E0EC2000E0D820C86092
:1008700010BD81482030007B704710B57F4C616A05
:10088000090A09026162616AC27811436162E16921
:10089000C9B2E16110F09FFCE16900020843E06128
:1008A00010BD252808D0262808D0272808D04100C8
:1008B0000A2807D8091D06E0022105E01A2103E0F5
:1008C000502101E0891DC9B26C4A91606B494031E9
:1008D0004861704768494861704770B5664CA072BE
:1008E00000F031FBA07AC0073ED06A4D286880072F
:1008F00004D46F4862A1873010F08BFDA07A010606
:100900001AD5800707D5A3205DA1800010F081FDD6
:10091000A07A000610D5514E20784036012812D01A
:10092000002804D0624856A1983010F072FD61484A
:1009300070610FF059FA3061A07A800714D52868E9
:10094000C00708D102E05B48001FF1E758484CA1FE
:10095000A03010F05EFDA07A4007286801D5042180
:1009600000E008210843286070BD70B50124424DA5
:10097000002807D0012818D002281AD04C4840A1DE
:1009800042300BE000F0DFFA4A482978001F0129C5
:1009900007D0002907D0464839A12F3010F039FD83
:1009A00070BD046070BD446070BD8120FFF795FF8D
:1009B00070BD00F0C8FA6869002804D13C4830A135
:1009C000373010F026FD6969A86A40183349403174
:1009D000C860224838498030016036490C31416096
:1009E00008141E4948603548846023482030047448
:1009F00070BDF8B50C2069460870274C6068C006C9
:100A0000C50F1026A6602B480021FC300161294B40
:100A100001221B1F1A610BE000BF00BF00BF00BF17
:100A200000BF00BF00BF00BF6B461A78521E1A708D
:100A30006A461278002A02D00269002AECD00161CD
:100A400068460078002804D119480DA1563010F0EE
:100A5000E0FC002D00D06660F8BD000000F501400C
:100A6000C01F0040C08F004080E100E080E200E055
:100A700080000010001700402801002000150040F1
:100A80007372635C68616C5F7263732E6300000055
:100A90005B0600000012004000130040008500408B
:100AA00000800040060102002500030000160040FF
:100AB00003020000041000404C810040000500408B
:100AC000FA490020C861704710B510F084FB00029D
:100AD000F749000AC86310BDF64902200860704754
:100AE000F44902200860F44908607047F149022087
:100AF000803908607047F14908707047EB4810B5BD
:100B000034300EF04FFA002803D0ED49ED4810F0D4
:100B100080FC10BDE54810B534300EF05BFA10BD16
:100B2000E3494860704710B5E049E74B0022C860D0
:100B30001A60896A0818E549086000F00BFA10BDD0
:100B400010B5DA48C221C160DF4A00211160806A15
:100B5000DE49C230086000F0FDF910BDDC4900201C
:100B60008861C861D149C860D84908607047D949CF
:100B700001204860C860D44900200860CB498862E1
:100B800070477F20D2490002403988607047C748CB
:100B9000CE49806AFE3088607047CC49002088606A
:100BA0007047CD480168102291430160CB49012074
:100BB00088617047CA490020C861C748016810228F
:100BC00011430160704700B5FFF7EBFFB749002004
:100BD000087400BD00B5FFF7EDFFB44901200874AB
:100BE00000BDBF49CA69012A01D000207047B04A40
:100BF000403292685206520E524202700020C86182
:100C000001207047F8B5B64C2069012805D00021B5
:100C1000A6480078012802D004E04021F8E7E26805
:100C2000012A04D000220A43012802D004E0202235
:100C3000F9E76168012905D000211143A94A00287C
:100C400002D007E01021F8E71368012B02D1E36816
:100C5000012B04D000230B43002802D007E0082317
:100C6000F9E71168002902D1E168012905D00022C5
:100C70001A43954E002802D004E00422F8E73168B8
:100C8000012904D000211143002802D004E00221F0
:100C9000F9E76068012829D0002593480D430168D1
:100CA0000906090E02D06169012900D000217F4F99
:100CB0002037397300680006000E02D0A0690128B1
:100CC00000D00020787381488068002803D006F0A7
:100CD00056FF012800D00020B8730021E160216197
:100CE00061606161A16131602846B5E60125D4E704
:100CF0006E4801212030C1737047F8B56B4E012753
:100D00002036307C0025002827D0734C20680090C6
:100D10002560FFF76EFE009820607148C560056190
:100D20004560456185616A490014403988606F48B3
:100D300085605E480178694801290AD000290AD0F7
:100D400060485F49C23010F064FB10F049FC357414
:100D500082E60760F9E74760F7E7FFF753FF0446CD
:100D60000020F07359480268504D6A624068A862DA
:100D70002978002909D1A978002906D04C4B5B6855
:100D80001B780B406978994309D000213170E10745
:100D900007D0104609F069F80121A86A08E0377009
:100DA000F5E7A10601D5022102E0A10702D5002145
:100DB00009F06AF83E4F796806220931E81C10F004
:100DC0007CF9002807D1687A79680978C9098842CE
:100DD00001D1012000E000207070204600F0C0F832
:100DE0003648C2270078002815D0012828D00228CC
:100DF0003BD003287ED032493D4810F00AFB287CC6
:100E0000002804D02878002875D0FFF7CAFE28787B
:100E1000002871D090E0A00701D508F0C6F820079F
:100E200003D50120EF6008F0F2F8600703D5002039
:100E3000EF6008F0ECF8A006E1D508F065F8DEE711
:100E4000A00701D50AF0C1FA200703D50120EF6001
:100E50000AF03AFA600703D50020EF600AF034FA8E
:100E6000A006CCD50AF0BBF9C9E7A00703D5BF207F
:100E700004400AF0F7FB200705D5BF2004400120FD
:100E8000EF600AF0EEFB600705D5BF2004400020AC
:100E9000EF600AF0E6FBA00603D5BF2004400AF08D
:100EA000DFFB6006ABD50AF0DEFBA8E728010020D7
:100EB0000015004080E100E080E200E01400002026
:100EC000800A0000BF0200004081004040850040D1
:100ED00040F501400080004000120040001000403A
:100EE0000011004000140040401600400005004082
:100EF000B104000001E015E017E0A00701D50AF0F9
:100F0000B5FB200703D50120EF600AF0AEFB6007B8
:100F100003D50020EF600AF0A8FBA0068FD50AF0E9
:100F2000A3FB6CE7FFF746FE71E7E868002803D0F3
:100F3000A96A091826480160F07B002800D18BE5DA
:100F400010F04EFB88E52349032008602249002069
:100F50000861704720482149C1612149816170477A
:100F600070B50546FFF7EFFF1E4CA17A080701D5C3
:100F700068071CD41C4AC80605D5507B002802D03F
:100F8000907B002813D0880602D5107800280ED157
:100F9000480602D55078002809D000208A0700268C
:100FA000002A07DA4A0704D50122227002E0012054
:100FB000F4E72670CA0709D0AA0705D4890705D522
:100FC000002803D0A80601D4FFF713FDA67270BD58
:100FD000408500400012004040F5014010100040E4
:100FE00040810040280100204801002010B5FFF793
:100FF000A7FB0DF07EFE06F011FD0DF0F9FF06F0E7
:101000007BFD06F0A5FC10BD1CB50446002069461A
:101010000870204607F0F4FC6946204607F0B2FB52
:10102000002803D1F8A1BB2010F0F3F901A9204654
:1010300007F007FB002803D1F3A1C02010F0E9F965
:10104000684600781CBDF549002008760A46C87736
:1010500020321071603A1070203290739074907644
:10106000087488707047EEE710B50C46EC4982882A
:101070008A8042884A800078087008460A3884705E
:1010800007F0B5FAFFF7DFFF204608F0FAFB07F09C
:1010900029FDE34809F04EFF07F0A9FCDF480021D5
:1010A0008038017410F0C8FA10BD10B50120FFF7A8
:1010B00067F910BDF8B508F034F9D94DD74C0A3DA1
:1010C000022802D0207C00287CD0207E0026102818
:1010D00019D1A078002803D0CBA1D24810F099F9FB
:1010E000CE48E038817989070DD5014626716039EF
:1010F0004989E180C1792172018961814089A0819A
:101100000120A0702676C54F203FB87C002859D119
:10111000C5486946408907F035FB002805D0694677
:10112000687809784018687004E0BE48B6A11D30A0
:1011300010F06FF9207C002838D0BB484189FF307F
:101140000130406D4089814204D0B648AEA12230C2
:1011500010F05FF9B448408907F0BAFB002804D1C9
:10116000B048A9A1283010F054F907F028FC002855
:101170001CD0AD484089FFF747FF69784018687078
:10118000A6484038416D20318A7B012A0DD1A64AFC
:101190003E775289C287C87B20700120B876207EB6
:1011A000102801D0282800D12676267469780029D5
:1011B00008D09D484289FF300130C2860187012056
:1011C000B8746E7008F0A1F8002805D1207C0028C2
:1011D00002D0A87801F0BCFDF8BDF8B50F46044672
:1011E000FFF768FF8D4D403D28788C4E002813D0C6
:1011F000002F10D1307E002804D0FF2082A1C930FA
:1012000010F007F92C22A91C20460FF083FF0E20B6
:101210002070002028708FE0804D203DA87B0028A2
:1012200018D0002FF7D1307E102808D0282806D0FB
:10123000002804D0FF2074A1D53010F0EAF8012076
:10124000E070E87BA070287C60700F202070002088
:10125000A87371E00121204607F0EAFB002807D0BF
:10126000307C002852D13946204607F0E1FBF8BD1A
:10127000A97C6A480C38009069480A38002913D0C4
:101280000178052910D2002F56D1491C0170002683
:1012900066700D202070012028750622A01C009980
:1012A0000FF038FFAE7447E05D4800210A38017046
:1012B000B078002815D0002F3ED1307E002804D011
:1012C000432051A1C00010F0A4F800256570012052
:1012D000524920700A22091DA01C0FF01BFFB57097
:1012E0002AE03946204609F092FD002824D1A87C46
:1012F000002805D0002F1FD149480A380178C4E7DB
:10130000A87E002802D0307C002801D00020F8BD43
:10131000002F11D1307E002803D03BA1434810F0AC
:1013200078F8002666700A203C4920700622091FC2
:10133000A01C0FF0EFFEAE760120F8BD10B53748C7
:10134000017E002908D1007C012805D00121002060
:10135000FFF743FF002801D0072010BD012010BD7A
:1013600010B5012408F09DFA0443FFF7E7FF04439A
:1013700007F03EFB01462143084610BDF8B51D4667
:1013800014460E4607F07DF9002807D0684607F09E
:1013900083F9002803D0002C07D101E00120F8BD1B
:1013A000224819A1303010F034F807F021F9A0429A
:1013B00004D2272014A1000110F02BF8009806F0A9
:1013C00087FD3146009806F095FDE2B22946009867
:1013D00006F04CFF07F072F9002804D113480AA167
:1013E000403010F016F807F005FB0F48002440309D
:1013F000417B002905D0447300210122084607F0F3
:10140000A7FF09488480C9E77372635C6C6C5F63F3
:1014100074726C2E73302E6300000000D002002026
:101420002000002021060000900100203F02000063
:1014300010B50179002908D001290BD0FF20FC4903
:101440000A300FF0E6FF002010BD831D428804889B
:10145000022103E042880488831D01212046FFF712
:101460008DFF10BDF8B51F4615460E46044607F021
:1014700058FF022803D0EF48007C00281FD0EE4818
:101480004089208007F024FA002803D1E849EB487E
:101490000FF0BFFF0524684607F025FA00280ED09C
:1014A000009806F05FFD3070022809D0012807D0AF
:1014B00007F059FA641E2406240EECD10020F8BD72
:1014C0003946009806F0EAFE2880002804D1DB485F
:1014D000D74912300FF09DFF07F045FA002804D1DC
:1014E0005920D349C0000FF094FF0120F8BD38B552
:1014F0000446831D821C6946FFF7B4FF00280DD007
:101500000020607168460078012808D0022806D0C3
:10151000FF20C7492B300FF07CFF012038BD207120
:10152000FBE7002159E670B5C24C0546403C2078E7
:10153000002803D1BF48007E002803D0BC49C04822
:101540000FF067FF287807F07BFB287809F044FE4E
:1015500000202071012060713921E170207070BD80
:1015600070B5B44D0446403D2878002803D1B148F9
:10157000007E002804D0B248AD4918380FF049FF6A
:10158000AD4E21887089884203D107F0CAFE022837
:1015900007D002202871012068713821E970287075
:1015A00070BD7F20F075A448E17820304173A178A8
:1015B00001730020EEE770B59E4C403C2078002877
:1015C00007D19C48007E002803D107F0AAFE03281B
:1015D00004D19A48964964300FF01BFF95480025C6
:1015E000203005712946401D07F018FB01202571A8
:1015F00060713A21E170207070BD70B58D4C064667
:10160000403C2078002807D18A48007E002803D17A
:1016100007F087FE032804D18848854978300FF009
:10162000F8FE844D2035287908280FD200010019D2
:1016300065301022314600F0B3FD2879401CC1B25C
:101640002971681D07F0EAFA002000E007202071E8
:10165000012060713B21E170207070BDF8B5754CC0
:101660000546403C2078002803D17248007E0028BF
:1016700004D073486E4946380FF0CBFEA878002896
:1016800001D0012804D1A888FF21F531884204D96E
:101690006B48674940380FF0BCFE674E2988708957
:1016A000884203D107F03DFE022807D002202071B6
:1016B000012060713621E1702070F8BD5E4800277E
:1016C00020300772A98871850121B175A978012997
:1016D00000D00021017258484030407B002804D0DF
:1016E00000210122084607F033FE2771E0E770B5BC
:1016F000504C0546403C2078002807D14D48007EDC
:10170000002803D107F00DFE002804D01520484919
:1017100080010FF07EFE287808F0C7F800202071C5
:10172000012060713021E170207070BD70B5414CB6
:101730000546403C2078002803D13E48007E002822
:1017400004D03F483A490D300FF063FE2878002856
:101750000BD0012809D0022807D06878402804D38C
:101760003748334914300FF054FE284607F0D0FDB7
:10177000002801D0002000E00C20207101206071C1
:101780003421E170207070BD70B52A4C0546403C94
:101790002078002807D12748007E002803D107F0D1
:1017A000C0FD002804D0264821495E380FF031FEE4
:1017B0002978002914D00A2912D0142910D01E2902
:1017C0000ED028290CD032290AD04B2908D0642900
:1017D00006D0FF2904D01A48154952380FF019FED7
:1017E000284608F0B7F800202071012060713321ED
:1017F000E170207070BD70B50E4C0546403C2078FD
:10180000002803D10B4A107E002804D00C48084958
:1018100077380FF0FEFD062229460A480FF07AFCC1
:1018200000202071012060713221E170207070BDB4
:1018300008140000D002002090010020AF02000038
:10184000A90500001900002070B5F84C0546207865
:10185000002804D120464030007E002803D0F449FF
:10186000F4480FF0D6FD00216956042914D0002950
:1018700012D0081D10D0001D0ED0001D0CD0001D70
:101880000AD0001D08D00A3006D0283104D0E9481B
:10189000E749801C0FF0BDFDE44829784038017409
:1018A000012060713121E1702070C0E710B5DF4C7C
:1018B0002078002804D120464030007E002803D044
:1018C000DB49DD480FF0A5FD06F092FEE08006F052
:1018D00057FF207200202071012060710521E17006
:1018E000207010BDF8B5D14C07462034A07B2546AA
:1018F0002035002805D1287E002802D1A8780028AC
:1019000004D04F20CA4900010FF083FD07F009FD04
:101910001026022825D1C94839884089884220D11B
:10192000C249403908468A7D60388079002A03D050
:1019300080070FD40C200FE080070BD40620887599
:10194000BE484030407B002804D0002101220846D8
:1019500007F0FEFC2E760020E07326740120A073B1
:10196000F8BD0220F8E710B5B04C2078002804D16B
:1019700020464030007E002804D0AE48AC493E38B6
:101980000FF047FD002020710E20A0700F20E070A6
:10199000FF20A0710020C0432081A9480178A172D6
:1019A0008188A1814088E08101206071207010BD94
:1019B00010B59E4C2078002804D120464030007E8F
:1019C000002803D09A499F480FF023FD0821A01D4D
:1019D0000DF02BFA00202071012060712B21E170A5
:1019E000207010BD70B5914D04462878002804D1B0
:1019F00028464030007E002804D05D208C4900013C
:101A00000FF007FD8D4810222146303800F0C8FB4A
:101A10008A481022A118203800F0C2FB87483038CD
:101A20000DF02FFB8549102210392C46A81D00F01F
:101A3000B7FB002020710E20A0702A20E07001204A
:101A400060712070F3E6F8B5784C05462034A07B31
:101A500026462036002802D1307E002804D079485E
:101A60007349C6300FF0D5FCA978052912D0132987
:101A700010D014290ED015290CD01A290AD02929E2
:101A800008D03D2906D03B2904D06E486849CE30A5
:101A90000FF0BFFC28886C49884204D96548644926
:101AA000CF380FF0B6FC07F03CFC0C2128270228A9
:101AB00009D162482A884089904218D15B48403851
:101AC000827C002A01D0E17313E0A978C17401215E
:101AD000817437760020E07358484030407B0028FE
:101AE00007D000210122084607F032FC01E0022065
:101AF000E07327740120A073F8BD70B54B4C064607
:101B0000207825464035002802D1287E002804D0C0
:101B10004C484749B4300FF07CFC4448062231461B
:101B200059300FF0F7FA0120E87700212171607138
:101B30001721E17020707AE6F8B53C4F3B4C064621
:101B4000E0373D7A2078002804D120464030007EDE
:101B5000002804D0D320364980000FF05AFC30789A
:101B6000002806D0012804D03648314929380FF022
:101B700050FC082D3ED2B17972790802690009192A
:101B8000FF31104301318881B01C0FF024FB7178C4
:101B900000020843A9000919C031C86230782B4EF1
:101BA000002820D0012804D01B20214940010FF03B
:101BB00030FC2A4608320120F1699040014301209F
:101BC000A8400143F161387A401CC1B21F48397204
:101BD000143807F02CF800202071012060710B21CF
:101BE000E1702070F8BD2A4608320120F16990406A
:101BF0008143E4E70720EFE710B50C4C207800287C
:101C000004D120464030007E002804D00D48084909
:101C100038380FF0FEFB0FF00FFD0020207101207F
:101C200060710A21E170207010BD00009002002058
:101C3000081400001C05000086060000900100202A
:101C40002000002076030000FF0E0000900300201B
:101C500010B507F0DDFD002803D0EF49EF480FF085
:101C6000D8FB06F0C3FE06F0A6FC09F055F90028E3
:101C700004D0EA48E8490E300FF0CBFB06F007FF2E
:101C8000002804D0E548E44912300FF0C2FB0FF001
:101C9000D3FCFFF7D8F9E24800210171012141711D
:101CA0000222C2700170BFE770B5DD4D044628788E
:101CB000002804D128464030007E002804D0D748B0
:101CC000D549DB300FF0A5FB20781F2801D8601C18
:101CD00004D1D248D049DC300FF09BFB00202871A2
:101CE0002078611C06F089FF012068712021E970CD
:101CF00028709CE5F8B5CA4C054620782646403643
:101D000000280CD1307E002809D107F00AFB0028FA
:101D100002D1307C002807D0287800280ED0F5208A
:101D2000BD4980000FF075FB2878012806D00028F7
:101D300004D0BA48B849EE300FF06BFB0120607157
:101D400028780027B74D01280BD0002007F04AFD66
:101D500000284ED00C2020711B20E0700120207044
:101D6000F8BD0C20207106F0D0FE0028F4D0AD485C
:101D700002210A300CF0E2FF002806D00F2168890A
:101D800009020FF041FA698100E06F81012203210D
:101D9000A44806F0ABFA002804D09F49A2480FF0EF
:101DA00038FBD9E79F4807F02AF8688906F022FC3B
:101DB000002804D19C48984912380FF02AFB688902
:101DC000002106F01BFE002804D0974892490E38E7
:101DD0000FF01FFB924860308178008807F069FDA2
:101DE000002804D090488C490A380FF012FB277164
:101DF000B2E72771307C0028AED16889FFF704F97B
:101E0000AAE770B5864D04462878002804D12846F4
:101E10004030007E002804D077207F49C0000FF0BA
:101E2000F8FA20781F2801D8601C04D17E487A492E
:101E30004C380FF0EEFA002028712078611C06F073
:101E400002FF012068711A21E9702870EFE4F8B5EB
:101E5000734D044628780C262F464037002806D1BB
:101E6000387E002803D107F05CFA032804D16E48BD
:101E7000694983380FF0CDFA6079002801D0012834
:101E80002FD1A079002801D001282AD1A07B0028D9
:101E900005D0012803D0022801D0032821D1607B7E
:101EA00040071ED0618801208003814202D8228829
:101EB000824201D920790CE02079002804D0022840
:101EC00005D0032803D004E0202904D209E0A02A89
:101ED00001D2012805D12088884207D9207901281C
:101EE00004D0E5204C4980000FF093FA4C4821883B
:101EF00060300180217981706079002802D001284A
:101F000003D00CE0494A002105E0F87F002806D004
:101F1000434A59320121204606F0FBFD06460120C6
:101F20002E7168711821E9702870F8BD70B53C4CAD
:101F300005462078002804D120464030007E002845
:101F400004D039483449AE300FF063FA07F0E9F9AC
:101F50000C2102280ED133482A8843899A4219D18C
:101F60000246C032937D002B04D1007E0E2803D0A0
:101F70000F2801D0217103E0052090750020207109
:101F80000E20A0702E20E0702888E0800120607173
:101F900020704CE40220F2E770B5214C0546207811
:101FA000002804D120464030007E002804D01E487E
:101FB000194982300FF02DFA07F0B3F90C210228ED
:101FC0000ED118482A8843899A421FD10646C03646
:101FD000B27D002A04D1007E0E2803D00F2801D044
:101FE000217109E00E481022A91C1C380FF092F84C
:101FF0000420B075002020710E20A0702D20E0700C
:102000002888E08001206071207010E40220F2E74F
:1020100010B501780CE0000008140000EB0200008D
:10202000900200209001002005040000190000200B
:102030000B000FF0F4FA3C82823782825782828250
:10204000823A3D82828250538282828282824127FA
:10205000822B2F8282828233828282828282824596
:1020600082494D821F23826A5A5E6266826E82793D
:102070007D767282801CFFF78FFF5CE0801CFFF78B
:1020800055FF58E0801CFFF7E2FE54E0801CFFF78C
:10209000B8FE50E0801CFFF72DFE4CE0801CFFF7DF
:1020A00003FE48E0FFF7D4FD45E0FFF7A5FD42E061
:1020B000801CFFF741FD3EE0801CFFF71EFD3AE06B
:1020C000801CFFF7C0FC36E0801CFFF78BFC32E081
:1020D000FFF76EFC2FE0FFF746FC2CE0801CFFF7BB
:1020E00001FC28E0FFF7E2FB25E0801CFFF7ACFBDA
:1020F00021E0801CFFF77FFB1DE0801CFFF744FB05
:1021000019E0801CFFF712FB15E0801CFFF7EFFAC7
:1021100011E0801CFFF7A2FA0DE0801CFFF76DFABA
:1021200009E0FFF748FA06E0801CFFF719FA02E021
:10213000801CFFF7F8F9012076E5002074E510B562
:102140001E491F480FF065F96EE570B51D4D01245D
:10215000EA1DF9321146403103000FF060FA051B09
:102160001E1E041B1E0001220021164806F0BEF8A8
:10217000002809D113480021C0308175C175C038CD
:1021800007F03CFD002804D0D7200C49C0000FF018
:1021900040F957E40C74556554E408490A48F6E7D9
:1021A00030B5134606E0CC18203CD51AE47F5B1E00
:1021B0004455DBB2002BF6D130BD000008140000FE
:1021C000E205000090010020EB06000010B50300BE
:1021D0000FF025FA070805080B0B0E0E110003F08F
:1021E000DCFD10BD01F0EEFD10BD0AF05EFC10BD7F
:1021F0000CF0B3FA10BDFF20FDA177300FF009F904
:1022000010BD7FB5FE4AFF4D516892680192009162
:102210002870FD480DF03FF80024FC480DF042F80E
:10222000641CE4B2072CF8D3F74903208031400244
:102230000AF08EFC002803D0EDA18D200FF0E9F804
:102240001E220221F24809F0B9FAF1481E220321A8
:10225000103009F0B4FEEE4807223421743009F042
:1022600007FAEB484C2128300EF0B3FFE8496A46E4
:10227000743108464C384164FF317B31816401215F
:102280001172039001F04CFF02A80AF07FFF0028B2
:1022900003D0D7A1A1200FF0BCF802222421DD48F1
:1022A00009F0E6F9DB4802222C214C3009F0E0F974
:1022B000D849062060390CF03BFB002803D0CCA1A4
:1022C000AE200FF0A6F803F055FD02F0F0FF04F089
:1022D000BEFA6B46D04A0821D0A001F081FE00284A
:1022E00003D0C3A1B5200FF094F8012004F05DFDE8
:1022F000002803D0BEA1B7200FF08BF87921C900C8
:10230000C9480EF066FFC849BD4A0020135C0C188E
:10231000401CC0B2E3700428F8D3002068606870E5
:102320007FBD70B5C14E0546706A94B00C46401C26
:1023300004D1B06AC0430004000C0BD0306AC0075F
:10234000C00F2870706A0EF057FFB06A2071000A43
:10235000607113E02B206946087009A9684609F0EE
:10236000CDF9002803D0A2A1DA200FF052F8012005
:10237000287006220AA920460EF0CCFE28780028F4
:1023800015D06079C0210843607117206946087034
:1023900000A80622214602300EF0BCFE09A96846BC
:1023A00009F0ACF9002815D091A1EF2010E03220FF
:1023B0006946087000A80622214602300EF0AAFEE7
:1023C00009A9684609F09AF9002803D088A1FB20E2
:1023D0000FF01FF814B070BDF0B5944C064620689D
:1023E00095B00D463746401C0837002808D1606874
:1023F000401C05D1A068401C02D1E068401C11D0EF
:10240000206831460EF0F8FE6068311D0EF0F4FED3
:10241000A06839460EF0F0FEE06831460C310EF04F
:10242000EBFE25E02B206946087009A9684609F0F3
:1024300065F9002804D0FF206DA11B300EF0E9FFE4
:1024400008220AA930460EF065FE2B206946087066
:1024500009A9684609F052F9002804D0FF2064A1B8
:1024600022300EF0D6FF08220AA938460EF052FE9E
:1024700020692E46401C0836002808D16069401C9F
:1024800005D1A069401C02D1E069401C12D020692E
:1024900029460EF0B1FE6069291D0EF0ADFEA0695F
:1024A00031460EF0A9FEE06929460C310EF0A4FE7B
:1024B00015B0F0BD2B246846047009A909F01EF977
:1024C000002804D0FF204AA140300EF0A2FF0822CD
:1024D00009AF0AA928460EF01DFE6846047009A936
:1024E00009F00CF9002804D0FF2041A147300EF07C
:1024F00090FF0822391D30460EF00CFED8E710B5CB
:1025000000200CF057FF01200CF054FF02200CF0CB
:1025100051FF03200CF04EFF04200CF04BFF052070
:102520000CF048FF10BD10B53F4CA0780A2804D32A
:10253000FF202FA190300EF06CFF207860214843DF
:1025400000190830002101704178E722C908C9004C
:10255000C91C114041702B4A0121517010BD70B54A
:10256000284C607800280ED02F4800250178491C9F
:10257000C9B201700A2900D105708178491C8170A7
:102580000CF091FF657070BD70B51E4C054660681B
:10259000002804D0FF2016A1B9300EF03AFF656084
:1025A00070BD70B5174E204DFFF7BDFF7168044632
:1025B000002907D06022FDF707FEFFF7D0FF0020BB
:1025C0007060F1E72879002876D012484C3009F085
:1025D0005FF86060002804D1FF2005A1D7300EF01D
:1025E00018FF606809F0B2F8002831D020461FE0DB
:1025F0007372635C686F73745F636F72652E6300E0
:102600005416010028000020B0030020CD21000056
:10261000300A002060100020341200006E5246354F
:102620003138323200000000380C002080000010E9
:1026300000F0EAFE6078010707D5C008C000401C22
:1026400060702879401E287127E0C94861682AE037
:10265000C748616809F025F8687900282CD0C4487B
:102660004C3809F015F86060002804D1FF20C149FA
:10267000FA300EF0CEFE606809F06CF8002816D033
:10268000204603F0C9FB6078010709D5C008C000E7
:10269000801C60706879401E6871FFF760FF83E7F7
:1026A000B34861684C3808F0FCFF7DE704E0B048AF
:1026B00061684C3808F0F5FF70BD70B50D4600211B
:1026C0001446198001280BD002280FD0032819D0F6
:1026D000042811D0A749A8480EF09BFE032070BD26
:1026E0001A462146284603F063FB70BD1A46214670
:1026F000284601F00DF970BD1A462146284603F020
:10270000F7FF70BD1A462146284602F0F0FD70BD65
:102710000146974810B54C3808F0C3FF97494879EF
:10272000401CC0B24871012803D19548007800F0E0
:102730000FFB10BDF8B50546072040070F460A18E5
:10274000012189038A4209D2002D02D0281888422B
:1027500004D2E81C80088000A84201D01020F8BDF7
:1027600086488178002911D039880091417860220B
:1027700051430C18083420783B460007000F002214
:102780002146FFF79AFF060004D015E000203880AC
:102790000520F8BD002D13D039880098814201D959
:1027A0000C260DE020783B460007000F2A46214604
:1027B000FFF783FF060005D00C2E01D000203880E3
:1027C0003046F8BD6D4D6878401CC0B268700A286C
:1027D00001D100206870A878401EA8706178480771
:1027E000400F022810D00128EAD16148616808F042
:1027F00058FF2879401CC0B228710128E0D16048F8
:10280000007800F0A5FADBE7C806D9D46068FFF7C6
:102810007FFFD5E707214907012241189203914222
:1028200001D3102070470721017000207047052256
:1028300010B5920390420ED301239B04C21A514B50
:102840009A4208D3504B984205D2072252078A1861
:10285000DB139A4201D3102010BD0CF082F810BD9A
:10286000052310B59B0399420ED301239B04454CCD
:10287000CB1AA34208D3444B994205D2E302012468
:10288000D318A403A34201D3102010BD022803D003
:10289000102801D0092010BD0CF082F80028FAD0D1
:1028A000052010BD70B505239B03984212D3012368
:1028B0009B04344CC31AA3420CD3334B984209D225
:1028C000E4020D19DB139D4204D2002A04D014192E
:1028D0009C4201D3102070BD0CF09EF80028FAD065
:1028E000072070BD10B504460720400701212018BD
:1028F000890394B0884202D3102014B010BD01F0B7
:102900005BFC002801D01120F7E70F2008A908730D
:1029100069460BA808F0F2FE0028EED16846007A5E
:10292000207068464089608068468089A0800020C9
:10293000E3E710B594B0044601F03EFC002801D056
:102940001120DAE7002C01D00720D6E739216846AC
:1029500001700021817009A908F0D0FE002804D080
:1029600005480449E7300EF054FD0020C5E700009B
:10297000AC100020F02500002B020000380C0020D5
:10298000280000200000FC1F0040002010B5503837
:1029900003000EF044FE0604090D1219202405C997
:1029A0001146FFF7C7FE10BD0868FFF733FF10BDE3
:1029B00005C91146FFF73BFF10BD4B6808788A68D0
:1029C0001946FFF74DFF10BD4B688A680868194625
:1029D000FFF768FF10BD0868FFF784FF10BD0120F6
:1029E00010BD10B55C2801D0012010BD0878FFF79C
:1029F000A0FF10BD10B5EFF31080C407E40F72B64E
:102A0000AE484178491C41704078012801D10CF052
:102A10006FFD002C00D162B610BD70B5A74CA07838
:102A200000280AD10125A570FFF7E4FF0CF068FD2E
:102A3000002804D000200CF03BFD002070BDA04811
:102A400025714560F9E770B5EFF31080C507ED0F0C
:102A500072B69A4C6078002803D19AA183200EF0B8
:102A6000D8FC6078401E60706078002801D10CF0BE
:102A700043FD002D00D162B670BD10B58F4881783E
:102A8000002904D0002101718170FFF7DCFF0020D4
:102A900010BD10B504460CF033FD88498978084014
:102AA00000D001202060002010BD10B50CF02EFDDC
:102AB000002805D08148012181704178491C41706E
:102AC00010BDF8B5834CA0680026012802D1A6608D
:102AD0000CF0EEFC6068012800D1666020680125DA
:102AE000764F012813D126603879002803D00020C2
:102AF0000CF0DEFC3E713878002808D07648C068BB
:102B0000C00704D07348C03885630006056120699A
:102B1000012812D1266100F095F801208007456157
:102B2000FFF768FF6C48C068C00705D06948C03827
:102B300085630006056100E03D70E068012810D162
:102B400000F080F800F07EF800F07CF8E6603E705F
:102B5000FFF779FF0CF039F8002802D05D48C03843
:102B6000C563F8BDF8B5014600273C465348022529
:102B700010260B000EF053FD0705080B0F1215175A
:102B80001F000124C5701BE00124042101E0012481
:102B90000821C17014E00124C67011E00124202135
:102BA000F7E701270CE0FFF725FF0CF0A9FC002850
:102BB000FBD0022704E0FF2042A13E300EF029FCAA
:102BC0000CF0AAFC002809D00CF0ACFCB84205D1EE
:102BD00038460CF0AAFC0028FAD020E00120820739
:102BE000D0603C4900234B603C4B9F61344F7D607B
:102BF00090603B4802690369D243D206D217521C47
:102C00003343036100E020BF4B68002BFBD0002A58
:102C100002D10269B2430261BD6000204860002C0D
:102C200001D000F016F8F8BD10B5244880780028CF
:102C300001D10CF061FC0120810788612049801ED0
:102C4000886010BD50210846491E89B20028FAD17B
:102C50007047F8B500271A49192088601D4C3D4679
:102C60002760E76027610CF04BFC00280BD10CF0CB
:102C70004DFC002802D10127FFF7BCFE0CF040FC00
:102C80000028FBD025600126B0070661E068002817
:102C9000FCD0E560002F01D0FFF7D5FE08491920D0
:102CA000486006480D49C0788863FFF7CBFF0124D0
:102CB000A407A661FFF7C6FF6661F8BD30000020DB
:102CC000000300407372635C736F635F636C6F63D8
:102CD0006B2E63000001004000040040000500402E
:102CE00000ED00E001203E49400608603D490860D3
:102CF0003D490A68FF231B029A4383121A430A6064
:102D0000374980390860704710B5024604203749BA
:102D100004E0C3005B181B79002B0AD00346401E59
:102D2000C0B2002BF5D132A143200EF072FBFF2080
:102D300010BDC300CA50002259184A718A7101227D
:102D40000A7110BD294A0021C00080180171704726
:102D500010B50446042803D325A152200EF059FBD8
:102D60002248E1000C182079012803D020A153202B
:102D70000EF04FFB6079A179401CC0B2814200D0B7
:102D800060710120164940068031086010BD70B5A1
:102D900015480068800B022803D015A169200EF0A9
:102DA00038FB124D184C03262078C10048190279CF
:102DB000012A07D1427983799A4203D042798271FC
:102DC000685880472078401CC0B22070042801D386
:102DD000002020703046761EF6B20028E4D170BD87
:102DE00080E100E080E200E018E400E0081100204B
:102DF0007372635C736F635F7369676E616C6C6938
:102E00006E672E6300000000350000208107C90EA8
:102E1000002808DA0007000F083880082C4A8000D4
:102E20008018C06904E080082A4A80008018006881
:102E3000C8408009704710B50D20FFF7E7FFC4B206
:102E40000420C043FFF7E2FFC0B2844203D022A1B6
:102E50001A200EF0DEFA10BD0121244A480310604A
:102E6000234B00221A60234A5160234A1060234AF0
:102E700011601E4980390860704701211B4A4803D0
:102E800010601E4A51601A4A002111601A490860F8
:102E9000704710B516490868012804D00EA15620C5
:102EA0000EF0B7FA10BD164880680022C0B20A6062
:102EB0000BF0E1FF10BD10B50D4801680029FCD0F2
:102EC000FFF7E7FF01200C494003086010BD000038
:102ED00000ED00E000E400E07372635C736F635F19
:102EE00068616C5F726E672E6300000080E100E035
:102EF00000D1004000D3004080E200E000D000405C
:102F000000D5004070B5FFF7EDFE7548FFF7FCFEF9
:102F1000744908707448FFF7F7FE7249734B4870A4
:102F20000120C102196002061A60714B1C6824025C
:102F3000240A1C606F4C256800232D0A2D02256091
:102F40006D4C6060A0606D4D2B606B60AB606C4B36
:102F500019601A606B4B19601A60206070BD10B563
:102F6000604C2078FFF7EEFE6078FFF7EBFE012063
:102F70005E49C2020A6003060B605F4948608860D0
:102F80005E4900200860486088605D480260036018
:102F900010BD01205A49C0020860704710B50446B0
:102FA000012803D958A15B200EF033FA5349A00041
:102FB000401810BD10B50446022803D952A16D2057
:102FC0000EF027FA214610310120884055498860CB
:102FD00055498860554A0020A1008A181060474A68
:102FE0008918086010BDF7B504461746022803D9B2
:102FF00045A179200EF00DFA404AA1008E184B4AE7
:1030000001208D181034A0400446012F0FD0002F4E
:1030100003D03DA18C200EF0FCF9424884600020D2
:103020003060414844600198286003B0F0BD002042
:1030300030603C4844603C4844600198286003B0DC
:10304000F0BD3B484068704770B52C4D286800269D
:10305000344C012809D1A068C00306D50120000422
:10306000A0602E6000200CF0C9FE6868012809D11C
:10307000A068800306D501204004A0606E60012096
:103080000CF0BCFEA86801280AD1A068400307D54F
:1030900001208004A060AE6012480078FFF758FE5F
:1030A00070BD0120234900060860704701201449C3
:1030B00000060860704701201E49400508607047FF
:1030C00001200F4940050860704710B50548407859
:1030D000FFF73EFE10BD10B50CF08FFF10BD0000D5
:1030E00013050100360000205DFF000080E100E0D4
:1030F00008E400E018E400E000B0004040B1004007
:1031000080E200E000E100E07372635C72656D5F75
:1031100068616C5F6576656E745F74696D65722E4B
:103120006300000000B3004040B3004040B50040E1
:1031300000B5004000E200E070B5FF4D044629688C
:103140000300A0310EF06BFA08053E08080E1D2C96
:103150003242FAA1D42033E0887F012832D0F7A18F
:10316000DA202DE001F061FE05282BD001F05DFE94
:10317000062827D001F059FE072823D0EFA1DD2033
:103180001EE001F052FE03281CD001F04EFE06287E
:1031900018D001F04AFE072814D0E8A1E2200FE081
:1031A000887F05280ED0E5A1E72009E001F03DFE6B
:1031B000052807D001F039FE062803D0DFA1EA2058
:1031C0000EF027F92868A030847770BDDBA1EE20CF
:1031D000F6E7D949C1220968525CD206920F05D19F
:1031E000A0318A8A824201D1887D704700207047D1
:1031F00070B50446112020700021CF4D6170296800
:10320000C0318978002908D003290ED0042910D0B4
:10321000FF20CAA118300EF0FCF820780009012820
:1032200002D92868807E607070BD0007000F2030D2
:1032300002E00007000F30302070EEE730B5038861
:10324000C249C34C8B4202D09A1FA2421ED242886E
:103250008A4202D0951FA54218D2934216D883887D
:103260007D24E400A34211D8C088884205D0B84D1F
:1032700004460A3C2D1FAC4208D2884208D08A423C
:1032800006D05B1C5A43C000824201DD072030BDDE
:10329000002030BDFFB50022099B002802D09942D2
:1032A00005DC5CE0002902D1002004B0F0BD09205B
:1032B000FBE7845C002C12D085186F780D2F4CD062
:1032C00010DC3B000EF0ABF90A421B2A2A303032E8
:1032D000323A3A42835C002B3FD1521CD2B28A422E
:1032E000F8DBE1E7122F31D004DC0E2F35D00F2FA1
:1032F0002CD132E0142F11D0152F27D116E0022C3B
:10330000D5D1AB78039C072B237001D25B0701D486
:103310000A20CAE7029B01241B7814E0E343DB0781
:1033200008E0012C08D011E00620BEE70F25230796
:103330002D075B19002BF4D03046B6E7029B1B78B3
:103340009C070AD402242343029C2370835C521CF2
:103350009A18D2B28A4204DDA9E70B20A5E7192604
:1033600076028A42A5DB9FE705E00278401C002A2E
:1033700001D0002070470A46491E89B2002AF4D1C4
:103380000120704730B56C4C0021206887B0C943DC
:10339000A03081820025857506200CF00BF80520F1
:1033A0000CF008F802200CF005F80120FFF7C4FE2D
:1033B00020686946A030C57701200870684609F08A
:1033C00006FF07B030BD10B55B4A94B01268A0325A
:1033D000927F042A0AD028236A461370508013294A
:1033E00006D03B2904D0072014B010BD0820FBE70D
:1033F0001171104609A908F081F9040002D10420D6
:10340000FFF79AFE2046EFE7F0B59BB0040003D12A
:103410004AA150480DF0FDFF62202070606800272F
:1034200001780826491F444D0B000EF0F8F80F09EB
:103430006DCBFA6D6FF8F7AB6D6D6D6DF6F56D00D8
:103440002868A030807F032804D097203BA180000B
:103450000DF0DFFF00200BF0ADFF6078102330434C
:10346000607028680146C0314A781A434A70616822
:103470008A783C2A45D08E8801460122A0318A757F
:103480006268D2890A836268128A4A836268528AB1
:103490008A838E8261680622C979C173616810309F
:1034A00008310DF037FE0520FFF746FE2868C221DF
:1034B0000F54017FFB2211400177B02109584A7A4D
:1034C000920892004A72C782304602F05FFC0028E0
:1034D00004D0204819A122300DF09BFF304601F0A6
:1034E000F4FE002804D04F2014A1C0000DF091FF7D
:1034F000304603F0B3F9002806D016480FA1273054
:1035000023E10120FFF718FE1BB0F0BD878801F012
:103510008CFC052822D001F088FC06281ED001F082
:1035200084FC07281AD001F080FC042816D0094832
:1035300002A1333010E00000380000207372635C99
:103540006761705F636F72652E630000FFFF0000AC
:103550007B0C0000530200000DF05BFF60783043ED
:1035600060702868C030417831434170FFF70AFF2E
:10357000384602F010FC384601F0ADFE384603F044
:1035800091F9C1E701F051FC05280FD001F04DFC85
:1035900006280BD001F049FC072807D001F045FCB4
:1035A000042803D0FD49FE480DF033FF60688079A0
:1035B00002F0A8FC0028A7D06178314361706168EF
:1035C000C880A1E701F031FC052810D001F02DFCE6
:1035D00006280CD001F029FC072808D001F025FCB2
:1035E000042804D05520ED49C0000DF012FF60788A
:1035F000304360706068C1882868A03001836168CA
:103600000989418361684989818302200BF0D2FED8
:103610002868A030C77777E70BE166E16FE070E0DC
:10362000FFE701F002FC052810D001F0FEFB0628A0
:103630000CD001F0FAFB072808D001F0F6FB0428B3
:1036400004D0D748D54922300DF0E3FE2868BE21CA
:10365000095C042995D0807D40063CD56068022134
:103660000C30FFF781FE002835D060680821001D6E
:10367000FFF77AFE00282ED02868014680310A6BB9
:10368000527A920708D1C222125C002A08D1C28A5B
:10369000D30505D5D20703D1C38A40229343C38201
:1036A000C38A80229343C3822D236A461370A030BD
:1036B000808A5080CB698A694869096A01AC0DC467
:1036C000049109A9684608F019F80028A3D0B44865
:1036D000B249443039E062682868A42192890A52CC
:1036E00061680822091DA6300DF014FD10A80674AB
:1036F0002868A630159014A809F069FD04E7012197
:10370000817101F092FB052810D001F08EFB062894
:103710000CD001F08AFB072808D001F086FB0428B2
:1037200004D09F489D4968300DF073FE2868BE2183
:10373000095C0429E2D061688A79002A02D089787C
:10374000002905D096489549CE300DF062FEDBE6A3
:10375000617831436170B0210958497A8907890F2E
:1037600001294DD1817D09064AD4017F490701D540
:10377000042100E00321C03081702B2069460870CD
:1037800009A9684607F0BAFF002804D08448834995
:1037900084300DF03EFE69462868098D01830E22B3
:1037A00010A90A747F491591027A0A7002460932FB
:1037B0004A600F320A61521D8A601032CA60133AA1
:1037C0004A618A328A61921CCA61423A0A621032A4
:1037D0004A6210328A62403A8A63D21FCA63521C1C
:1037E00054300A64486414A80AF07CFE022814D0FD
:1037F000002812D06A486949AC300DF00AFE0CE08E
:10380000817D4906017F490701D5042100E003219C
:10381000C030817006200BF0CDFD2868C18A0A06F1
:1038200002D440229143C1828AB280218A43C2825B
:103830006AE62868A030807F032804D0584857499A
:10384000DA300DF0E6FD00200BF0B4FD60781023B7
:103850003043607028680146C0314A781A434A7084
:1038600061688A783C2A00D14BE68E8801460122A5
:10387000A0318A756268D2890A836268128A4A8393
:103880006268528A8A838E8261680622C979C1730E
:103890006168103008310DF03DFC0520FFF74CFC4D
:1038A0002868C2210F54017FFB2211400177C78293
:1038B000304602F06BFA002804D0E320374980003C
:1038C0000DF0A7FD304601F000FD002804D034487B
:1038D0003249F6300DF09DFD304602F0BFFF002862
:1038E000A6D02F482D49F8302FE76078304360701C
:1038F0000AE600290BD088802B480068A030028B94
:10390000CA80028B0A81428B4A81808B88817047F2
:10391000F7B5064600780C460027010982B03D46FF
:10392000012974D0204800680090C03002296FD06F
:10393000062904D009296CD018491C48D5E17168C2
:103940000A78521F13000DF06AFE0F09BA5BBABA6B
:103950003A656552BABABABA6F79BA008A783C2A1F
:1039600026D010271625002C7ED08888A08070686D
:10397000A21DC08920827068C089E0817068008AB9
:1039800060827068408AA082716808460831C079F8
:1039900001F050FA002060737FE000003C35000029
:1039A0009902000088110020380000201205000054
:1039B00019270725002CD7D00021A17170E011270D
:1039C0000E25002CD0D089880091A1807168F72243
:1039D00089796173417811404170009802F0DCF9F7
:1039E000009801F07CFC009802F065FFABE1012734
:1039F0000725002CB8D08888A080706880791BE0EB
:103A0000888812270E252146FFF773FF9BE159E0B6
:103A100096E171E018270825002CA5D08888A080A1
:103A2000A01DFFF7E5FB8EE11A270725002C9BD090
:103A30004888A08070680079A07184E18A783C2A67
:103A400032D010271625002C8ED08888A080706870
:103A5000C08920827068C089E0817068008A6082B5
:103A60007068408AA08200E040E17168607B497D17
:103A70004008C9074000C90F084360737168C00758
:103A8000497DC00F49084900084360737168A21D51
:103A900008460831C07901F0CDF9FB480068C03014
:103AA0004178EF22114031E119270725002C89D0F8
:103AB0000021A1714278EF210A40427043E1F349AD
:103AC000F34812E1307A012803D0F148EF4917306A
:103AD0000BE112270E2570892146FFF70AFF002C03
:103AE00088D070784007400F03288FD1E6480068DF
:103AF000C0304178FB22D5E7E3490968A031002CAA
:103B000001D08A8AA280327A921E13000DF087FDBE
:103B1000073B4651EFDB6B05EF0013270C25002C0C
:103B200085D0F16889788907890F0129217A27D002
:103B3000490849002172FD221140F268E32392787E
:103B40005207D20F5200114321720022E280194025
:103B5000F3681B785B07DB0E19432172DF231940E2
:103B6000F3685B78DB079B0E194321726272F16880
:103B70000122C978A17201781143F722114016E0A1
:103B800001221143D6E715270C25002C8FD0F068B1
:103B900006220068A11D0CF02BFDD4E01627072596
:103BA000002C84D0317BA1710178082219E00170CA
:103BB000C9E014271225002C92D000980099C07BF0
:103BC000A21D103101F036F9B089E081207C01217D
:103BD0000843F92108402074AB480068C0300178E0
:103BE00002221143E3E717273825002C7ED032212B
:103BF000A01D0DF0ECFA0020A071207A03210843EB
:103C0000A14A20721168FB260B7F30405B07DB0F57
:103C10009B0018432072B0204058407A800751D052
:103C2000A07A8A7D4008D2074000D20F1043FD22BF
:103C30001040A0728B7D30409B07DB0F9B00184328
:103C400008231843EF231840A0728A7DE07AD20639
:103C5000D20F304092001043E072F72210408A7D6C
:103C6000D206D20FD2001043E072088BA08120460A
:103C7000102264310E300DF04DFA8349A07F09689F
:103C8000C0078A7EC00F52001043A0770A7F400809
:103C900052074000D20F1043A077084644304DC869
:103CA00020344DC4303C3D20405C224630323E3111
:103CB00001F0C0F8744800688030006B417A8908D0
:103CC000890041723FE0327B022A14D01727382541
:103CD000002C2ED0012A1BD0032A1BD0042A1CD072
:103CE000052A1AD06A486949B13001E021E023E091
:103CF0000DF08FFB27E019270725002C19D0898AA2
:103D0000A1800121A17141784908490041701AE060
:103D1000012000E00220A07106E0707B0007000F88
:103D20008030A071052A02D00020E0710BE0012054
:103D3000FBE7049805800CE055485449BB30D4E7B4
:103D4000317A002908D00498002C058001D0278002
:103D50006580002005B0F0BD19270725002CE8D0AC
:103D60000021C943A1800021A1714178FD2299E67B
:103D700000B595B001F059F8022803D001F055F8CC
:103D8000032818D11B2108A80173002181736946FB
:103D90000BA807F0B3FC002804D1684640781B2824
:103DA00002D0032015B000BD00200BF003FB6846D5
:103DB0008078002801D00820F4E70120FFF7BCF943
:103DC0000020EFE770B500252F4C002806D0022810
:103DD00016D02E492F480DF01CFB70BDFFF7C8FF11
:103DE0000028FAD1FEF79FFB222101700572FEF731
:103DF000B6FB2068C030417802221143417070BD8B
:103E0000FEF791FB12210170012101722168A0319E
:103E10008A8A4281CD77FEF7A2FB2068C0304178C4
:103E20000422EAE770B50D46040004D11948174989
:103E300008300DF0EEFA2078012805D01548134916
:103E400026300DF0E6FA70BDA18813480E4E81426F
:103E500009D1E288824206D130681321A030808ADD
:103E6000FFF7B1FA70BD814202D1E088002815D079
:103E700012202870687808210843687007CC08353C
:103E800007C5002110E00000380000203C3500008C
:103E90003E04000049050000FFFF000078220021D9
:103EA00002200BF00AFA02213068A030C17770BD01
:103EB000F7480068C0308078704738B5F44C054644
:103EC000017820680B00A0300DF0A9FB09863506AB
:103ED000067113365A758600807F052803D0ED4998
:103EE000ED480DF096FA20680422017F1143017716
:103EF0005DE0A98800291ED0808AE84988421AD04E
:103F0000A868002804D1E448E2490F300DF081FA96
:103F1000A86806220A38A86000902068AB88A03004
:103F2000808A042101F068FE002804D0DA48D949CB
:103F300014300DF06EFA38BD2979807F02290BD03C
:103F40000428F8D0284600F086FF20681321A0300E
:103F5000808AFFF738FA38BD062804D0CE48CD490C
:103F60001E300DF056FA284600F075FF2068012239
:103F7000C0304178114341700520FFF7DDF838BDAE
:103F800000F053FF052808D000F04FFF042804D0AC
:103F9000C148C0493C300DF03CFA0ECDC048036129
:103FA000C260816092210170FEF7EEFA38BD2846AA
:103FB00000F051FF38BD00F038FF052808D000F0B0
:103FC00034FF062804D0B448B2494D300DF021FA30
:103FD0000720FFF7B1F8EAE7AF48AE495630A8E747
:103FE000FFB593B00124684603218470C9021D46C1
:103FF000018008F0F4FD00226946012002F086FEEF
:10400000064608F0F0FD002E5CD16846152184704C
:104010004902018000271C2101A808970DF0D9F85A
:1040200001200146103108A801700020014608A8AF
:1040300041708178F9200140891C214308A88170D2
:104040006846017902263143017114998185C7853B
:104050001F21018608A80A9013980D9068460990C0
:1040600008F0BDFD0EAA09A901A802F033FC07461D
:1040700008F0B9FD002F02D0384617B0F0BD844FCC
:1040800068463968008F4880684684708549018099
:1040900008A88078F9210840801C4108490008A838
:1040A000817068468685068615A80D9008F097FDF4
:1040B0000EAA09A901A802F00DFC064608F093FD1E
:1040C000002E01D03046D8E768463968008F8880D6
:1040D000744968468470C91C0180298810A8018031
:1040E00069884180A9888180E988C1800821684663
:1040F0008185018610A80D9008F071FD0EAA09A90E
:1041000001A802F0E7FB044608F06DFD002C01D089
:104110002046B2E768463968008FC8800020ACE7C7
:1041200070B504465E48C421A8300DF052F85C48D2
:10413000574DA83000212860C943A0308182002655
:1041400086750120FEF7F8FF2868BF210E5401464E
:1041500009310830FEF7E5F8296808462D311D3091
:10416000FEF73AF9002C26D02868B0210C501E2109
:10417000A181217A8F22114010312172014618311C
:10418000216109396161491CA1610839E161491C5A
:1041900021629B316162873921601031616013397E
:1041A000E162091F21637E3121643039616310317E
:1041B0008430A163E06370BD35480068A030807F23
:1041C000042801D0002070470120704730B5044614
:1041D0000520800395B0844208D301208004324931
:1041E000201A884202D33148844202D3102015B0ED
:1041F00030BD27490868A030807F012801D0082001
:10420000F5E7FFF7D9FF002801D01120EFE70D688F
:10421000012028722278002A08D025491720012A77
:104220000AD0022A1FD0032A25D121E03220694674
:1042300008700020287205E0A2799209032A1AD199
:104240006946087000A80622611C02300CF062FF6B
:1042500028460622611C09300CF05CFF09A968465B
:1042600007F04CFAC3E7A2799209012A03D1E7E7E4
:10427000A2799209E4D00846B9E70721490701224B
:1042800010B541189203914214D3102010BD0000C4
:10429000380000203C35000086050000FFFF0000CC
:1042A00028110020012A00000000FC1F004000200F
:1042B00002320000F949024609680B7A09311846B2
:1042C00000F0B8FD0020E1E7FFB599B005460020F9
:1042D00069460871087208A9087408751E461446D4
:1042E0000520012180038904ED4AEE4B002D06D004
:1042F00085420DD36F1A97420AD39D4208D2002CF3
:1043000009D0844204D3601A904201D39C4202D364
:1043100010201DB0F0BD2846204318D01F270CAB3D
:1043200001AA009728461A99FEF7B4FF0028F0D199
:104330000DAB02AA314620460097FEF7ABFF0028DE
:10434000E7D16846007AC10703D00A20E1E70720D9
:10435000DFE7800705D568460079800701D50B2087
:10436000D7E7FFF729FF002801D01120D1E703AFDD
:10437000002D0FD01A20694608731A9888732946B1
:10438000F81C1A9A0CF0C6FE0EA903A807F0B6F99D
:104390000028BED1002C0ED0202168460173867300
:1043A00032462146F81C0CF0B5FE0EA903A807F012
:1043B000A5F90028ADD1B94908A80968007C0870A2
:1043C0000020A6E7F0B5044695B000201490052023
:1043D0008003844275D301208004B14F201AB84273
:1043E0006FD3B04884426CD2207801280CD10521CB
:1043F00060688903884264D301218904411AB94263
:104400005FD3A84988425CD200F00FFD022809D092
:1044100000F00BFD032805D0A048BE210068095C10
:10442000012902D0082015B0F0BDC121095CCA06DF
:10443000920F03D18A0701D4490701D51120F2E771
:104440002178012915D0228A974D1346203BAB4293
:1044500072D2022901D0032901D1A02A6CD30129EB
:1044600007D00278D20704D0628A002A64D0B42A26
:1044700062D8002906D0012908D0022904D00329D6
:104480005AD110E0002512E0022510E061680125F4
:10449000097800290BD0012907D0022905D003296A
:1044A00003D08248BFE7032501E001211491217A5E
:1044B000002907D0012907D0022907D003293BD1C1
:1044C00006E037E0002604E0012602E0022600E0D4
:1044D0000326002D01D0022D3FD1002E3DD0E168F2
:1044E000002929D00A79002A27D0082A24D80B7B52
:1044F0009C46082B20D8002A0CD005230A689B0371
:104500009A4217D301239B04D31ABB4212D3654BA3
:104510009A420FD26246002A13D08968052292037C
:10452000914207D3012292048A1ABA4202D35D4A09
:10453000914206D3102076E75EE00B7B002B5BD028
:10454000D5E70178890702D05848401E6BE7022D55
:1045500003D1022E50D0032E4ED0182269460A7085
:10456000228A4A80228A8A808D71007A0127002857
:1045700002D001287ED102E00020C87100E0CF7196
:1045800014980872217802A80130012922D006214E
:104590000CF01DFE07216846C173067409A907F0D7
:1045A000ADF80028C7D10A206946087009A96846F5
:1045B00007F0A4F80028BED13A206946087009A97E
:1045C000684607F09BF80028B5D1002D08D0022DD1
:1045D00006D04AE061680622491C0CF09BFDD9E731
:1045E000002E42D0002623E00168B0000958097867
:1045F000002903D0012905D0072014E700216A46CD
:10460000917001E069468F70E168062209680958D7
:1046100000A8491C03300CF07DFD0B206946087092
:1046200009A9684607F06AF8002884D1761CF6B21A
:10463000E0680179B142D7D8002612E08068B10065
:10464000415800A8102202300CF064FD3B2069465E
:10465000087009A9684607F051F80028CDD1761CEA
:10466000F6B2E068017BB142E8D81B2168460170D0
:10467000877000E02DE009A907F040F80028BCD1C0
:1046800008A840791B2824D1002D15D0012D0FD06A
:10469000022D20D0032D12D11DE000003800002093
:1046A0000000FC1F00400020E13F0000023200003B
:1046B0000320FEF741FD10E00320FEF73DFD608A78
:1046C00000280AD08200002108460AF0F6FD0028E2
:1046D00003D00320A7E60220EFE70020A3E670B591
:1046E00086B00C0006460CD00520800384424BD3D4
:1046F00001208004F849201A884245D3F7488442B3
:1047000042D2F74DBF212868095C022903D0C0308E
:104710004078400702D5112006B070BD002C04D0AF
:104720002046FEF78BFD0028F6D13046FEF751FDFE
:10473000012803D0022823D0EA48EDE721001BD14D
:10474000082069468882286801ABC08805AA002134
:1047500002F097FE0028DFD16846808A082801D041
:104760000320D9E7684681888181C188C181018998
:1047700001824189418203A9304601F094FBCBE7D5
:10478000002C01D00620C7E71020C5E770B50C4605
:104790000546FEF71EFD012803D0022801D0D148AE
:1047A00070BD21462846FEF70EFE70BD00B50146DD
:1047B000143095B0192801D2880707D008461E305A
:1047C00004D00A3002D0072015B000BDFFF7F4FC7A
:1047D000002801D01120F7E7C1483122006841705C
:1047E00068460270817009A906F088FFECE701B500
:1047F00082B0022069460880B94802AB00686A4668
:104800008088002102F0C5FC69460988022900D091
:1048100003200EBD38B502216A46118007214907E1
:10482000012241189203914201D3102038BDAC49B6
:10483000034609686A468C880021204602F021FE62
:10484000694609880229F1D0032038BD3EB50446E7
:1048500008206946088005208003844208D301208F
:1048600080049D49201A884202D39C48844201D387
:1048700010203EBD2046FEF7E1FC0028F9D120883B
:10488000694688806088C880A0880881E08848815F
:10489000934801AB00686A46C088002102F079FCA9
:1048A000694609880829E4D003203EBD1FB50446A7
:1048B00008206946888105208003844208D30120AE
:1048C00080048549201A884202D38448844202D356
:1048D000102004B0DAE482486B46006803AAC0885E
:1048E000002102F0CEFD0028F3D16946898908290C
:1048F00001D00320EDE7694609882180694649888F
:10490000618069468988A1806946C988E180E0E7BD
:10491000F0B505239B0385B016460F460446994221
:1049200008D3012292046C49B81A884202D36B481A
:10493000874202D3102005B0F0BD1F2E01D90C20F4
:10494000F9E7142E06D92078050701D1000901D016
:104950000720F0E7624D9C422BD3A01A884228D34F
:104960005E48844225D2286803A9408802F0C3FB30
:104970000028E0D1207869464873286803A9408858
:1049800002F09CFB0028D6D16946009008780221ED
:10499000084369460870497B090703D0082108438A
:1049A0006946087028686946408802F033FB002891
:1049B000C1D169468E8028683B46408801AA002103
:1049C00002F0E7FB69468988B142B4D00320B2E720
:1049D00038B50C4607214907012243189203934238
:1049E00002D26118914201D3102038BD21886A4655
:1049F000118000290BD03A49034609684D880021EF
:104A0000284602F03EFD69460988218038BD0C2009
:104A100038BD10B50C460521890386B08C4208D3F9
:104A2000012189042C4A611A914202D32B498C42FC
:104A300002D3102006B029E429490968A031897FF2
:104A4000052901D00820F5E7FEF7C3FB012803D0B4
:104A5000022826D02348EDE720881E2801D207200F
:104A6000E8E70620FEF768FB05216846017000793B
:104A70008108A0788900C007C00F01436846017112
:104A8000FB200140A0788007C00F800001436846EA
:104A900001712188C18008F09AFB0028CAD0032048
:104AA000C8E70620C6E770B586B014460D46FEF787
:104AB00090FB012803D0022801D00A482CE6084EBA
:104AC000C0213068095CC9070ED0BE21095C0429E9
:104AD0000AD0002D0AD05AE00000FC1F0040002040
:104AE0003800002001300000082015E60521890368
:104AF0008C4208D301218904DD4A611A914202D314
:104B0000DC498C4201D3102006E6A178C906490F82
:104B100004290CD8E178072909D3102907D822796C
:104B20008A4204D3102A02D822881E2A01D00720E4
:104B3000F2E58030026BF7239172026B2179D1721A
:104B4000026B117A1940A3789B06DB0FDB00194337
:104B50001172026B21889181026BA378517ADB0775
:104B600089088900DB0F19435172FB231940A37890
:104B7000026B9B07DB0F9B0019435172006BA278FD
:104B8000017AD206C908C900520F114301720B20E5
:104B900069460870852D25D008DC002D1AD0812D9E
:104BA0001AD0822D1AD0832D08D119E0862D1BD062
:104BB000882D1BD0892D1BD08A2D1BD00B2008716E
:104BC0000520FEF7B9FA684608F001FB002813D06B
:104BD0000320A1E50020F2E70120F0E70220EEE744
:104BE0000320ECE70520EAE70620E8E70820E6E7EF
:104BF0000920E4E70A20E2E73068C030017849087C
:104C000049000170002087E570B59B4E0D46316864
:104C100086B0C03109781446090701D408207BE525
:104C2000FEF7D7FA012803D0022801D0934873E594
:104C300005208003844208D3012080048C49201A77
:104C4000884202D38B48844201D3102064E5022DB0
:104C500003D0012D03D007205EE5022000E00120F3
:104C600069460871032002940870684608F0AFFA9C
:104C7000002801D003204FE53068F722C0300178CA
:104C800011400170002047E570B594B014460E46FF
:104C9000FEF79FFA012804D0022802D0774814B00A
:104CA00070BD754D2868C0300078800701D4082099
:104CB000F5E7002C01D00720F1E7FFF77DFA002887
:104CC00001D01120EBE7002E1DD02D216846017088
:104CD0002C68B420015B684641801022B11C01A8F9
:104CE0000CF018FA207FFB210840B17CC907490F5E
:104CF00008432077B07CFF214008A076E08A82310B
:104D00000843E08207E02E21684601702868A03041
:104D1000818A6846418009A9684606F0EFFC296847
:104D2000FD23C0310A781A400A70B8E710B50C4666
:104D3000FEF74FFA012803D0022801D04F4810BDDA
:104D400005208003844208D3012080044849201AAA
:104D5000884202D34748844201D3102010BD204628
:104D6000FEF746FA002010BD30B595B00446FEF7B8
:104D700030FA012804D0022802D0404815B030BDD6
:104D80003D4D2868C030C078002801D00820F5E7E4
:104D9000FFF712FA002801D01120EFE7382168460A
:104DA0000170448001240471447109A906F0A6FC35
:104DB000002801D00B20E1E72868C030C470002033
:104DC000DCE730B595B00446FEF703FA012803D0BE
:104DD000022801D02948D1E7274D2868C030C07883
:104DE000002805D0FFF7E8F9002803D01120C5E717
:104DF0000820C3E73821684601704480002404710C
:104E0000447109A906F07AFC0028B7D12868C0309F
:104E1000C4700020B2E718480068A030807F0528E1
:104E200001D3012070470020704713480068A0306C
:104E3000807F704708B51346002806D010A0006890
:104E4000009048796A468009105C18700622581C48
:104E50000CF060F908BD10B50446FDF764FB922123
:104E600001700ECC08300EC0FDF779FB10BD0000BC
:104E70000000FC1F0040002038000020013000002E
:104E80000302FF01FFB50E4681B001991446CA78AE
:104E9000214635460A3110350A980091022A09D078
:104EA000032A47D0052A7DD0F8A1FD480CF0B1FABD
:104EB00005B0F0BDF7890A2179430A311980312103
:104EC0000180002CF4D0707A002804D0FF20EFA1DC
:104ED0009B300CF09EFA70680088A0800020E08073
:104EE000317B2781891FCEB2009C1AE0288869682F
:104EF000208048780A7800021043E080C8788A78D9
:104F0000000210432081A21C091D304609F048FD13
:104F1000002E01D0002802D00020207160800835CA
:104F20000A3438467F1EBFB20028DFD10199002025
:104F3000C870BDE7F7890A2179430A311980322107
:104F40000180002CB4D070680088A0800020E08030
:104F5000307B2781401FC6B2009C43E069682A88E5
:104F60000878E2802279C30752085200DB0F1A4307
:104F7000FD231A408307DB0F5B001A43FB231A4013
:104F80004307DB0F9B001A43F7231A400307DB0F8D
:104F9000DB001A43EF231A40C306DB0F1B011A4341
:104FA000DF2300E024E01A408306DB0F5B011A4395
:104FB000BF231A404306DB0F9B011A432271C0092D
:104FC00060718A784B781002184320812246C91CF0
:104FD000304609F0E5FC002802D00020A0702080B7
:104FE00008350A3438467F1EBFB20028B6D19DE787
:104FF000317BF789891E89B20091083179430C31E0
:10500000198034210180002C93D070680088A08022
:105010000020E0802781009860810C34F800061998
:105020000BE028882080666069683046009A0CF0A2
:1050300071F8009808350834361838467F1EBFB21C
:105040000028EED172E7F8B50546C0781E460C463A
:10505000069F03000CF0E3FA09C10615323F4C6CC1
:10506000919EC1000092207B082806D0032804D01E
:105070008B4886A11F300CF0CCF90A2030803020FC
:105080000BE00092207B042804D085487FA13B30B0
:105090000CF0BFF90A2030803120388000980028B9
:1050A00045D06068018800988180607A0099FF305F
:1050B0000130C88000990020088137E00092207BF1
:1050C000042804D0AB2071A180000CF0A2F90A20C2
:1050D00030803220E1E70092207B022804D0704823
:1050E0006AA171300CF095F90A2030803320D4E7A2
:1050F0000092207B042804D0694864A18B300CF016
:1051000088F90C20308034203880009800280ED098
:105110006068018800988180607A0099FF300130D2
:10512000C88000990020088100994881E870F8BD86
:105130000092207B052806D0062804D0584853A1A9
:10514000A7300CF066F90E203080352038800098AA
:105150000028ECD06068018800988180607A00990E
:10516000FF300130C8800098E1890181009900205A
:1051700088810099AA884A81D8E70092207B072875
:1051800004D0474841A1BD300CF043F90A203080DB
:10519000362082E70092207B0C2804D040483BA1B7
:1051A000D1300CF036F90E2030803720388000984E
:1051B0000028BCD06068018800988180607A0099DE
:1051C000FF300130C8800098E189018100990020FA
:1051D0008881009901228A72A8E71B202BA1400137
:1051E0000CF017F9F8BD70B5054600780C46082696
:1051F00003000CF014FA10593232221A3609090948
:1052000009090909090909596878002803D01FA16B
:1052100024480CF0FEF8002C03D122481BA1401CAE
:1052200008E060783043607020E0002CF9D11D4820
:1052300016A109300CF0EDF8F3E7002904D0194865
:1052400012A111300CF0E5F8FDF76DF90446407835
:1052500030436070FDF783F908E0E9200BA180007E
:1052600002E0104809A120300CF0D3F8002C0AD03D
:105270006078000707D583202070204658222946F1
:105280000830FAF7A1FF002070BD00007372635C64
:1052900067617474635F636F72652E630000000062
:1052A0005602000089030000FD49FE48DCE710B506
:1052B0000020FD4CFD490346C2008C525218401C90
:1052C0000006D370000EF7D010BDF8490880012009
:1052D000887000207047F54900208870704710B52D
:1052E0000020F249C043088006F042FA10BDF7B52D
:1052F00084B00546002768460781878068680C46A9
:10530000008800F06DFB0646287A032806D0002EA0
:1053100004D1E448E24938300CF07BF8297A204681
:10532000C91E0E3000900B000CF079F90DD7CEE8B5
:105330001A08AC23486111B58686E80002A80090DF
:1053400001AB22462946304600F070FBDBE002A8A4
:10535000009001AB22462946304600F09FFBD2E088
:1053600002A8009001AB22462946304600F0E6FB39
:10537000C9E0F078062804D0FF20C94920300CF09D
:1053800048F8E88969460E30888035200881002C6D
:10539000DCD0687A002803D0FF20C149283023E000
:1053A00068680188A180E780A9892181B18861812D
:1053B000E989A181EA89296900983AE0F07806280C
:1053C00004D0FF20B6493A300CF023F8E88969464A
:1053D0000E30888035200881002CB7D0687A0028EC
:1053E000DED0FF20AE4942300CF013F8D8E7F07859
:1053F000072804D0FF20AA4954300CF00AF8A889E5
:1054000069460A30888036200881002C7BD0687A73
:10541000002804D0FF20A2495C300BF0FAFF686836
:105420000188A180E780A98921812046AA890A30C4
:1054300029690BF06FFE45E0E88969460E3080B2BD
:10544000382288800A81002C55D0687A002804D040
:10545000FF20934973300BF0DCFF68680188A1805E
:10546000E780287A0E280BD00221A172A989218118
:10547000E989A181EA89296900980BF04BFE42E095
:105480000121F2E702A8009001AB224629463046EE
:10549000FFF7F8FC37E0F078082803D0804984480B
:1054A0000BF0B7FF0E216846818037210181002C67
:1054B00029D068680188A180E780A9892181A78116
:1054C0000120A072F7701EE002A8009001AB2246F6
:1054D00029463046FFF7B7FD15E009206946392215
:1054E00088800A81002C06D00120E0806F48018866
:1054F000A180277207E00699088010E06948684992
:105500006C300BF086FF6846069980880880002C76
:1055100005D0684600892080684680886080002029
:1055200007B0F0BDF7B594B015460F46149800F0DB
:1055300062FA040007D0032000F048FB022804D3DD
:10554000112017B0F0BD5B48FBE717206946012624
:105550000883002D0FD003216846017110210182BC
:1055600010A80246059004A9284609F055FA00281B
:105570000DD00720E5E70821684601710021078169
:10558000C943418105218673C90281810CE0A87855
:10559000A0712888A080684605218673C902818190
:1055A00000210781C943418109AA023206A901A845
:1055B00006F016F9002802D000F027FAC1E707A884
:1055C00000906846038B04220321149800F014FB1A
:1055D0000028B6D1E670B4E770B592B00D0006466B
:1055E0000BD000F008FA040009D0032000F0EEFA16
:1055F000022806D3112012B046E61020FBE72D4802
:10560000F9E7172168468180042101722988818188
:105610006988C18101218174274901820AAA023265
:1056200001A902A806F0DCF8002802D000F0EDF98C
:10563000E1E708A8009068468388042203213046E9
:1056400000F0DAFA0028D6D10221E170D3E770B574
:1056500092B00D0006460AD000F0CDF9040008D043
:10566000032000F0B3FA022805D31120C3E710206D
:10567000C1E71048BFE71721684681800421017205
:10568000298881816988C181012181740A490AAA16
:10569000491C0182023201A902A806F0A1F80DE01E
:1056A0008C520000AD030000FFFF00003C00002012
:1056B0005F0200000130000002280000002802D034
:1056C00000F0A3F997E708A80090684683880422B1
:1056D0000321304600F090FA00288CD10321E170BC
:1056E00089E770B592B00D0006460AD000F083F944
:1056F000040008D0032000F069FA022805D3112025
:1057000079E7102077E7FA4875E7022168460172C9
:10571000298881816988C181172181800AAA023282
:1057200001A902A806F05CF8002802D000F06DF98B
:1057300061E708A800906846838804220321304668
:1057400000F05AFA0028DBD10421E17053E7F0B5EC
:1057500091B015000E4607460BD000F04CF904003E
:1057600009D0032000F032FA022806D3112011B02C
:10577000F0BD1020FBE7DE48F9E71721684681807D
:1057800004210172298881816988C181B17881747D
:10579000318801820AAA023201A902A806F020F883
:1057A000002802D000F031F9E1E708A8009068462F
:1057B000838804220321384600F01EFA0028D6D13F
:1057C0000521E170D3E7F7B592B015460E46129861
:1057D00000F011F9040007D0032000F0F7F90228C7
:1057E00004D3112015B0F0BDC148FBE70627002DFA
:1057F00012D0684607728681C581A5801720694648
:1058000088800AAA023201A902A805F0E9FF00284F
:1058100007D000F0FAF8E5E70521684601728681B5
:10582000EBE708A8009068468388042203211298B9
:1058300000F0E2F90028D5D1E770D3E7F7B592B0D0
:1058400016460D000BD0129800F0D5F8040008D0D1
:10585000032000F0BBF9022805D31120C2E7102075
:10586000C0E7A348BEE7072768460772868117216D
:10587000049581800AAA023201A902A805F0B0FFAE
:10588000002802D000F0C1F8ACE708A800906846F4
:10589000838804220321129800F0AEF90028A1D1D8
:1058A000E7709FE7F3B593B00C0013D0207802287F
:1058B00008D0012806D0032812D0042810D00528CB
:1058C0000ED019E0A068002804D0E088142803D97D
:1058D0000C2087E7102085E7A08800280CD101E084
:1058E00006207FE7139800F086F8050006D02078A0
:1058F000012811D0022803D0072073E77C4871E704
:1059000009216846017261888181E188C181A068AE
:105910000826072704900AE00C2168460172618876
:105920008181E188C181A068032602270490304666
:1059300000F04CF9B84202D36D48801C52E71720A2
:10594000694688800AAA023201A902A805F048FF28
:10595000002802D000F059F844E708A800906846F3
:10596000838804223146139800F046F90028B0D10C
:105970002178012903D00229ABD0032032E7082186
:10598000E9702FE730B591B00C46054600F033F8CA
:10599000002808D0032000F019F9022805D3544844
:1059A000801C11B030BD5248FBE70D2168460171E3
:1059B00004811721018309AA023206A901A805F072
:1059C0000FFF002802D000F020F8EAE707A80090B7
:1059D0006846038B04220321284600F00DF9E0E716
:1059E0004449884205D044490988814201D142484E
:1059F00070470020704710B5FFF7F2FF002802D073
:105A00008178C90700D1002010BD002806D00128E8
:105A100005D0052805D0062805D0032070471120A1
:105A20007047082070473248401C7047F8B506465A
:105A3000C0781F4614460D46012803D02F49AB20DD
:105A40000BF0E7FCA8893021C0000A3038800698A6
:105A5000002C018021D0687A002803D02749B72084
:105A60000BF0D7FC686800210088A080E180A8893D
:105A700020810A460DE0D000B37900190373B38882
:105A8000438193005B19DF89C7811B8A521C038203
:105A900092B220899042EED8F170F8BDFFB583B084
:105AA00003980C9FC0781C4615460E46012803D06B
:105AB0001249D0200BF0ADFCF089C0000A302080E4
:105AC00030203880307B001FC0B20190002D34D0D0
:105AD000707A002803D00949E0200BF09AFC706826
