:020000040000FA
:10000000401C0020351D0100A90E0100871C0100C5
:1000100000000000000000000000000000000000E0
:10002000000000000000000000000000A51D01000D
:100030000000000000000000A90E0100A90E010050
:10004000FD1D0100031E0100A90E0100A90E010003
:10005000A90E0100A90E0100A90E0100A90E0100C0
:10006000091E0100A90E0100A90E01000F1E0100CA
:10007000A90E0100151E0100B5020000E77E000078
:10008000A90E0100A90E0100A90E0100A90E010090
:10009000A90E0100A90E0100A90E0100A90E010080
:1000A0001B1E0100211E0100A90E0100A90E010066
:1000B000A90E0100A90E0100A90E0100A90E010060
:1000C00000F002F811F027FE0CA030C80838241800
:1000D0002D18A246671EAB4654465D46AC4201D180
:1000E00011F019FE7E460F3E0FCCB6460126334274
:1000F00000D0FB1AA246AB4633431847201E01002E
:10010000501E0100103A02D378C878C1FAD85207BD
:1001100001D330C830C101D504680C6070470000BD
:100120000023002400250026103A01D378C1FBD813
:10013000520700D330C100D50B6070471FB5C046D1
:10014000C04611F08DFD04B00FB41FBD8269024995
:100150008161024810447047610100000100000005
:1001600001B41EB400B50FF003FC01B4019886463B
:1001700001BC01B01EBD0000F0B4404649465246E5
:100180005B460FB402A0013001B50648004700BF2E
:1001900001BC86460FBC8046894692469B46F0BC11
:1001A00070470000C1000000401E00BF00BF00BF3C
:1001B00000BF00BF00BF00BF00BF00BF00BF00BF47
:1001C00000BFF1D17047000070B505460C461646D9
:1001D00002E00FCC0FC5103E102EFAD2082E02D32B
:1001E00003CC03C5083E042E07D301CC01C5361F3E
:1001F00003E021782970641C6D1C761EF9D270BD55
:100200008307FF22DB0E9A408907090E99400028D8
:100210000BDA0007000F0838830827489B001B18DB
:10022000D86990430843D8617047830823489B00EE
:100230001B181868904308431860704710B50446AF
:1002400000210120FFF7DCFF00211820FFF7D8FF75
:1002500000210B20FFF7D4FF02211920FFF7D0FF68
:1002600002210D20FFF7CCFF02210E20FFF7C8FF6F
:1002700002210F20FFF7C4FF0221C81FFFF7C0FFB4
:1002800003211620FFF7BCFF03211520FFF7B8FF5D
:10029000204600F017F8002010BD10B500F033F82C
:1002A00010BD0748704710B500F02EF810BD70471C
:1002B000704770477047000000ED00E000E400E088
:1002C00003E9008330B5044695B02B4802F0BAFD2F
:1002D0000546072000F082FE2946284800F0BCFEB3
:1002E000A41F072C0AD8302168460170847001F0E1
:1002F00087FE002802D009A801F00BF9284601F07A
:1003000078FF15B030BD704710B50C46012150285C
:1003100001D2216010BD0246503A0B2A03D8214673
:1003200002F0CAFB06E002465C3A032A04D82146E2
:1003300002F0F5FB206010BD0246603A1F2A03D888
:10034000214600F02BF8F5E70246803A1F2A03D831
:10035000214600F0ADF8EDE70246A03A0F2A03D897
:10036000214600F015F9E5E70246B03A0F2AD0D849
:10037000214600F0F2F8DDE795250000B41E0100EB
:1003800070477047704770477047704770477047B5
:1003900010B5012801D100F080FE10BD10B5603805
:1003A000030011F070FD150C10141C20232A3136A7
:1003B0003B3F43474E535A626A72797E8300086816
:1003C00003F0A2FF10BD086803F0F5FF10BD0C7923
:1003D0000B7B8A680868214604F014F810BD086891
:1003E00004F08EF810BD03F062FD10BD08884A6865
:1003F00080B2114604F011FA10BD0A79088811463E
:1004000080B204F061FA10BD087840B204F06CFAD2
:1004100010BD088880B204F088FA10BD086804F0A6
:1004200097FA10BD086804F0AFFA10BD086804F030
:10043000DBFA10BD088982B209C9194604F006FB2F
:1004400010BD05C9114604F061FB10BD08884A685B
:1004500080B2114604F07BFB10BD0B7908888A68D6
:1004600080B2194604F0BDFB10BD0B7908888A687C
:1004700080B2194604F066FC10BD08884B688A6893
:1004800080B2194604F09EFC10BD08884A6880B20C
:10049000114604F0E9FC10BD088880B204F002FDAA
:1004A00010BD088880B204F02AFD10BD012010BDE7
:1004B00010B58038030011F0E6FC09060F161D2464
:1004C0002C363F464E0088888A6883B208881946D1
:1004D00080B205F0C5F810BD08884A6880B21146A0
:1004E00005F018F910BD08884A6880B2114605F079
:1004F0004CF910BD08884A6880B2114605F08FF9A2
:1005000010BD08884B688A6880B2194605F0BDF9AD
:1005100010BD088982B2888883B20888194680B2E3
:1005200005F0EFF910BD08894B6882B208881946BA
:1005300080B205F021FA10BD08884A6880B21146E1
:1005400005F04EFA10BD888882B20888114680B244
:1005500005F0B6FA10BD012010BD10B5B02805D0C9
:10056000B12808D0B2280BD0012010BD088880B275
:1005700005F095FD10BD088880B205F0BFFD10BDE7
:1005800008884B688A6880B2194605F0C8FD10BD1E
:1005900010B5A038030011F076FC0B070E172028C9
:1005A000323C434D545D65004B6808788A681946B3
:1005B00007F0F2F810BD88888A6883B20888194667
:1005C00080B207F0FEF810BD08884C68CB688A68D6
:1005D00080B2214607F005F910BD08884B688A688B
:1005E00080B2194607F01FF910BD8888CB6884B225
:1005F00008888A6880B2214607F03FF910BD8888D4
:10060000CB6884B208888A6880B2214607F045F931
:1006100010BD08884A6880B2114607F05AF910BD2B
:10062000088982B2888883B20888194680B207F0A8
:100630005AF910BD08884A6880B2114607F073F96C
:1006400010BD08894B6882B20888194680B207F04D
:10065000F0F910BD08884B688A6880B2194607F027
:10066000ADFA10BD012010BDF8B53F21FA4A0902CC
:100670009160FA4A0023D363F949CB630125D5631E
:10068000CD63F84902270F60F7490F60F749C96A3F
:1006900009070ED4F5494031CB6AF54A53620B6B1A
:1006A00093624B6BD3628B6B1363C96BD305194396
:1006B0005163F04EF04CF169002830D0012832D05F
:1006C000FF20EEA1733011F0D8FAF048A063FF20AC
:1006D000043060632563EE4903200860ED4A102171
:1006E00051602061E449962040314860EA488760C3
:1006F000D948EA4940304162B1690162E749403175
:100700004163E349FC390163E4494431C163E04991
:10071000F03981633F20D04900024860F8BDE048CD
:100720006061E04804E0DF48E0306061DD48801F40
:100730000143A161C9E70120CE494006C861704765
:1007400010B5CC4C0020A07021466070203148705C
:1007500008746061A072A0620FF07AFFA061204669
:1007600034300FF04BF8002804D0FF20C3A13C30F8
:1007700011F083FA01204006E0610020FFF774FFCA
:1007800010BDBC49012008707047BA4900200870AC
:10079000704770477047B84940310028086802D058
:1007A0000122104301E0400840000860704770B526
:1007B0000C46B04D01460622E81C11F0DFF86C72C1
:1007C00070BDAC48203040787047AA4A9170507094
:1007D000704770B50C460546082904D9FF20A7A12B
:1007E000D23011F04AFAB04EA20029463046FFF747
:1007F000EBFC002107E0480040198A00008C9219A8
:100800001062491CC9B2A142F5D3A749286B4031F7
:10081000086070BD0B23DB4310B5C21A964998429D
:100820001ED008DC1C3221D00A2A1FD0142A1BD06B
:10083000182A08D116E0083010D004280CD0082857
:1008400008D00C2804D08DA1984811F016FA10BDDC
:1008500004200CE000200AE0FC2008E0F82006E07C
:10086000F42004E0F02002E0EC2000E0D820C86092
:1008700010BD80482030007B704710B57E4C616A07
:10088000090A09026162616AC27811436162E16921
:10089000C9B2E16111F0D3F8E16900020843E061F7
:1008A00010BD252808D0262808D0272808D04100C8
:1008B0000A2807D8091D06E0022105E01A2103E0F5
:1008C000502101E0891DC9B26B4A91606A494031EB
:1008D0004861704767494861704770B5654CA072C0
:1008E00000F029FBA07AC0073ED0694D2868800738
:1008F00004D46E4861A1863011F0BFF9A07A0106D8
:100900001AD5800707D569485CA1883011F0B5F980
:10091000A07A000610D5504E20784036012812D01B
:10092000002804D0614855A1973011F0A6F960481D
:1009300070610FF08DFE3061A07A800714D52868B1
:10094000C00708D102E05A48001FF1E757484BA101
:100950009F3011F092F9A07A4007286801D5042150
:1009600000E008210843286070BD70B50124414DA6
:10097000002807D0012818D002281AD091203FA1C2
:1009800080000BE000F0D7FA49482978001F0129C0
:1009900007D0002907D0454838A12F3011F06DF954
:1009A00070BD046070BD446070BD8120FFF795FF8D
:1009B00070BD00F0C0FA6869002804D13B482FA13F
:1009C000373011F05AF96969A86A40183249403144
:1009D000C860214837498030016035490C31416099
:1009E00008141D49486023482030047470BDF8B5D0
:1009F0000C2069460870274C6068C006C50F102699
:100A0000A6602B480021FC300161294B01221B1FED
:100A10001A610BE000BF00BF00BF00BF00BF00BFF6
:100A200000BF00BF6B461A78521E1A706A461278D1
:100A3000002A02D00269002AECD0016168460078E1
:100A4000002804D14B200DA1C00011F016F9002D93
:100A500000D06660F8BD000000F50140C01F0040F6
:100A6000C08F004080E100E080E200E080000010E4
:100A70000017004028010020001500407372635CDD
:100A800068616C5F7263732E630000005B06000098
:100A9000001200400013004000850040008000402C
:100AA00006010200250003000016004003020000BA
:100AB000041000404C810040F9490020C861704793
:100AC00010B510F0BCFF0002F649000AC86310BD63
:100AD000F549022008607047F34902200860F34995
:100AE00008607047F0490220803908607047F0497B
:100AF00008707047EA4810B534300EF087FE0028C1
:100B000003D0EC49EC4811F0B8F810BDE44810B53A
:100B100034300EF093FE10BDE2494860704710B5C6
:100B2000DF49E64B0022C8601A60896A0818E44968
:100B3000086000F007FA10BD10B5D948C221C160A5
:100B4000DE4A00211160806ADD49C230086000F091
:100B5000F9F910BDDB4900208861C861D049C8603F
:100B6000D74908607047D84901204860C860D34918
:100B700000200860CA49886270477F20D14900027E
:100B8000403988607047C648CD49806AFE30886029
:100B90007047CB49002088607047CC48016810221C
:100BA00091430160CA49012088617047C94900200A
:100BB000C861C6480168102211430160704700B542
:100BC000FFF7EBFFB6490020087400BD00B5FFF742
:100BD000EDFFB3490120087400BDBE49CA69012A6E
:100BE00001D000207047AF4A403292685206520E40
:100BF000524202700020C86101207047F8B5B54C20
:100C00002069012805D00021A5480078012802D0DC
:100C100004E04021F8E7E268012A04D000220A43F8
:100C2000012802D004E02022F9E76168012905D0FB
:100C300000211143A84A002802D007E01021F8E75C
:100C40001368012B02D1E368012B04D000230B436E
:100C5000002802D007E00823F9E71168002902D133
:100C6000E168012905D000221A43944E002802D0E1
:100C700004E00422F8E73168012904D0002111437F
:100C8000002802D004E00221F9E76068012829D099
:100C9000002592480D4301680906090E02D06169DA
:100CA000012900D000217E4F2037397300680006EB
:100CB000000E02D0A069012800D00020787380487F
:100CC0008068002803D007F072F9012800D00020C6
:100CD000B8730021E160216161606161A1613160EF
:100CE0002846B7E60125D4E76D4801212030C173BD
:100CF0007047F8B56A4E01272036307C0025002861
:100D000025D0724C206800902560FFF770FE009897
:100D100020607048C560056145604561856169492D
:100D20000014403988605E480178694801290AD07A
:100D300000290AD060485F49C13010F09EFF11F0D1
:100D400083F8357486E60760F9E74760F7E7FFF751
:100D500055FF04460020F07359480268504D6A62FE
:100D60004068A8622978002909D1A978002906D00D
:100D70004C4B5B681B780B406978994309D0002184
:100D80003170E10707D0104609F087FA0121A86AFF
:100D900008E03770F5E7A10601D5022102E0A107BE
:100DA00002D5002109F088FA3E4F79680622093100
:100DB000E81C10F0B6FD002807D1687A7968097838
:100DC000C909884201D1012000E00020707020464E
:100DD00000F0BEF83648C2270078002815D0012858
:100DE00028D002283BD003287FD032493C4810F05D
:100DF00044FF287C002804D02878002873D0FFF70F
:100E0000CCFE287800286FD08EE0A00701D508F02E
:100E1000E4FA200703D50120EF6008F010FB60071B
:100E200003D50020EF6008F00AFBA006E1D508F02A
:100E300083FADEE7A00701D50AF0DFFC200703D51F
:100E40000120EF600AF058FC600703D50020EF6036
:100E50000AF052FCA006CCD50AF0D9FBC9E7A007DE
:100E600003D5BF2004400AF015FE200705D5BF209A
:100E700004400120EF600AF00CFE600705D5BF209A
:100E800004400020EF600AF004FEA00603D5BF2056
:100E900004400AF0FDFD6006ABD50AF0FCFDA8E7B2
:100EA000280100200015004080E100E080E200E021
:100EB000140000207C0A0000BE02000040810040B7
:100EC0004085004040F50140008000400012004095
:100ED0000010004000110040001400404016004087
:100EE000AF04000001E015E017E0A00701D50AF00B
:100EF000D5FD200703D50120EF600AF0CEFD600785
:100F000003D50020EF600AF0C8FDA00691D50AF0D5
:100F1000C3FD6EE7FFF74AFE73E7E868002803D0D9
:100F2000A96A091826480160F07B002800D191E5E4
:100F300010F08AFF8EE52349032008602249002033
:100F40000861704720482149C1612149816170478A
:100F500070B50546FFF7EFFF1E4CA17A080701D5D3
:100F600068071CD41C4AC80605D5507B002802D04F
:100F7000907B002813D0880602D5107800280ED167
:100F8000480602D55078002809D000208A0700269C
:100F9000002A07DA4A0704D50122227002E0012064
:100FA000F4E72670CA0709D0AA0705D4890705D532
:100FB000002803D0A80601D4FFF719FDA67270BD62
:100FC000408500400012004040F5014010100040F4
:100FD00040810040280100204801002010B5FFF7A3
:100FE000AFFB0EF0BAFA06F031FF0EF035FC06F05A
:100FF0009BFF06F0C5FE10BD1CB5044600206946E7
:101000000870204607F014FF6946204607F0D2FD1D
:10101000002803D1F8A1BB2010F02FFE01A9204623
:1010200007F027FD002803D1F3A1C02010F025FE12
:10103000684600781CBDF549002008760A46C87746
:1010400020321071603A1070203290739074907654
:10105000087488707047EEE710B50C46EC4982883A
:101060008A8042884A800078087008460A3884706E
:1010700007F0D5FCFFF7DFFF204608F01AFE07F067
:1010800049FFE3480AF06EF907F0C9FEDF48002186
:101090008038017410F004FF10BD10B50120FFF777
:1010A0006FF910BDF8B508F054FBD94DD74C0A3D87
:1010B000022802D0207C00287CD0207E0026102828
:1010C00019D1A078002803D0CBA1D24810F0D5FDCB
:1010D000CE48E038817989070DD5014626716039FF
:1010E0004989E180C1792172018961814089A081AA
:1010F0000120A0702676C54F203FB87C002859D12A
:10110000C5486946408907F055FD002805D0694665
:10111000687809784018687004E0BE48B6A11D30B0
:1011200010F0ABFD207C002838D0BB484189FF304F
:101130000130406D4089814204D0B648AEA12230D2
:1011400010F09BFDB448408907F0DAFD002804D177
:10115000B048A9A1283010F090FD07F048FE002803
:101160001CD0AD484089FFF747FF69784018687088
:10117000A6484038416D20318A7B012A0DD1A64A0C
:101180003E775289C287C87B20700120B876207EC6
:10119000102801D0282800D12676267469780029E5
:1011A00008D09D484289FF300130C2860187012066
:1011B000B8746E7008F0C1FA002805D1207C0028B0
:1011C00002D0A87801F062FEF8BDF8B50F460446DB
:1011D000FFF768FF8D4D403D28788C4E002813D0D6
:1011E000002F10D1307E002804D0FF2082A1C9300A
:1011F00010F043FD2C22A91C204610F0BFFB0E204E
:101200002070002028708FE0804D203DA87B0028B2
:1012100018D0002FF7D1307E102808D0282806D00B
:10122000002804D0FF2074A1D53010F026FD012045
:10123000E070E87BA070287C60700F202070002098
:10124000A87371E00121204607F00AFE002807D0AC
:10125000307C002852D13946204607F001FEF8BD07
:10126000A97C6A480C38009069480A38002913D0D4
:101270000178052910D2002F56D1491C0170002693
:1012800066700D202070012028750622A01C009990
:1012900010F074FBAE7447E05D4800210A3801701D
:1012A000B078002815D0002F3ED1307E002804D021
:1012B000432051A1C00010F0E0FC00256570012022
:1012C000524920700A22091DA01C10F057FBB5706E
:1012D0002AE03946204609F0B2FF002824D1A87C34
:1012E000002805D0002F1FD149480A380178C4E7EB
:1012F000A87E002802D0307C002801D00020F8BD54
:10130000002F11D1307E002803D03BA1434810F0BC
:10131000B4FC002666700A203C4920700622091F92
:10132000A01C10F02BFBAE760120F8BD10B537489D
:10133000017E002908D1007C012805D00121002070
:10134000FFF743FF002801D0072010BD012010BD8A
:1013500010B5012408F0BDFC0443FFF7E7FF044388
:1013600007F05EFD01462143084610BDF8B51D4655
:1013700014460E4607F09DFB002807D0684607F08C
:10138000A3FB002803D0002C07D101E00120F8BD09
:10139000224819A1303010F070FC07F041FBA04248
:1013A00004D2272014A1000110F067FC009806F079
:1013B000A7FF3146009806F0B5FFE2B22946009833
:1013C00007F06CF907F092FB002804D113480AA13A
:1013D000403010F052FC07F025FD0F48002440304B
:1013E000417B002905D0447300210122084608F002
:1013F000C7F909488480C9E77372635C6C6C5F63EA
:1014000074726C2E73302E6300000000D002002036
:101410002000002021060000900100203F02000073
:1014200010B50179002908D001290BD0FF20FC4913
:101430000A3010F022FC002010BD831D4288048871
:10144000022103E042880488831D01212046FFF722
:101450008DFF10BDF8B51F4615460E46044608F030
:1014600078F9022803D0EF48007C00281FD0EE480E
:101470004089208007F044FC002803D1E849EB486C
:1014800010F0FBFB0524684607F045FC00280ED051
:10149000009806F07FFF3070022809D0012807D09D
:1014A00007F079FC641E2406240EECD10020F8BD60
:1014B0003946009807F00AF92880002804D1DB4853
:1014C000D749123010F0D9FB07F065FC002804D191
:1014D0005920D349C00010F0D0FB0120F8BD38B529
:1014E0000446831D821C6946FFF7B4FF00280DD017
:1014F0000020607168460078012808D0022806D0D4
:10150000FF20C7492B3010F0B8FB012038BD2071F7
:10151000FBE7002159E670B5C24C0546403C2078F7
:10152000002803D1BF48007E002803D0BC49C04832
:1015300010F0A3FB287807F09BFD28780AF064F8E8
:1015400000202071012060713921E170207070BD90
:1015500070B5B44D0446403D2878002803D1B14809
:10156000007E002804D0B248AD49183810F085FB41
:10157000AD4E21887089884203D108F0EAF802282C
:1015800007D002202871012068713821E970287085
:1015900070BD7F20F075A448E17820304173A178B8
:1015A00001730020EEE770B59E4C403C2078002887
:1015B00007D19C48007E002803D108F0CAF8032810
:1015C00004D19A489649643010F057FB954800259D
:1015D000203005712946401D07F038FD0120257196
:1015E00060713A21E170207070BD70B58D4C064677
:1015F000403C2078002807D18A48007E002803D18B
:1016000008F0A7F8032804D188488549783010F0FD
:1016100034FB844D2035287908280FD200010019A9
:1016200065301022314600F0B3FD2879401CC1B26C
:101630002971681D07F00AFD002000E007202071D5
:10164000012060713B21E170207070BDF8B5754CD0
:101650000546403C2078002803D17248007E0028CF
:1016600004D073486E49463810F007FBA87800286C
:1016700001D0012804D1A888FF21F531884204D97E
:101680006B486749403810F0F8FA674E298870892E
:10169000884203D108F05DF8022807D002202071AB
:1016A000012060713621E1702070F8BD5E4800278E
:1016B00020300772A98871850121B175A9780129A7
:1016C00000D00021017258484030407B002804D0EF
:1016D00000210122084608F053F82771E0E770B5B1
:1016E000504C0546403C2078002807D14D48007EEC
:1016F000002803D108F02DF8002804D0152048490F
:10170000800110F0BAFA287808F0E7FA002020717A
:10171000012060713021E170207070BD70B5414CC6
:101720000546403C2078002803D13E48007E002832
:1017300004D03F483A490D3010F09FFA287800282D
:101740000BD0012809D0022807D06878402804D39C
:1017500037483349143010F090FA284607F0F0FF6C
:10176000002801D0002000E00C20207101206071D1
:101770003421E170207070BD70B52A4C0546403CA4
:101780002078002807D12748007E002803D107F0E1
:10179000E0FF002804D0264821495E3810F06DFA99
:1017A0002978002914D00A2912D0142910D01E2912
:1017B0000ED028290CD032290AD04B2908D0642910
:1017C00006D0FF2904D01A481549523810F055FAAE
:1017D000284608F0D7FA00202071012060713321DB
:1017E000E170207070BD70B50E4C0546403C20780D
:1017F000002803D10B4A107E002804D00C48084969
:10180000773810F03AFA062229460A4810F0B6F85E
:1018100000202071012060713221E170207070BDC4
:10182000F8130000D002002090010020AF02000059
:10183000A90500001900002070B5F84C0546207875
:10184000002804D120464030007E002803D0F4490F
:10185000F44810F012FA00216956042914D0002926
:1018600012D0081D10D0001D0ED0001D0CD0001D80
:101870000AD0001D08D00A3006D0283104D0E9482B
:10188000E749801C10F0F9F9E448297840380174E0
:10189000012060713121E1702070C0E710B5DF4C8C
:1018A0002078002804D120464030007E002803D054
:1018B000DB49DD4810F0E1F907F0B2F8E08007F00D
:1018C00077F9207200202071012060710521E170FC
:1018D000207010BDF8B5D14C07462034A07B2546BA
:1018E0002035002805D1287E002802D1A8780028BC
:1018F00004D04F20CA49000110F0BFF907F029FFBA
:101900001026022825D1C94839884089884220D12B
:10191000C249403908468A7D60388079002A03D060
:1019200080070FD40C200FE080070BD406208875A9
:10193000BE484030407B002804D0002101220846E8
:1019400007F01EFF2E760020E07326740120A0739E
:10195000F8BD0220F8E710B5B04C2078002804D17B
:1019600020464030007E002804D0AE48AC493E38C6
:1019700010F083F9002020710E20A0700F20E0707D
:10198000FF20A0710020C0432081A9480178A172E6
:101990008188A1814088E08101206071207010BDA4
:1019A00010B59E4C2078002804D120464030007E9F
:1019B000002803D09A499F4810F05FF90821A01D24
:1019C0000DF067FE00202071012060712B21E17075
:1019D000207010BD70B5914D04462878002804D1C0
:1019E00028464030007E002804D05D208C4900014C
:1019F00010F043F98D4810222146303800F0C8FB22
:101A00008A481022A118203800F0C2FB87483038DD
:101A10000DF06BFF8549102210392C46A81D00F0EF
:101A2000B7FB002020710E20A0702A20E07001205A
:101A300060712070F3E6F8B5784C05462034A07B41
:101A400026462036002802D1307E002804D079486E
:101A50007349C63010F011F9A978052912D013295D
:101A600010D014290ED015290CD01A290AD02929F2
:101A700008D03D2906D03B2904D06E486849CE30B5
:101A800010F0FBF828886C49884204D965486449FD
:101A9000CF3810F0F2F807F05CFE0C21282702285E
:101AA00009D162482A884089904218D15B48403861
:101AB000827C002A01D0E17313E0A978C17401216E
:101AC000817437760020E07358484030407B00280E
:101AD00007D000210122084607F052FE01E0022053
:101AE000E07327740120A073F8BD70B54B4C064617
:101AF000207825464035002802D1287E002804D0D1
:101B00004C484749B43010F0B8F8444806223146F2
:101B100059300FF033FF0120E87700212171607107
:101B20001721E17020707AE6F8B53C4F3B4C064631
:101B3000E0373D7A2078002804D120464030007EEE
:101B4000002804D0D3203649800010F096F8307871
:101B5000002806D0012804D036483149293810F031
:101B60008CF8082D3ED2B179727908026900091902
:101B7000FF31104301318881B01C0FF060FF717894
:101B800000020843A9000919C031C86230782B4E01
:101B9000002820D0012804D01B202149400110F04A
:101BA0006CF82A4608320120F16990400143012077
:101BB000A8400143F161387A401CC1B21F48397214
:101BC000143807F04CFA00202071012060710B21BD
:101BD000E1702070F8BD2A4608320120F16990407A
:101BE0008143E4E70720EFE710B50C4C207800288C
:101BF00004D120464030007E002804D00D4808491A
:101C0000383810F03AF810F04BF90020207101201C
:101C100060710A21E170207010BD00009002002068
:101C2000F81300001C05000086060000900100204B
:101C30002000002076030000FF0E0000900300202B
:101C400010B507F0FDFF002803D0EF49EF4810F072
:101C500014F807F0E3F806F0C6FE09F075FB00285B
:101C600004D0EA48E8490E3010F007F807F027F9E9
:101C7000002804D0E548E44912300FF0FEFF10F0D0
:101C80000FF9FFF7D8F9E2480021017101214171F4
:101C90000222C2700170BFE770B5DD4D044628789E
:101CA000002804D128464030007E002804D0D748C0
:101CB000D549DB300FF0E1FF20781F2801D8601CE8
:101CC00004D1D248D049DC300FF0D7FF0020287172
:101CD0002078611C07F0A9F9012068712021E970C2
:101CE00028709CE5F8B5CA4C054620782646403653
:101CF00000280CD1307E002809D107F02AFD0028E9
:101D000002D1307C002807D0287800280ED0F5209A
:101D1000BD4980000FF0B1FF2878012806D00028C7
:101D200004D0BA48B849EE300FF0A7FF0120607127
:101D300028780027B74D01280BD0002007F06AFF54
:101D400000284ED00C2020711B20E0700120207054
:101D5000F8BD0C20207107F0F0F80028F4D0AD4851
:101D600002210A300DF01EFC002806D00F216889E0
:101D700009020FF07DFE698100E06F8101220321DD
:101D8000A44806F0CBFC002804D09F49A2480FF0DD
:101D900074FFD9E79F4807F04AFA688906F042FEC7
:101DA000002804D19C48984912380FF066FF6889D2
:101DB000002107F03BF8002804D0974892490E38DC
:101DC0000FF05BFF924860308178008807F089FF50
:101DD000002804D090488C490A380FF04EFF277134
:101DE000B2E72771307C0028AED16889FFF704F98B
:101DF000AAE770B5864D04462878002804D1284605
:101E00004030007E002804D077207F49C0000FF0CA
:101E100034FF20781F2801D8601C04D17E487A49FD
:101E20004C380FF02AFF002028712078611C07F041
:101E300022F9012068711A21E9702870EFE4F8B5E1
:101E4000734D044628780C262F464037002806D1CB
:101E5000387E002803D107F07CFC032804D16E48AB
:101E6000694983380FF009FF6079002801D0012803
:101E70002FD1A079002801D001282AD1A07B0028E9
:101E800005D0012803D0022801D0032821D1607B8E
:101E900040071ED0618801208003814202D8228839
:101EA000824201D920790CE02079002804D0022850
:101EB00005D0032803D004E0202904D209E0A02A99
:101EC00001D2012805D12088884207D9207901282C
:101ED00004D0E5204C4980000FF0CFFE4C4821880B
:101EE00060300180217981706079002802D001285A
:101EF00003D00CE0494A002105E0F87F002806D015
:101F0000434A59320121204607F01BF806460120BA
:101F10002E7168711821E9702870F8BD70B53C4CBD
:101F200005462078002804D120464030007E002855
:101F300004D039483449AE300FF09FFE07F009FC59
:101F40000C2102280ED133482A8843899A4219D19C
:101F50000246C032937D002B04D1007E0E2803D0B0
:101F60000F2801D0217103E0052090750020207119
:101F70000E20A0702E20E0702888E0800120607183
:101F800020704CE40220F2E770B5214C0546207821
:101F9000002804D120464030007E002804D01E488E
:101FA000194982300FF069FE07F0D3FB0C2102289B
:101FB0000ED118482A8843899A421FD10646C03656
:101FC000B27D002A04D1007E0E2803D00F2801D054
:101FD000217109E00E481022A91C1C380FF0CEFC1C
:101FE0000420B075002020710E20A0702D20E0701C
:101FF0002888E08001206071207010E40220F2E760
:1020000010B501780CE00000F8130000EB020000AE
:10201000900200209001002005040000190000201B
:102020000B000FF030FF3C8282378282578282821F
:10203000823A3D828282505382828282828241270A
:10204000822B2F82828282338282828282828245A6
:1020500082494D821F23826A5A5E6266826E82794D
:102060007D767282801CFFF78FFF5CE0801CFFF79B
:1020700055FF58E0801CFFF7E2FE54E0801CFFF79C
:10208000B8FE50E0801CFFF72DFE4CE0801CFFF7EF
:1020900003FE48E0FFF7D4FD45E0FFF7A5FD42E071
:1020A000801CFFF741FD3EE0801CFFF71EFD3AE07B
:1020B000801CFFF7C0FC36E0801CFFF78BFC32E091
:1020C000FFF76EFC2FE0FFF746FC2CE0801CFFF7CB
:1020D00001FC28E0FFF7E2FB25E0801CFFF7ACFBEA
:1020E00021E0801CFFF77FFB1DE0801CFFF744FB15
:1020F00019E0801CFFF712FB15E0801CFFF7EFFAD8
:1021000011E0801CFFF7A2FA0DE0801CFFF76DFACA
:1021100009E0FFF748FA06E0801CFFF719FA02E031
:10212000801CFFF7F8F9012076E5002074E510B572
:102130001E491F480FF0A1FD6EE570B51D4D01242D
:10214000EA1DF9321146403103000FF09CFE051BD9
:102150001E1E041B1E0001220021164806F0DEFA96
:10216000002809D113480021C0308175C175C038DD
:1021700007F05CFF002804D0D7200C49C0000FF006
:102180007CFD57E40C74556554E408490A48F6E7A9
:1021900030B5134606E0CC18203CD51AE47F5B1E10
:1021A0004455DBB2002BF6D130BD0000F81300001F
:1021B000E205000090010020EB06000010B50300CE
:1021C0000FF061FE070805080B0B0E0E110003F05F
:1021D00082FE10BD01F095FE10BD0BF083F810BD1E
:1021E0000CF0EFFE10BDFF20FDA17A300FF045FD91
:1021F00010BD7FB5FE4AFF4C516892680192009174
:102200002070FD480DF07BFC0025FC480DF07EFCA5
:102210006D1CEDB2072DF8D3F74903208031400241
:102220000BF0B2F8002803D0EDA18F200FF025FDB0
:102230001E220221F24809F0D9FCF1481E22032196
:1022400010300AF0F1F9EE4807223421743009F019
:1022500027FCEB484C2128300FF0EFFBE8496A4699
:10226000743108464C384164FF317B31816401216F
:102270001172039001F0F2FF02A80BF0BBFB0028E3
:1022800003D0D7A1A3200FF0F8FC02222421DD48BF
:1022900009F006FCDB4802222C214C3009F000FC3E
:1022A000D8490B20B0390CF077FF002803D0CCA11F
:1022B000B0200FF0E2FC03F0FBFD03F096F804F011
:1022C0006EFC6B46D04A0821D0A001F027FF002801
:1022D00003D0C3A1B7200FF0D0FC012004F060FFB1
:1022E000002803D0BEA1B9200FF0C7FC7921C90096
:1022F000C9480FF0A2FBC849BD4A0020135C0D1865
:10230000401CC0B2EB700428F8D3002060606070FD
:10231000A0707FBD70B5C14E0546706A94B00C4682
:10232000401C04D1B06AC0430004000C0BD0306ADA
:10233000C007C00F2870706A0FF092FBB06A20715E
:10234000000A607113E02B206946087009A96846ED
:1023500009F0ECFB002803D0A1A1DD200FF08DFCDB
:102360000120287006220AA920460FF007FB2878D2
:10237000002815D06079C021084360711720694694
:10238000087000A80622214602300FF0F7FA09A9CA
:10239000684609F0CBFB002815D091A1F22010E08F
:1023A00032206946087000A80622214602300FF04C
:1023B000E5FA09A9684609F0B9FB002803D088A10D
:1023C000FE200FF05AFC14B070BDF0B5934C0646D9
:1023D000206895B00D463746401C0837002808D1C4
:1023E0006068401C05D1A068401C02D1E068401C18
:1023F00011D0206831460FF033FB6068311D0FF0BB
:102400002FFBA06839460FF02BFBE06831460C31FA
:102410000FF026FB25E02B206946087009A96846C5
:1024200009F084FB002804D0FF206DA11E300FF0BE
:1024300024FC08220AA930460FF0A0FA2B20694696
:10244000087009A9684609F071FB002804D0FF2034
:1024500063A125300FF011FC08220AA938460FF0BD
:102460008DFA20692E46401C0836002808D1606984
:10247000401C05D1A069401C02D1E069401C12D06B
:10248000206929460FF0ECFA6069291D0FF0E8FA7F
:10249000A06931460FF0E4FAE06929460C310FF0EB
:1024A000DFFA15B0F0BD2B246846047009A909F0C5
:1024B0003DFB002804D0FF2049A143300FF0DDFB95
:1024C000082209AF0AA928460FF058FA6846047096
:1024D00009A909F02BFB002804D0FF2040A14A30B5
:1024E0000FF0CBFB0822391D30460FF047FAD8E732
:1024F00010B500200DF092FB01200DF08FFB0220A3
:102500000DF08CFB03200DF089FB04200DF086FB01
:1025100005200DF083FB10BD10B53F4CA0780A28B4
:1025200004D3FF202EA193300FF0A7FB2078602169
:10253000484300190830002101704178E722C9089A
:10254000C900C91C114041702A4A0121517010BDB7
:1025500070B5284C607800280ED02F4800250178EF
:10256000491CC9B201700A2900D105708178491C43
:1025700081700DF0CCFB657070BD70B51D4C0546CB
:102580006068002804D0FF2015A1BC300FF075FB57
:10259000656070BD70B5174E1F4DFFF7BDFF7168C8
:1025A0000446002907D06022FDF70EFEFFF7D0FF9A
:1025B00000207060F1E72879002876D011484C306F
:1025C00009F07EFA6060002804D1FF2004A1DA300F
:1025D0000FF053FB606809F0D1FA002831D01FE0FA
:1025E0007372635C686F73745F636F72652E6300F0
:1025F000BC1E010028000020B0030020BD21000007
:10260000300A0020B0100020341200006E5246350F
:102610003138323200000000380C002080000010F9
:10262000204600F08FFF6078010707D5C008C00082
:10263000401C60702879401E287127E0F8486168C6
:102640002AE0F748616809F044FA687900282CD03C
:10265000F3484C3809F034FA6060002804D1FF20B8
:10266000F049FD300FF009FB606809F08BFA002893
:1026700016D0204603F06EFC6078010709D5C0082B
:10268000C000801C60706879401E6871FFF760FFB1
:1026900083E7E34861684C3809F01BFA7DE704E002
:1026A000DF4861684C3809F014FA70BDF7B505468B
:1026B0000078002700090C463E46062803D0D94979
:1026C000D9480FF0DAFA287A00280ED0012814D061
:1026D000D548D44921300FF0D0FA0298002C06805A
:1026E00001D0278066800020FEBD02270926002C2D
:1026F0000ED0A889A080A87B08E003271426002C10
:1027000006D02869E060A88A2082287B2072E4E74E
:1027100002980680E7E770B50E4600211C46198036
:10272000154603000FF0AFFB0723050B1711231D00
:10273000230022462946304603F0D8FB70BD2246CE
:102740002946304601F082F970BD224629463046BE
:1027500004F020F970BD22462946304602F065FE9D
:1027600070BD224629463046FFF7A0FF70BDAE4837
:10277000AC4947300FF081FA032070BD0146A848EC
:1027800010B54C3809F0A5F9A8494879401CC0B2E9
:102790004871012803D1A648007800F077FB10BDEE
:1027A000F8B50546072040070F460A18012189039E
:1027B0008A4209D2002D02D02818884204D2E81C8F
:1027C00080088000A84201D01020F8BD9748817889
:1027D000002911D0398800914178602251430C18AA
:1027E000083420783B460007000F00222146FFF7FF
:1027F00092FF060004D015E0002038800520F8BDC7
:10280000002D13D039880098814201D90C260DE0A3
:1028100020783B460007000F2A462146FFF77BFF42
:10282000060005D00C2E01D0002038803046F8BDBF
:102830007E4D6878401CC0B268700A2801D1002023
:102840006870A878401EA87061784807400F022879
:1028500010D00128EAD17248616809F03AF9287964
:10286000401CC0B228710128E0D17148007800F006
:102870000DFBDBE7C806D9D46068FFF77FFFD5E71B
:1028800070B504466B4816460D46814204D1664831
:102890006449B9300FF0F1F9012E05D06248614961
:1028A000C9300FF0EAF970BD6148012181706620DE
:1028B000207000202072A581A17370BD70B51646EE
:1028C0000D46040001D1FFF727FE662101700121AA
:1028D000017229680161A98881820673002C01D1E7
:1028E000FFF736FE70BD0721490701224118920308
:1028F000914201D3102070470721017000207047DA
:10290000052210B5920390420ED301239B04C21AF4
:10291000494B9A4208D3494B984205D207225207A5
:102920008A18DB139A4201D3102010BD0CF04DFC25
:1029300010BD052310B59B0399420ED301239B04C0
:102940003D4CCB1AA34208D33C4B994205D2E3023B
:102950000124D318A403A34201D3102010BD0228E0
:1029600003D0102801D0092010BD0CF04DFC002828
:10297000FAD0052010BD70B505239B03984212D3F1
:1029800001239B042C4CC31AA3420CD32B4B98421B
:1029900009D2E4020D19DB139D4204D2002A04D0AF
:1029A00014199C4201D3102070BD0CF069FC002862
:1029B000FAD0072070BD10B504460720400701215A
:1029C0002018890394B0884202D3102014B010BD9F
:1029D00001F090FC002801D01120F7E70F2008A992
:1029E000087369460BA809F0A1F80028EED16846E3
:1029F000007A207068464089608068468089A0809F
:102A00000020E3E710B594B0044601F073FC002801
:102A100001D01120DAE7002C12D00720D6E7000001
:102A2000FC100020E02500001E020000380C0020F1
:102A300028000020FFFF00000000FC1F00400020D5
:102A40003921684601700021817009A909F06EF8EA
:102A5000002803D0154916480FF00FF90020B5E7FC
:102A600070B5144C0846A178002913D000280FD067
:102A700007225207012385189B039D4203D2056854
:102A8000AA189A4201D3102070BD8288002A03D070
:102A9000012903D0082070BD092070BD04F0E1F8C1
:102AA0000028FAD10021A17070BD0000E0250000CF
:102AB000760300002800002010B5503803000FF006
:102AC000E2F907050A0E131A21252C0005C9114643
:102AD000FFF766FE10BD0868FFF705FF10BD05C9CA
:102AE0001146FFF70DFF10BD4B6808788A6819463C
:102AF000FFF71FFF10BD4B688A6808681946FFF78B
:102B00003AFF10BD0868FFF756FF10BD08884A68F5
:102B100080B21146FFF7A4FF10BD012010BD10B513
:102B20005C2801D0012010BD0878FFF76BFF10BDB5
:102B300010B5EFF31080C407E40F72B6AE484178C9
:102B4000491C41704078012801D10DF005F9002C95
:102B500000D162B610BD70B5A74CA07800280AD18C
:102B60000125A570FFF7E4FF0DF0FEF8002804D062
:102B700000200DF0D1F8002070BDA04825714560FF
:102B8000F9E770B5EFF31080C507ED0F72B69A4CF8
:102B90006078002803D19AA183200FF06EF8607846
:102BA000401E60706078002801D10DF0D9F8002D2A
:102BB00000D162B670BD10B58F488178002904D06D
:102BC000002101718170FFF7DCFF002010BD10B5FE
:102BD00004460DF0C9F888498978084000D00120E2
:102BE0002060002010BD10B50DF0C4F8002805D0FD
:102BF0008148012181704178491C417010BDF8B5B0
:102C0000834CA0680026012802D1A6600DF084F84C
:102C10006068012800D1666020680125764F012890
:102C200013D126603879002803D000200DF074F805
:102C30003E713878002808D07648C068C00704D0B4
:102C40007348C0388563000605612069012812D1E8
:102C5000266100F095F8012080074561FFF768FFC5
:102C60006C48C068C00705D06948C0388563000655
:102C7000056100E03D70E068012810D100F080F8A7
:102C800000F07EF800F07CF8E6603E70FFF779FF18
:102C90000CF0CFFB002802D05D48C038C563F8BDFA
:102CA000F8B5014600273C465348022510260B0084
:102CB0000FF0E9F80705080B0F1215171F00012484
:102CC000C5701BE00124042101E001240821C1702A
:102CD00014E00124C67011E001242021F7E7012748
:102CE0000CE0FFF725FF0DF03FF80028FBD002278E
:102CF00004E0FF2042A13E300EF0BFFF0DF040F88F
:102D0000002809D00DF042F8B84205D138460DF040
:102D100040F80028FAD020E001208207D0603C492A
:102D200000234B603C4B9F61344F7D6090603B487B
:102D300002690369D243D206D217521C334303619E
:102D400000E020BF4B68002BFBD0002A02D10269B3
:102D5000B2430261BD6000204860002C01D000F049
:102D600016F8F8BD10B524488078002801D10CF081
:102D7000F7FF0120810788612049801E886010BD0F
:102D800050210846491E89B20028FAD17047F8B58B
:102D900000271A49192088601D4C3D462760E760CE
:102DA00027610CF0E1FF00280BD10CF0E3FF0028B5
:102DB00002D10127FFF7BCFE0CF0D6FF0028FBD0A4
:102DC00025600126B0070661E0680028FCD0E560B8
:102DD000002F01D0FFF7D5FE0849192048600648AA
:102DE0000D49C0788863FFF7CBFF0124A407A661D3
:102DF000FFF7C6FF6661F8BD300000200003004009
:102E00007372635C736F635F636C6F636B2E6300DD
:102E100000010040000400400005004000ED00E01B
:102E200001203E49400608603D4908603D490A6866
:102E3000FF231B029A4383121A430A6037498039E1
:102E40000860704710B502460420374904E0C3000B
:102E50005B181B79002B0AD00346401EC0B2002B22
:102E6000F5D132A143200EF008FFFF2010BDC300B2
:102E7000CA50002259184A718A7101220A7110BD84
:102E8000294A0021C00080180171704710B504461E
:102E9000042803D325A152200EF0EFFE2248E100C2
:102EA0000C182079012803D020A153200EF0E5FE54
:102EB0006079A179401CC0B2814200D060710120CC
:102EC000164940068031086010BD70B5154800688D
:102ED000800B022803D015A169200EF0CEFE124D02
:102EE000184C03262078C10048190279012A07D11D
:102EF000427983799A4203D0427982716858804737
:102F00002078401CC0B22070042801D3002020701B
:102F10003046761EF6B20028E4D170BD80E100E0B4
:102F200080E200E018E400E0581100207372635C56
:102F3000736F635F7369676E616C6C696E672E6334
:102F400000000000350000208107C90E002808DAC3
:102F50000007000F083880082C4A80008018C069DC
:102F600004E080082A4A800080180068C840800970
:102F7000704710B50D20FFF7E7FFC4B20420C0432F
:102F8000FFF7E2FFC0B2844203D022A11A200EF064
:102F900074FE10BD0121244A48031060234B002217
:102FA0001A60234A5160234A1060234A11601E4967
:102FB00080390860704701211B4A480310601E4A8F
:102FC00051601A4A002111601A490860704710B513
:102FD00016490868012804D00EA156200EF04DFEB7
:102FE00010BD164880680022C0B20A600CF077FB62
:102FF00010BD10B50D4801680029FCD0FFF7E7FFB0
:1030000001200C494003086010BD000000ED00E005
:1030100000E400E07372635C736F635F68616C5F10
:10302000726E672E6300000080E100E000D1004076
:1030300000D3004080E200E000D0004000D5004016
:1030400070B5FFF7EDFE7548FFF7FCFE7449087098
:103050007448FFF7F7FE7249734B48700120C102B4
:10306000196002061A60714B1C682402240A1C6055
:103070006F4C256800232D0A2D0225606D4C606081
:10308000A0606D4D2B606B60AB606C4B19601A607B
:103090006B4B19601A60206070BD10B5604C2078D1
:1030A000FFF7EEFE6078FFF7EBFE01205E49C202FB
:1030B0000A6003060B605F49486088605E49002033
:1030C0000860486088605D480260036010BD0120B0
:1030D0005A49C0020860704710B50446012803D958
:1030E00058A15B200EF0C9FD5349A000401810BD47
:1030F00010B50446022803D952A16D200EF0BDFD83
:103100002146103101208840554988605549886022
:10311000554A0020A1008A181060474A89180860A3
:1031200010BDF7B504461746022803D945A17920FA
:103130000EF0A3FD404AA1008E184B4A01208D18C5
:103140001034A0400446012F0FD0002F03D03DA122
:103150008C200EF092FD424884600020306041488F
:1031600044600198286003B0F0BD002030603C4806
:1031700044603C4844600198286003B0F0BD3B487F
:103180004068704770B52C4D28680026344C0128E3
:1031900009D1A068C00306D501200004A0602E60FC
:1031A00000200DF05FFA6868012809D1A06880034B
:1031B00006D501204004A0606E6001200DF052FA97
:1031C000A86801280AD1A068400307D5012080041F
:1031D000A060AE6012480078FFF758FE70BD012075
:1031E0002349000608607047012014490006086062
:1031F000704701201E4940050860704701200F49B3
:1032000040050860704710B505484078FFF73EFE5E
:1032100010BD10B50DF025FB10BD00007B0D0100A9
:1032200036000020C507010080E100E008E400E06E
:1032300018E400E000B0004040B1004080E200E04F
:1032400000E100E07372635C72656D5F68616C5FE2
:103250006576656E745F74696D65722E630000003B
:1032600000B3004040B3004040B5004000B500400E
:1032700000E200E070B5FF4D044629680300A0316C
:103280000EF001FE08053E08080E1D2C3242FAA180
:10329000D42033E0887F012832D0F7A1DA202DE056
:1032A00001F061FE05282BD001F05DFE062827D035
:1032B00001F059FE072823D0EFA1DD201EE001F028
:1032C00052FE03281CD001F04EFE062818D001F053
:1032D0004AFE072814D0E8A1E2200FE0887F0528E5
:1032E0000ED0E5A1E72009E001F03DFE052807D05A
:1032F00001F039FE062803D0DFA1EA200EF0BDFC64
:103300002868A030847770BDDBA1EE20F6E7D949AC
:10331000C1220968525CD206920F05D1A0318A8A77
:10332000824201D1887D70470020704770B5044605
:10333000112020700021CF4D61702968C03189783B
:10334000002908D003290ED0042910D0FF20CAA1DB
:1033500018300EF092FC20780009012802D9286864
:10336000807E607070BD0007000F203002E0000713
:10337000000F30302070EEE730B50388C249C34CEF
:103380008B4202D09A1FA2421ED242888A4202D0A9
:10339000951FA54218D2934216D883887D24E40055
:1033A000A34211D8C088884205D0B84D04460A3CD3
:1033B0002D1FAC4208D2884208D08A4206D05B1C3E
:1033C0005A43C000824201DD072030BD002030BDDD
:1033D000FFB50022099B002802D0994205DC5CE081
:1033E000002902D1002004B0F0BD0920FBE7845C75
:1033F000002C12D085186F780D2F4CD010DC3B00BC
:103400000EF041FD0A421B2A2A303032323A3A424B
:10341000835C002B3FD1521CD2B28A42F8DBE1E739
:10342000122F31D004DC0E2F35D00F2F2CD132E0EB
:10343000142F11D0152F27D116E0022CD5D1AB783F
:10344000039C072B237001D25B0701D40A20CAE733
:10345000029B01241B7814E0E343DB0708E0012C06
:1034600008D011E00620BEE70F2523072D075B19C2
:10347000002BF4D03046B6E7029B1B789C070AD499
:1034800002242343029C2370835C521C9A18D2B2FC
:103490008A4204DDA9E70B20A5E7192676028A42B5
:1034A000A5DB9FE705E00278401C002A01D0002040
:1034B00070470A46491E89B2002AF4D1012070479C
:1034C00030B56C4C0021206887B0C943A0308182A0
:1034D0000025857506200CF0A1FB05200CF09EFB55
:1034E00002200CF09BFB0120FFF7C4FE2068694618
:1034F000A030C5770120087068460AF09CFA07B032
:1035000030BD10B55B4A94B01268A032927F042A95
:103510000AD028236A4613705080132906D03B290D
:1035200004D0072014B010BD0820FBE7117110462D
:1035300009A908F0FBFA040002D10420FFF79AFE63
:103540002046EFE7F0B59BB0040003D14AA15048F4
:103550000EF093FB72202070606800270178082627
:10356000491F444D0B000EF08EFC0F096DCBFA6D18
:103570006FF8F7AB6D6D6D6DF6F56D002868A030D6
:10358000807F032804D097203BA180000EF075FBBC
:1035900000200CF043FB60781023304360702868F3
:1035A0000146C0314A781A434A7061688A783C2AD9
:1035B00045D08E8801460122A0318A756268D28981
:1035C0000A836268128A4A836268528A8A838E8278
:1035D00061680622C979C1736168103008310EF044
:1035E000CDF90520FFF746FE2868C2210F54017F60
:1035F000FB2211400177B02109584A7A92089200C3
:103600004A72C782304602F05FFC002804D020488E
:1036100019A122300EF031FB304601F0F4FE0028F3
:1036200004D04F2014A1C0000EF027FB304603F059
:10363000C6FA002806D016480FA1273023E1012042
:10364000FFF718FE1BB0F0BD878801F08CFC052841
:1036500022D001F088FC06281ED001F084FC072847
:103660001AD001F080FC042816D0094802A133309A
:1036700010E00000380000207372635C6761705FC7
:10368000636F72652E630000FFFF00007B0C00007B
:10369000530200000EF0F1FA607830436070286841
:1036A000C030417831434170FFF70AFF384602F0DD
:1036B00010FC384601F0ADFE384603F0B6FAC1E71B
:1036C00001F051FC05280FD001F04DFC06280BD06D
:1036D00001F049FC072807D001F045FC042803D07D
:1036E000FD49FE480EF0C9FA6068807902F0A8FC36
:1036F0000028A7D06178314361706168C880A1E774
:1037000001F031FC052810D001F02DFC06280CD06A
:1037100001F029FC072808D001F025FC042804D07A
:103720005520ED49C0000EF0A8FA60783043607073
:103730006068C1882868A030018361680989418375
:1037400061684989818302200CF068FA2868A030FA
:10375000C77777E70BE166E16FE070E0FFE701F024
:1037600002FC052810D001F0FEFB06280CD001F069
:10377000FAFB072808D001F0F6FB042804D0D7484C
:10378000D54922300EF079FA2868BE21095C042957
:1037900095D0807D40063CD5606802210C30FFF753
:1037A00081FE002835D060680821001DFFF77AFEF1
:1037B00000282ED02868014680310A6B527A920781
:1037C00008D1C222125C002A08D1C28AD30505D5CD
:1037D000D20703D1C38A40229343C382C38A802283
:1037E0009343C3822D236A461370A030808A508091
:1037F000CB698A694869096A01AC0DC4049109A9B9
:10380000684608F093F90028A3D0B448B249443080
:1038100039E062682868A42192890A526168082206
:10382000091DA6300EF0AAF810A806742868A63064
:10383000159014A80AF0FFF804E70121817101F046
:1038400092FB052810D001F08EFB06280CD001F069
:103850008AFB072808D001F086FB042804D09F4883
:103860009D4968300EF009FA2868BE21095C0429D8
:10387000E2D061688A79002A02D08978002905D0CF
:1038800096489549CE300EF0F8F9DBE66178314381
:103890006170B0210958497A8907890F01294DD1F2
:1038A000817D09064AD4017F490701D5042100E042
:1038B0000321C03081702B206946087009A9684631
:1038C00008F034F9002804D08448834984300EF08D
:1038D000D4F969462868098D01830E2210A90A745B
:1038E0007F491591027A0A70024609324A600F3206
:1038F0000A61521D8A601032CA60133A4A618A32E4
:103900008A61921CCA61423A0A6210324A621032DB
:103910008A62403A8A63D21FCA63521C54300A64D6
:10392000486414A80BF012FA022814D0002812D010
:103930006A486949AC300EF0A0F90CE0817D490677
:10394000017F490701D5042100E00321C0308170C7
:1039500006200CF063F92868C18A0A0602D44022C6
:103960009143C1828AB280218A43C2826AE6286872
:10397000A030807F032804D058485749DA300EF031
:103980007CF900200CF04AF9607810233043607015
:1039900028680146C0314A781A434A7061688A78BB
:1039A0003C2A00D14BE68E8801460122A0318A755F
:1039B0006268D2890A836268128A4A836268528A7C
:1039C0008A838E8261680622C979C173616810306A
:1039D00008310DF0D3FF0520FFF74CFC2868C22109
:1039E0000F54017FFB2211400177C782304602F05D
:1039F0006BFA002804D0E320374980000EF03DF92F
:103A0000304601F000FD002804D034483249F63039
:103A10000EF033F9304603F0D2F80028A6D02F4834
:103A20002D49F8302FE76078304360700AE60029AE
:103A30000BD088802B480068A030028BCA80028B94
:103A40000A81428B4A81808B88817047F7B5064690
:103A500000780C460027010982B03D4601296ED04E
:103A6000204800680090C030022969D0072904D09E
:103A70000A2977D018491C48D9E171680A78521F81
:103A800013000EF000FA0F09BB5EBBBB3A6565522E
:103A9000BBBBBBBB707ABB008A783C2A26D0102700
:103AA0001625002C7ED08888A0807068A21DC08951
:103AB00020827068C089E0817068008A60827068C6
:103AC000408AA082716808460831C07901F050FA36
:103AD0000020607380E0000078360000990200004A
:103AE000D8110020380000201205000019270725F2
:103AF000002CD7D00021A17171E011270E25002CD8
:103B0000D0D089880091A1807168F722897961738A
:103B1000417811404170009802F0DCF9009801F002
:103B20007CFC009803F08FF8ACE101270925002CFC
:103B3000B8D08888A080706880792072A2E160E0A7
:103B40009DE1888812270E252146FFF770FF99E135
:103B500018270825002CA5D08888A080A01DFFF775
:103B6000E5FB8FE167E01A270725002C9AD04888EB
:103B7000A08070680079A07184E18A783C2A32D0F4
:103B800010271625002C8DD08888A0807068C089E9
:103B900020827068C089E0817068008A60827068E5
:103BA000408A00E040E1A0827168607B497D400866
:103BB000C9074000C90F084360737168C007497D99
:103BC000C00F49084900084360737168A21D084688
:103BD0000831C07901F0CCF9FA480068C03041786A
:103BE000EF22114031E119270725002C88D0002150
:103BF000A1714278EF210A40427043E1F249F34853
:103C000015E1307A012803D0F048EF4917300EE172
:103C100012270E2570892146FFF709FF002C87D057
:103C200070784007400F032888D1E6480068C0300C
:103C30004178FB22D5E7E3490968A031002C01D087
:103C40008A8AA280327A921E13000EF01CF9073B7A
:103C50004651EEDB6B05EE0013270C25002C85D0BA
:103C6000F16889788907890F0129217A27D04908C5
:103C700049002172FD221140F268E3239278520735
:103C8000D20F5200114321720022E2801940F368E2
:103C90001B785B07DB0E19432172DF231940F368A1
:103CA0005B78DB079B0E194321726272F168012277
:103CB000C978A17201781143F722114016E0012260
:103CC0001143D6E715270C25002C8FD0F06806226B
:103CD0000068A11D0DF0C0F8D4E016270725002CC0
:103CE00084D0317BA1710178082219E00170C9E00C
:103CF00014271225002C92D000980099C07BA21D99
:103D0000103101F035F9B089E081207C01210843B0
:103D1000F92108402074AB480068C03001780222C5
:103D20001143E3E717273825002C7DD03221A01D51
:103D30000DF081FE0020A071207A03210843A14AE2
:103D400020721168FB260B7F30405B07DB0F9B0066
:103D500018432072B0204058407A800751D0A07A92
:103D60008A7D4008D2074000D20F1043FD22104048
:103D7000A0728B7D30409B07DB0F9B00184308230C
:103D80001843EF231840A0728A7DE07AD206D20F42
:103D9000304092001043E072F72210408A7DD20634
:103DA000D20FD2001043E072088BA081204610226F
:103DB00064310E300DF0E2FD8249A07F0968C00732
:103DC0008A7EC00F52001043A0770A7F4008520736
:103DD0004000D20F1043A077084644304DC820342D
:103DE0004DC4303C3D20405C224630323E3101F033
:103DF000BFF8744800688030006B417A89088900F8
:103E000041723FE0327B022A14D017273825002C5C
:103E10002ED0012A1BD0032A1BD0042A1CD0052A2D
:103E20001AD06949694801E022E024E0B1300DF080
:103E300024FF27E019270725002C19D0898AA180A3
:103E40000121A17141784908490041701AE001201F
:103E500000E00220A07106E0707B0007000F8030B8
:103E6000A071052A02D00020E0710BE00120FBE7E1
:103E7000049805800CE055485349BB30D7E7317AA8
:103E8000002908D00498002C058001D02780658087
:103E9000002005B0F0BD19270725002CE8D000212F
:103EA000C943A1800021A1714178FD2299E600B5A6
:103EB00095B001F058F8022803D001F054F8032817
:103EC00018D11B2108A801730021817369460BA832
:103ED00007F02CFE002804D1684640781B2802D049
:103EE000032015B000BD00200BF098FE68468078D6
:103EF000002801D00820F4E70120FFF7BBF90020DB
:103F0000EFE770B500252F4C002806D0022816D008
:103F10002D492F480DF0B1FE70BDFFF7C8FF0028F6
:103F2000FAD1FEF7F9FA222101700572FEF710FBB3
:103F30002068C030417802221143417070BDFEF705
:103F4000EBFA12210170012101722168A0318A8AE5
:103F50004281CD77FEF7FCFA2068C0304178042218
:103F6000EAE770B50D46040004D119481649083037
:103F70000DF083FE2078012805D01548124926301F
:103F80000DF07BFE70BDA18812480E4E814209D112
:103F9000E288824206D130681321A030808AFFF780
:103FA000B0FA70BD814202D1E088002814D01220FE
:103FB0002870687808210843687007CC083507C561
:103FC00000210FE038000020783600003E04000099
:103FD00049050000FFFF00007822002102200BF0BD
:103FE000A0FD02213068A030C17770BDF74800689D
:103FF000C0308078704738B5F44C054601782068A9
:104000000B00A0300DF03FFF098635060671133610
:104010005A758600807F052803D0ED49ED480DF0E4
:104020002CFE20680422017F114301775DE0A988FE
:1040300000291ED0808AE84988421AD0A868002842
:1040400004D1E448E2490F300DF017FEA8680622BB
:104050000A38A86000902068AB88A030808A0421CC
:1040600001F068FE002804D0DA48D94914300DF078
:1040700004FE38BD2979807F02290BD00428F8D0AE
:10408000284600F086FF20681321A030808AFFF7C1
:1040900038FA38BD062804D0CE48CD491E300DF080
:1040A000ECFD284600F075FF20680122C030417801
:1040B000114341700520FFF7DDF838BD00F053FFD4
:1040C000052808D000F04FFF042804D0C148C0499B
:1040D0003C300DF0D2FD0ECDC0480361C26081605E
:1040E000A2210170FEF749FA38BD284600F051FFC1
:1040F00038BD00F038FF052808D000F034FF06284E
:1041000004D0B448B2494D300DF0B7FD0720FFF799
:10411000B1F8EAE7AF48AE495630A8E7FFB593B02B
:104120000124684603218470C9021D46018009F0FC
:1041300072F900226946012002F0E3FF064609F009
:104140006EF9002E5CD16846152184704902018009
:1041500000271C2101A808970DF06FFC01200146E3
:10416000103108A801700020014608A8417081782C
:10417000F9200140891C214308A881706846017913
:1041800002263143017114998185C7851F2101865B
:1041900008A80A9013980D906846099009F03BF919
:1041A0000EAA09A901A802F090FD074609F037F907
:1041B000002F02D0384617B0F0BD844F68463968EA
:1041C000008F4880684684708549018008A88078FF
:1041D000F9210840801C4108490008A88170684600
:1041E0008685068615A80D9009F015F90EAA09A96D
:1041F00001A802F06AFD064609F011F9002E01D06F
:104200003046D8E768463968008F88807449684628
:104210008470C91C0180298810A8018069884180A8
:10422000A9888180E988C180082168468185018646
:1042300010A80D9009F0EFF80EAA09A901A802F044
:1042400044FD044609F0EBF8002C01D02046B2E70B
:1042500068463968008FC8800020ACE770B5044616
:104260005E48C421A8300DF0E8FB5C48574DA830EB
:1042700000212860C943A030818200268675012074
:10428000FEF7F8FF2868BF210E54014609310830B7
:10429000FEF740F8296808462D311D30FEF795F8E5
:1042A000002C26D02868B0210C501E21A181217A33
:1042B0008F221140103121720146183121610939D4
:1042C0006161491CA1610839E161491C21629B318E
:1042D000616287392160103161601339E162091F21
:1042E00021637E3121643039616310318430A163F0
:1042F000E06370BD35480068A030807F042801D09D
:10430000002070470120704730B504460520800327
:1043100095B0844208D3012080043249201A884293
:1043200002D33148844202D3102015B030BD274952
:104330000868A030807F012801D00820F5E7FFF74A
:10434000D9FF002801D01120EFE70D680120287265
:104350002278002A08D025491720012A0AD0022AEB
:104360001FD0032A25D121E03220694608700020A1
:10437000287205E0A2799209032A1AD169460870C9
:1043800000A80622611C02300DF0F8FA2846062229
:10439000611C09300DF0F2FA09A9684607F0C6FB66
:1043A000C3E7A2799209012A03D1E7E7A27992092A
:1043B000E4D00846B9E707214907012210B54118A2
:1043C0009203914214D3102010BD00003800002049
:1043D0007836000086050000FFFF000078110020FD
:1043E000012A00000000FC1F0040002002320000F3
:1043F000F949024609680B7A0931184600F0B8FD00
:104400000020E1E7FFB599B0054600206946087134
:10441000087208A9087408751E4614460520012173
:1044200080038904ED4AEE4B002D06D085420DD362
:104430006F1A97420AD39D4208D2002C09D08442B9
:1044400004D3601A904201D39C4202D310201DB0C5
:10445000F0BD2846204318D01F270CAB01AA0097B7
:1044600028461A99FEF7B4FF0028F0D10DAB02AA36
:10447000314620460097FEF7ABFF0028E7D168469B
:10448000007AC10703D00A20E1E70720DFE78007B1
:1044900005D568460079800701D50B20D7E7FFF7DF
:1044A00029FF002801D01120D1E703AF002D0FD044
:1044B0001A20694608731A9888732946F81C1A9AB4
:1044C0000DF05CFA0EA903A807F030FB0028BED15E
:1044D000002C0ED020216846017386733246214697
:1044E000F81C0DF04BFA0EA903A807F01FFB0028DB
:1044F000ADD1B94908A80968007C08700020A6E77A
:10450000F0B5044695B00020149005208003844245
:1045100075D301208004B14F201AB8426FD3B04840
:1045200084426CD2207801280CD10521606889036F
:10453000884264D301218904411AB9425FD3A84952
:1045400088425CD200F00FFD022809D000F00BFD7C
:10455000032805D0A048BE210068095C012902D0CB
:10456000082015B0F0BDC121095CCA06920F03D125
:104570008A0701D4490701D51120F2E721780129E2
:1045800015D0228A974D1346203BAB4272D20229A6
:1045900001D0032901D1A02A6CD3012907D00278C8
:1045A000D20704D0628A002A64D0B42A62D80029D3
:1045B00006D0012908D0022904D003295AD110E0DD
:1045C000002512E0022510E0616801250978002924
:1045D0000BD0012907D0022905D0032903D0824836
:1045E000BFE7032501E001211491217A002907D0BA
:1045F000012907D0022907D003293BD106E037E083
:10460000002604E0012602E0022600E00326002D39
:1046100001D0022D3FD1002E3DD0E168002929D0E4
:104620000A79002A27D0082A24D80B7B9C46082B1D
:1046300020D8002A0CD005230A689B039A4217D37E
:1046400001239B04D31ABB4212D3654B9A420FD26B
:104650006246002A13D0896805229203914207D34B
:10466000012292048A1ABA4202D35D4A914206D3C9
:10467000102076E75EE00B7B002B5BD0D5E701785E
:10468000890702D05848401E6BE7022D03D1022E45
:1046900050D0032E4ED0182269460A70228A4A80D2
:1046A000228A8A808D71007A0127002802D0012891
:1046B0007ED102E00020C87100E0CF71149808722A
:1046C000217802A80130012922D006210DF0B3F98A
:1046D00007216846C173067409A907F027FA002864
:1046E000C7D10A206946087009A9684607F01EFA72
:1046F0000028BED13A206946087009A9684607F02B
:1047000015FA0028B5D1002D08D0022D06D04AE0B8
:1047100061680622491C0DF031F9D9E7002E42D01C
:10472000002623E00168B00009580978002903D069
:10473000012905D0072014E700216A46917001E0A5
:1047400069468F70E16806220968095800A8491C6B
:1047500003300DF013F90B206946087009A968466B
:1047600007F0E4F9002884D1761CF6B2E0680179FC
:10477000B142D7D8002612E08068B100415800A8A5
:10478000102202300DF0FAF83B206946087009A9A2
:10479000684607F0CBF90028CDD1761CF6B2E06868
:1047A000017BB142E8D81B2168460170877000E0A8
:1047B0002DE009A907F0BAF90028BCD108A8407972
:1047C0001B2824D1002D15D0012D0FD0022D20D073
:1047D000032D12D11DE00000380000200000FC1F56
:1047E00000400020E13F0000023200000320FEF7FD
:1047F00041FD10E00320FEF73DFD608A00280AD04D
:104800008200002108460BF08CF9002803D0032019
:10481000A7E60220EFE70020A3E670B586B00C0003
:1048200006460CD00520800384424BD3012080042F
:10483000F849201A884245D3F748844242D2F74DBE
:10484000BF212868095C022903D0C03040784007A6
:1048500002D5112006B070BD002C04D02046FEF712
:104860008BFD0028F6D13046FEF751FD012803D01C
:10487000022823D0EA48EDE721001BD10820694631
:104880008882286801ABC08805AA002103F005F8DA
:104890000028DFD16846808A082801D00320D9E7A4
:1048A000684681888181C188C181018901824189ED
:1048B000418203A9304601F094FBCBE7002C01D0E4
:1048C0000620C7E71020C5E770B50C460546FEF781
:1048D0001EFD012803D0022801D0D14870BD214619
:1048E0002846FEF70EFE70BD00B50146143095B0A7
:1048F000192801D2880707D008461E3004D00A3094
:1049000002D0072015B000BDFFF7F4FC002801D04D
:104910001120F7E7C14831220068417068460270F3
:10492000817009A907F002F9ECE701B582B0022015
:1049300069460880B94802AB00686A468088002151
:1049400002F030FE69460988022900D003200EBD1E
:1049500038B502216A461180072149070122411812
:104960009203914201D3102038BDAC490346096837
:104970006A468C880021204602F08FFF694609882C
:104980000229F1D0032038BD3EB50446082069460F
:10499000088005208003844208D3012080049D49BB
:1049A000201A884202D39C48844201D310203EBD85
:1049B0002046FEF7E1FC0028F9D12088694688806E
:1049C0006088C880A0880881E0884881934801AB4E
:1049D00000686A46C088002102F0E4FD6946098843
:1049E0000829E4D003203EBD1FB5044608206946CF
:1049F000888105208003844208D3012080048549F2
:104A0000201A884202D38448844202D3102004B082
:104A1000DAE482486B46006803AAC088002102F0ED
:104A20003CFF0028F3D169468989082901D0032079
:104A3000EDE76946098821806946498861806946B1
:104A40008988A1806946C988E180E0E7F0B505233F
:104A50009B0385B016460F460446994208D30122AF
:104A600092046C49B81A884202D36B48874202D339
:104A7000102005B0F0BD1F2E01D90C20F9E7142E2F
:104A800006D92078050701D1000901D00720F0E7F9
:104A9000624D9C422BD3A01A884228D35E488442A0
:104AA00025D2286803A9408802F02EFD0028E0D115
:104AB000207869464873286803A9408802F007FDFA
:104AC0000028D6D16946009008780221084369463B
:104AD0000870497B090703D008210843694608701C
:104AE00028686946408802F09CFC0028C1D16946CC
:104AF0008E8028683B46408801AA002102F052FDC2
:104B000069468988B142B4D00320B2E738B50C4673
:104B100007214907012243189203934202D26118E8
:104B2000914201D3102038BD21886A4611800029A6
:104B30000BD03A49034609684D880021284602F007
:104B4000ACFE69460988218038BD0C2038BD10B5FF
:104B50000C460521890386B08C4208D301218904C3
:104B60002C4A611A914202D32B498C4202D3102065
:104B700006B029E429490968A031897F052901D0B7
:104B80000820F5E7FEF7C3FB012803D0022826D052
:104B90002348EDE720881E2801D20720E8E70620F9
:104BA000FEF768FB05216846017000798108A0784E
:104BB0008900C007C00F014368460171FB20014016
:104BC000A0788007C00F80000143684601712188EA
:104BD000C18008F030FF0028CAD00320C8E70620B3
:104BE000C6E770B586B014460D46FEF790FB012867
:104BF00003D0022801D00A482CE6084EC0213068B4
:104C0000095CC9070ED0BE21095C04290AD0002D19
:104C10000AD05AE00000FC1F0040002038000020AD
:104C200001300000082015E6052189038C4208D3D5
:104C300001218904DD4A611A914202D3DC498C4288
:104C400001D3102006E6A178C906490F04290CD823
:104C5000E178072909D3102907D822798A4204D399
:104C6000102A02D822881E2A01D00720F2E58030BF
:104C7000026BF7239172026B2179D172026B117A68
:104C80001940A3789B06DB0FDB0019431172026BFE
:104C900021889181026BA378517ADB07890889000A
:104CA000DB0F19435172FB231940A378026B9B075A
:104CB000DB0F9B0019435172006BA278017AD20678
:104CC000C908C900520F114301720B2069460870D0
:104CD000852D25D008DC002D1AD0812D1AD0822DEB
:104CE0001AD0832D08D119E0862D1BD0882D1BD01A
:104CF000892D1BD08A2D1BD00B2008710520FEF7B3
:104D0000B9FA684608F097FE002813D00320A1E501
:104D10000020F2E70120F0E70220EEE70320ECE7B5
:104D20000520EAE70620E8E70820E6E70920E4E7AF
:104D30000A20E2E73068C030017849084900017074
:104D4000002087E570B59B4E0D46316886B0C031B6
:104D500009781446090701D408207BE5FEF7D7FA45
:104D6000012803D0022801D0934873E50520800371
:104D7000844208D3012080048C49201A884202D33F
:104D80008B48844201D3102064E5022D03D0012D0D
:104D900003D007205EE5022000E00120694608718B
:104DA000032002940870684608F045FE002801D0F0
:104DB00003204FE53068F722C030017811400170C0
:104DC000002047E570B594B014460E46FEF79FFAF2
:104DD000012804D0022802D0774814B070BD754D68
:104DE0002868C0300078800701D40820F5E7002C3F
:104DF00001D00720F1E7FFF77DFA002801D011204C
:104E0000EBE7002E1DD02D21684601702C68B420E0
:104E1000015B684641801022B11C01A80CF0AEFD78
:104E2000207FFB210840B17CC907490F0843207748
:104E3000B07CFF214008A076E08A82310843E082FE
:104E400007E02E21684601702868A030818A6846F4
:104E5000418009A9684606F069FE2968FD23C03132
:104E60000A781A400A70B8E710B50C46FEF74FFAF8
:104E7000012803D0022801D04F4810BD052080032F
:104E8000844208D3012080044849201A884202D372
:104E90004748844201D3102010BD2046FEF746FA51
:104EA000002010BD30B595B00446FEF730FA012859
:104EB00004D0022802D0404815B030BD3D4D2868CE
:104EC000C030C078002801D00820F5E7FFF712FABB
:104ED000002801D01120EFE7382168460170448096
:104EE00001240471447109A906F020FE002801D0B4
:104EF0000B20E1E72868C030C4700020DCE730B543
:104F000095B00446FEF703FA012803D0022801D029
:104F10002948D1E7274D2868C030C078002805D03F
:104F2000FFF7E8F9002803D01120C5E70820C3E700
:104F3000382168460170448000240471447109A935
:104F400006F0F4FD0028B7D12868C030C4700020F6
:104F5000B2E718480068A030807F052801D30120FF
:104F600070470020704713480068A030807F70476A
:104F700008B51346002806D010A0006800904879B4
:104F80006A468009105C18700622581C0CF0F6FC6A
:104F900008BD10B50446FDF7BFFAA22101700ECC82
:104FA00008300EC0FDF7D4FA10BD00000000FC1F51
:104FB0000040002038000020013000000302FF0103
:104FC000FFB50E4681B001991446CA782146354690
:104FD0000A3110350A980091022A09D0032A47D0D5
:104FE000052A7DD0F8A1FD480CF047FE05B0F0BDC4
:104FF000F7890A2179430A31198031210180002C77
:10500000F4D0707A002804D0FF20EFA19B300CF080
:1050100034FE70680088A0800020E080317B27810A
:10502000891FCEB2009C1AE02888696820804878E1
:105030000A7800021043E080C8788A7800021043A2
:105040002081A21C091D30460AF0DEF8002E01D096
:10505000002802D000202071608008350A343846CC
:105060007F1EBFB20028DFD101990020C870BDE7C4
:10507000F7890A2179430A31198032210180002CF5
:10508000B4D070680088A0800020E080307B278149
:10509000401FC6B2009C43E069682A880878E28015
:1050A0002279C30752085200DB0F1A43FD231A402E
:1050B0008307DB0F5B001A43FB231A404307DB0F18
:1050C0009B001A43F7231A400307DB0FDB001A4348
:1050D000EF231A40C306DB0F1B011A43DF2300E056
:1050E00024E01A408306DB0F5B011A43BF231A40FA
:1050F0004306DB0F9B011A432271C00960718A7855
:105100004B781002184320812246C91C30460AF011
:105110007BF8002802D00020A070208008350A34D7
:1051200038467F1EBFB20028B6D19DE7317BF78994
:10513000891E89B20091083179430C3119803421DC
:105140000180002C93D070680088A0800020E0804F
:105150002781009860810C34F80006190BE028883C
:105160002080666069683046009A0CF007FC009861
:1051700008350834361838467F1EBFB20028EED1F5
:1051800072E7F8B50546C0781E460C46069F030038
:105190000CF079FE09C10615323F4C6C919EC1009E
:1051A0000092207B082806D0032804D08B4886A1D3
:1051B0001F300CF062FD0A20308030200BE000929E
:1051C000207B042804D085487FA13B300CF055FD9E
:1051D0000A203080312038800098002845D060684F
:1051E000018800988180607A0099FF300130C88082
:1051F00000990020088137E00092207B042804D029
:10520000AB2071A180000CF038FD0A2030803220E4
:10521000E1E70092207B022804D070486AA1713037
:105220000CF02BFD0A2030803320D4E70092207B45
:10523000042804D0694864A18B300CF01EFD0C20BA
:10524000308034203880009800280ED060680188B3
:1052500000988180607A0099FF300130C880009901
:105260000020088100994881E870F8BD0092207BF9
:10527000052806D0062804D0584853A1A7300CF0C2
:10528000FCFC0E2030803520388000980028ECD0BF
:105290006068018800988180607A0099FF30013051
:1052A000C8800098E18901810099002088810099D7
:1052B000AA884A81D8E70092207B072804D0474873
:1052C00041A1BD300CF0D9FC0A203080362082E7A5
:1052D0000092207B0C2804D040483BA1D1300CF038
:1052E000CCFC0E2030803720388000980028BCD0BD
:1052F0006068018800988180607A0099FF300130F1
:10530000C8800098E1890181009900208881009976
:1053100001228A72A8E71B202BA140010CF0ADFCF2
:10532000F8BD70B5054600780C46082603000CF061
:10533000AAFD10593232221A360909090909090948
:10534000090909596878002803D01FA124480CF0E6
:1053500094FC002C03D122481BA1401C08E060787B
:105360003043607020E0002CF9D11D4816A10930AF
:105370000CF083FCF3E7002904D0194812A1113086
:105380000CF07BFCFDF7C8F80446407830436070B1
:10539000FDF7DEF808E0E9200BA1800002E01048EC
:1053A00009A120300CF069FC002C0AD060780007BD
:1053B00007D5932020702046582229460830FAF756
:1053C00003FF002070BD00007372635C676174743A
:1053D000635F636F72652E63000000005602000079
:1053E00089030000FD49FE48DCE710B50020FD4CB4
:1053F000FD490346C2008C525218401C0006D3706F
:10540000000EF7D010BDF8490880012088700020F8
:105410007047F54900208870704710B50020F249A8
:10542000C043088006F0BCFB10BDF7B584B005464C
:10543000002768460781878068680C46008800F06E
:105440006DFB0646287A032806D0002E04D1E448D6
:10545000E24938300CF011FC297A2046C91E0E3082
:1054600000900B000CF00FFD0DD7CEE81A08AC230E
:10547000486111B58686E80002A8009001AB22467B
:105480002946304600F070FBDBE002A8009001AB3B
:1054900022462946304600F09FFBD2E002A8009049
:1054A00001AB22462946304600F0E6FBC9E0F07821
:1054B000062804D0FF20C94920300CF0DEFBE88923
:1054C00069460E30888035200881002CDCD0687A4F
:1054D000002803D0FF20C149283023E068680188F4
:1054E000A180E780A9892181B1886181E989A181B1
:1054F000EA89296900983AE0F078062804D0FF206C
:10550000B6493A300CF0B9FBE88969460E3088801C
:1055100035200881002CB7D0687A0028DED0FF2023
:10552000AE4942300CF0A9FBD8E7F078072804D048
:10553000FF20AA4954300CF0A0FBA88969460A3024
:10554000888036200881002C7BD0687A002804D01F
:10555000FF20A2495C300CF090FB68680188A180B4
:10556000E780A98921812046AA890A3029690CF09F
:1055700005FA45E0E88969460E3080B23822888015
:105580000A81002C55D0687A002804D0FF20934966
:1055900073300CF072FB68680188A180E780287A7C
:1055A0000E280BD00221A172A9892181E989A1814C
:1055B000EA89296900980CF0E1F942E00121F2E75B
:1055C00002A8009001AB224629463046FFF7F8FCBE
:1055D00037E0F078082803D0804984480CF04DFB70
:1055E0000E216846818037210181002C29D068680E
:1055F0000188A180E780A9892181A7810120A0726B
:10560000F7701EE002A8009001AB22462946304602
:10561000FFF7B7FD15E009206946392288800A8125
:10562000002C06D00120E0806F480188A1802772FD
:1056300007E00699088010E0694868496C300CF072
:105640001CFB6846069980880880002C05D06846B7
:1056500000892080684680886080002007B0F0BD07
:10566000F7B594B015460F46149800F062FA04009E
:1056700007D0032000F048FB022804D3112017B004
:10568000F0BD5B48FBE71720694601260883002D23
:105690000FD00321684601711021018210A8024633
:1056A000059004A9284609F0EBFD00280DD007203D
:1056B000E5E708216846017100210781C94341815E
:1056C00005218673C90281810CE0A878A071288821
:1056D000A080684605218673C90281810021078167
:1056E000C943418109AA023206A901A806F090FA2D
:1056F000002802D000F027FAC1E707A8009068460A
:10570000038B04220321149800F014FB0028B6D167
:10571000E670B4E770B592B00D0006460BD000F00D
:1057200008FA040009D0032000F0EEFA022806D39C
:10573000112012B046E61020FBE72D48F9E71721AB
:105740006846818004210172298881816988C1812C
:1057500001218174274901820AAA023201A902A803
:1057600006F056FA002802D000F0EDF9E1E708A8AB
:1057700000906846838804220321304600F0DAFA5C
:105780000028D6D10221E170D3E770B592B00D00A8
:1057900006460AD000F0CDF9040008D0032000F03E
:1057A000B3FA022805D31120C3E71020C1E710483F
:1057B000BFE7172168468180042101722988818111
:1057C0006988C181012181740A490AAA491C0182A0
:1057D000023201A902A806F01BFA0DE0C85300002E
:1057E000AD030000FFFF00003C0000205F0200004E
:1057F0000130000002280000002802D000F0A3F9C8
:1058000097E708A800906846838804220321304661
:1058100000F090FA00288CD10321E17089E770B57F
:1058200092B00D0006460AD000F083F9040008D0BB
:10583000032000F069FA022805D3112079E710202F
:1058400077E7FA4875E70221684601722988818165
:105850006988C181172181800AAA023201A902A8A0
:1058600006F0D6F9002802D000F06DF961E708A82B
:1058700000906846838804220321304600F05AFADB
:105880000028DBD10421E17053E7F0B591B0150099
:105890000E4607460BD000F04CF9040009D0032057
:1058A00000F032FA022806D3112011B0F0BD10200A
:1058B000FBE7DE48F9E71721684681800421017281
:1058C000298881816988C181B17881743188018298
:1058D0000AAA023201A902A806F09AF9002802D009
:1058E00000F031F9E1E708A80090684683880422B7
:1058F0000321384600F01EFA0028D6D10521E170B8
:10590000D3E7F7B592B015460E46129800F011F99C
:10591000040007D0032000F0F7F9022804D3112077
:1059200015B0F0BDC148FBE70627002D12D0684630
:1059300007728681C581A5801720694688800AAADA
:10594000023201A902A806F063F9002807D000F08E
:10595000FAF8E5E70521684601728681EBE708A8B9
:1059600000906846838804220321129800F0E2F92F
:105970000028D5D1E770D3E7F7B592B016460D00F1
:105980000BD0129800F0D5F8040008D0032000F0E6
:10599000BBF9022805D31120C2E71020C0E7A348B5
:1059A000BEE7072768460772868117210495818024
:1059B0000AAA023201A902A806F02AF9002802D098
:1059C00000F0C1F8ACE708A800906846838804227C
:1059D0000321129800F0AEF90028A1D1E7709FE7EB
:1059E000F3B593B00C0013D02078022808D001281A
:1059F00006D0032812D0042810D005280ED019E0B4
:105A0000A068002804D0E088142803D90C2087E778
:105A1000102085E7A08800280CD101E006207FE750
:105A2000139800F086F8050006D02078012811D0E0
:105A3000022803D0072073E77C4871E709216846F4
:105A4000017261888181E188C181A06808260727E9
:105A500004900AE00C216846017261888181E18826
:105A6000C181A068032602270490304600F04CF95B
:105A7000B84202D36D48801C52E7172069468880DF
:105A80000AAA023201A902A806F0C2F8002802D030
:105A900000F059F844E708A800906846838804227B
:105AA0003146139800F046F90028B0D12178012939
:105AB00003D00229ABD0032032E70821E9702FE799
:105AC00030B591B00C46054600F033F8002808D0F8
:105AD000032000F019F9022805D35448801C11B0A6
